:100000000C9458000C9484000C9484000C9484008C
:100010000C9484000C9484000C9484000C94840050
:100020000C9484000C9484000C9484000C94840040
:100030000C9484000C9484000C9484000C94840030
:100040000C9484000C94D0030C94F8030C942004BA
:100050000C9484000C9484000C9484000C94840010
:100060000C9484000C9449020C9484000C94840039
:100070000C9484000C9484000C9484000C948400F0
:100080000C9448040C9470040C9498040C94840010
:100090000C9484000C9484000C9484000C948400D0
:1000A0000C9484000C9484000C9484000D014A018B
:1000B00011241FBECFEFDAE0DEBFCDBF12E0A0E01B
:1000C000B1E0E8E5F5E202C005900D92A031B1077C
:1000D000D9F725E0A0E1B2E001C01D92A53BB2072F
:1000E000E1F710E0C8E5D0E004C02197FE010E94CE
:1000F0007E0FC635D107C9F70E9486000C94AA125C
:100100000E9408010C94AA120C9400000E94C004E2
:100110000C94210761E070E0809106019091070145
:100120000E94130140E855E260E070E082E992E04D
:100130000E945C0160E471E082E992E00C94C301EA
:100140000F931F93CF93DF93809106019091070146
:100150000E942A0161E070E0892B11F060E070E0FC
:1001600080910601909107010E94240182E992E0AA
:100170000E945601181619060CF040C082E992E060
:100180000E9479018A30910531F56FE471E082E9CE
:1001900092E00E94AC0102E112E0C0E0D0E0809168
:1001A000100290911102C817D90754F4F801619117
:1001B00071918F0182E992E00E9494012196EFCF24
:1001C0006AE070E082E992E00E94940110921102CC
:1001D00010921002CBCF2091100230911102A90190
:1001E0004F5F5F4F5093110240931002220F331F55
:1001F000F901EE5EFD4F91838083B8CF64EF71E02B
:1002000080E090E0DF91CF911F910F910C94380125
:100210000E948A000E94A000FDCF60E070E082E9A9
:1002200092E00C9452016115710529F0623071055C
:1002300021F462E003C060E001C063E0FC01EA5A1F
:10024000FE4F80810C9487028A5A9E4FFC01808168
:100250000C94FF028A5A9E4FFC0180810E94C002CA
:1002600021E030E0892B11F420E030E0C90108954D
:100270009B01AC01A8EEB3E00E94730F22E09695BB
:100280008795779567952A95D1F720E030E0A90109
:100290000C944B0D60E070E08CED92E00C945201F8
:1002A0000C94B006FC01718360830895885B9F4FB6
:1002B000FC018081918108950F931F93FC01EE5BF7
:1002C000FF4F9C012E5F3F4F3183208320E430E0BD
:1002D0003383228315821482178216828F0120E5D0
:1002E00031E0FC01808191810E94F1011F910F9109
:1002F0000895CF93DF93EC010E94D701FE01E85BE4
:10030000FF4F80819181892B39F0CE018E5B9F4F09
:100310000E94EB06EC0102C0CFEFDFEF0E94DD018F
:10032000CE01DF91CF910895CF93DF9300D0CDB769
:10033000DEB77A83698341E050E0BE016F5F7F4F93
:10034000FC01808191810E943A0281E090E00F904F
:100350000F90DF91CF9108950F931F93CF93DF9369
:100360008C01EB01CB010E94930FAC01BE01F8019F
:10037000808191810E943A02CE01DF91CF911F913D
:100380000F910C94930F0F931F93CF93DF93EC0176
:100390000E94AC018C016FE671E0CE010E94AC01BD
:1003A000C8010296DF91CF911F910F9108950FB66A
:1003B000802DF894807890E0089578940FB6802D81
:1003C000807890E00895FF920F93F82E0FB7087F82
:1003D000F02AFFBE0F91FF9008958091260390E0D0
:1003E00008950F931F93CF93DF93E901892BD9F5DC
:1003F000309328032093270310932A0300932903A3
:100400001092CB001092C9001092C80086E0809331
:10041000CA00DB01CA0180589B47A14EBF4F23E0B1
:10042000880F991FAA1FBB1F2A95D1F79A01AB010C
:1004300064E0220F331F441F551F6A95D1F7BC019A
:10044000CD010E94510F215031093093CD002093EE
:10045000CC00CD2B11F088E901C088E08093C90061
:1004600080E090E002C08FEF9FEFDF91CF911F916E
:100470000F910895FB01460F571FE417F50741F050
:100480008091C80085FFFCCF81918093CE00F5CF8D
:1004900008951F920F920FB60F9211242F933F933E
:1004A0004F935F936F937F938F939F93AF93BF937C
:1004B000EF93FF9381E0809326036091CE00E0915B
:1004C0002703F09128038091290390912A0309952D
:1004D0008091970390919803892B31F00E944507F2
:1004E000109226030E949B0E10922603FF91EF911B
:1004F000BF91AF919F918F917F916F915F914F913C
:100500003F912F910F900FBE0F901F901895982F2D
:100510009F7021E030E001C0220F9A95EAF7623027
:10052000D9F0633079F0611128C082958F7093E023
:10053000899FF001112481A12095822381A382A1AA
:10054000282317C082958F7093E0899FF0011124B2
:1005500081A1282B21A30EC082958F7093E0899FE3
:10056000F001112481A1922F9095892381A382A16A
:10057000282B22A380E090E008958FEF9FEF08954D
:10058000E82FE295EF7063E0E69FF001112420A1CF
:100590008F7041E050E0BA0102C0660F771F8A9564
:1005A000E2F7CB0130E0822393230895E82FE29510
:1005B000EF7093E0E99FF001112432A1282F2F70F2
:1005C00081E090E001C0880F2A95EAF7832B82A38F
:1005D0000895E82FE295EF7093E0E99FF001112470
:1005E00032A1282F2F7081E090E002C0880F991F60
:1005F0002A95E2F780959095832382A30895672B2F
:1006000011F00C94D6020C94E90221E02093260309
:100610002CE0AC01249FC001259F900D1124DC012A
:10062000A85FBE4F1296ED91FC9113972081AB010C
:100630004F5F5F4F81E090E001C0880F4A95EAF775
:100640008095822380831696ED91FC9117971896DA
:100650008D919C911997099580919703909198039A
:10066000892B31F00E944507109226030E949B0EB1
:100670001092260308958F929F92AF92BF92CF92CD
:10068000DF92EF92FF920F931F93DC010297D8F451
:10069000E0E8F1E090E0C12C84E2D82E84EFE82E6F
:1006A000F12C46015701019004C0B694A794979489
:1006B00087940A94D2F79F5F84169506A606B7061C
:1006C00029F0953071F78FEF9FEF1EC08CE08A9F65
:1006D000F0018B9FF00D1124E85FFE4FA081B181E6
:1006E0001C9211961C92119712961C9212971596B5
:1006F0001C921E9214973783268311870087928756
:1007000011969C9380E090E01F910F91FF90EF90E5
:10071000DF90CF90BF90AF909F908F9008956330FF
:1007200071055CF52CE0289FF001299FF00D112444
:10073000E85FFE4F80819181DB011496AA0FBB1FF9
:10074000A80FB91F11965C934E93A481B5812C918B
:100750006F5F7F4F81E090E001C0880F6A95EAF7F4
:10076000982F909592239C930280F381E02D9081A5
:10077000892B808381E090E008958FEF9FEF0895AB
:100780002CE0AC01249FC001259F900D1124FC0199
:10079000E85FFE4F0190F081E02D848195810895FE
:1007A0001F920F920FB60F9211242F933F934F93E6
:1007B0005F936F937F938F939F93AF93BF93EF93C9
:1007C000FF9360E070E080E090E00E940503FF91FD
:1007D000EF91BF91AF919F918F917F916F915F91B9
:1007E0004F913F912F910F900FBE0F901F90189532
:1007F0001F920F920FB60F9211242F933F934F9396
:100800005F936F937F938F939F93AF93BF93EF9378
:10081000FF9361E070E080E090E00E940503FF91AB
:10082000EF91BF91AF919F918F917F916F915F9168
:100830004F913F912F910F900FBE0F901F901895E1
:100840001F920F920FB60F9211242F933F934F9345
:100850005F936F937F938F939F93AF93BF93EF9328
:10086000FF9362E070E080E090E00E940503FF915A
:10087000EF91BF91AF919F918F917F916F915F9118
:100880004F913F912F910F900FBE0F901F90189591
:100890001F920F920FB60F9211242F933F934F93F5
:1008A0005F936F937F938F939F93AF93BF93EF93D8
:1008B000FF9360E070E081E090E00E940503FF910B
:1008C000EF91BF91AF919F918F917F916F915F91C8
:1008D0004F913F912F910F900FBE0F901F90189541
:1008E0001F920F920FB60F9211242F933F934F93A5
:1008F0005F936F937F938F939F93AF93BF93EF9388
:10090000FF9361E070E081E090E00E940503FF91B9
:10091000EF91BF91AF919F918F917F916F915F9177
:100920004F913F912F910F900FBE0F901F901895F0
:100930001F920F920FB60F9211242F933F934F9354
:100940005F936F937F938F939F93AF93BF93EF9337
:10095000FF9362E070E081E090E00E940503FF9168
:10096000EF91BF91AF919F918F917F916F915F9127
:100970004F913F912F910F900FBE0F901F901895A0
:10098000E5E6F0E0808180688083E1E6F0E080E8E1
:10099000808310820E94200F0E9440080E94D2048F
:1009A0000C94DD0163E087E20E948702479863E0D0
:1009B00080E10E9487025D9A63E085E30E948702DE
:1009C0005D9A08950895EB0120912B0330912C033B
:1009D000232B71F521E030E030932C0320932B037F
:1009E000833091F40EB6202D0DB6802D90E0922B21
:1009F0009F938F9385E891E09F938F930E949C0F24
:100A00000F900F900F900F90DF93CF938CE991E0B0
:100A10009F938F930E949C0F88EB91E09F938F93FD
:100A20000E949C0F0F900F900F900F900F900F90BF
:100A30000E94D7010E94E2040E94B30DEF92FF9240
:100A40000F931F93CF93DF93EC018B010E94D7018B
:100A50007C0188819981892B41F48FEF9FEF9983E5
:100A60008883C7010E94E3011FC0012B01F100919F
:100A700053031091540362E0C8010E94E30588818A
:100A80009981019641F4C801069699838883F801FB
:100A90001782168204C0B801CE010E946007C70108
:100AA0000E94E3010E94310E81E090E005C0C70181
:100AB0000E94E30180E090E0DF91CF911F910F91C0
:100AC000FF90EF900895EF92FF920F931F93CF93B3
:100AD000DF938C010E94D7017C01D801ED91FC913C
:100AE000309739F0EF3FBFEFFB0761F4F801118257
:100AF0001082C701DF91CF911F910F91FF90EF906E
:100B00000C94E30180819181D8018D939C93EF0136
:100B100026976BE0CE010E94E305F8018081918168
:100B2000892B21F48FEF9FEF91838083CB81D0E0DD
:100B3000C7010E94E301CE01DF91CF911F910F9178
:100B4000FF90EF900C947406109298031092970304
:100B5000A0915303B091540320912D0330912E03A3
:100B600080E090E020FD04C0369527950196FACFED
:100B7000880F991FFC01EF5CFC4F0190F081E02D84
:100B80000190F081E02D3697AE17BF07C9F010979E
:100B900041F012968C9112978A3019F48BE01296DC
:100BA0008C938AE082838481958190935203809311
:100BB0005103F0935403E093530381E090E00895D0
:100BC00080E090E008950F931F93CF93DF93FC0193
:100BD00082816A30E0F18A3008F080C09F012A5F8C
:100BE0003F4F838190E0880F991FDC01AF5CBC4FC1
:100BF000CD91DC911197209751F04881598157830D
:100C000046830D90BC91A02D2D933C9302C0378359
:100C10002683DC01AF5CBC4F2D933C9381E090E0D8
:100C2000038002C0880F991F0A94E2F7092E000C76
:100C3000AA0BBB0B00912D0310912E0320912F03C3
:100C400030913003802B912BA22BB32B3FC08A30E5
:100C500008F444C0A381B0E0AA0FBB1FAF5CBC4F37
:100C6000CD91DC911197209769F088819981C817FF
:100C7000D90719F41D921C9205C0DC018D919C913D
:100C8000998388832381A22FB0E0AA0FBB1FAF5C9A
:100C9000BC4F8D919C91892B09F581E090E002C0B9
:100CA000880F991F2A95E2F780959095092E000CE0
:100CB000AA0BBB0B00912D0310912E0320912F0343
:100CC0003091300380239123A223B32380932D03FB
:100CD00090932E03A0932F03B09330036283DF9190
:100CE000CF911F910F910895E0915303F091540318
:100CF00022812A3028F0238130E08217930768F49C
:100D00000E94ED01892B39F081E090E090939803E7
:100D10008093970308950C94310E08950E94D70193
:100D2000E0915103F0915203EE0FFF1FEB5AFC4F7D
:100D3000118210828091990390919A030197909368
:100D40009A038093990360E0809153039091540338
:100D50000E94E30510925403109253030E94E60D83
:100D6000FC01468157818281938148175907C9F454
:100D700024813581A081B181A20FB31F8C91DA014A
:100D80001197B783A683AB2B19F41582148207C081
:100D90002F5F3F4F3583248342175307B1F390E011
:100DA00002C08FEF9FEF4481558126813781D901A1
:100DB0001196B783A683240F351F428153812417D0
:100DC000350710F0241B350B40815181FA01E20FE9
:100DD000F31F60830895FC01468157814115510539
:100DE000D9F024813581A081B181A20FB31F8C91EC
:100DF0004150510957834683452B19F415821482BB
:100E000009C02F5F3F4F35832483428153812417CC
:100E10003507A1F390E008958FEF9FEF08950E94AA
:100E2000F90E88ED91E09F938F930E949C0F0E9492
:100E300008010F900F9080E090E008950E94B60D99
:100E4000FDCF0E94D701C0902001D0902101E12C5C
:100E5000F12C0EE117E02CE030E04FE060E870E0AC
:100E60008BE993E00E948107C0902201D09023017A
:100E70000FE017E02CE030E047E060E871E08BE144
:100E800094E00E9481070E94E60D0E94D701E09144
:100E90005303F091540322812A3070F0E381F0E093
:100EA000EE0FFF1FEF5CFC4FA081B181109721F086
:100EB0002D913C91318320830E94E3010C94310EEB
:100EC000FB0122812A3028F066EC71E083E00E9469
:100ED000E3046381AF014A5F5F4FDC012D913C91D8
:100EE0002115310541F0D901169713967C916717AA
:100EF00010F0C901F2CF37832683FC015183408370
:100F000008952F923F924F925F926F927F928F92AD
:100F10009F92AF92BF92CF92DF92EF92FF920F9388
:100F20001F93CF93DF9300D000D0CDB7DEB7403111
:100F30009CF54B013AE1831A9108DC01A80DB91D1B
:100F4000BC83AB83FC0123FF09C0AB81BC81EA17E2
:100F5000FB0730F4F183E0833296F7CF91838083EF
:100F60001601370158012A8349832B017C010E9415
:100F7000D7016C01E7E5F3E001E010E08191919188
:100F8000892B61F00F5F1F4F01321105B9F7C601C0
:100F90000E94E3018FEB5CC084EE5AC0F801EE0FB3
:100FA000FF1FEB5AFC4F8B819C8191838083DC0176
:100FB00015961C930E9314979401A701B301C501D4
:100FC0000E94B70DEB81FC8191838083F58AE48ACE
:100FD000518E408E378A268A298123831282178276
:100FE0001682118610861386128615861486178639
:100FF00016868FEF9FEF918B808B138A128A8091D8
:10100000990390919A03019690939A038093990380
:101010003A8130FF06C061E08B819C810E94E3052C
:1010200012C06BE08B819C810E94E305FA81F2FD86
:101030000AC0C6010E94E3012981822F220F990B69
:101040000E94740603C0C6010E94E301C80101C0EA
:101050009FEF0F900F900F900F90DF91CF911F9106
:101060000F91FF90EF90DF90CF90BF90AF909F9047
:101070008F907F906F905F904F903F902F9008954A
:101080000C94B20DCF92DF92EF92FF92C090A10527
:10109000D090A205E090A305F090A40580E090E038
:1010A0000E94C003BC018091A1059091A205A0916E
:1010B000A305B091A405C816D906EA06FB0631F7C8
:1010C000CB01A0E0B0E0BC01CD016C297D298E29C7
:1010D0009F29FF90EF90DF90CF9008958F929F927D
:1010E000AF92BF92CF92DF92EF92FF920F931F9336
:1010F000CF93DF938C01EB010E9442084B015C010E
:10110000C090A505D090A605E090A705F090A80591
:101110000E944208681579058A059B0568F3F80165
:101120006083718382839383C882D982EA82FB823F
:10113000DF91CF911F910F91FF90EF90DF90CF90B3
:10114000BF90AF909F908F9008952091A905309106
:10115000AA05232B39F4AB0160E070E080E090E059
:101160000C948F0308950F931F93CF93DF93DC01AB
:10117000E0919B05F0919C05CBE9D5E0309741F1DA
:10118000068117812085318516964D915D916D916F
:101190007C911997041715072607370728F4EF01E4
:1011A0000190F081E02DEACF0417150726073707D5
:1011B00079F4028113812481358112964D915D91DC
:1011C0006D917C911597401751076207730738F7A7
:1011D0001196FC93EE93B983A883DF91CF911F9171
:1011E0000F9108950F931F93CF93DF938091A105E3
:1011F0009091A205A091A305B091A40511968093AA
:10120000A1059093A205A093A305B093A405809196
:10121000A1059091A205A091A305B091A405892BE9
:101220008A2B8B2B99F48091A5059091A605A0910E
:10123000A705B091A8050196A11DB11D8093A50534
:101240009093A605A093A705B093A805E0919D05EE
:10125000F0919E05F093A005E0939F0510929E05E6
:1012600010929D05A0919B05B0919C05ED0180E039
:1012700090E0209781F14091A5055091A6056091DD
:10128000A7057091A8050E811F8128853985401713
:1012900051076207730738F4D0939C05C0939B05F0
:1012A0000097F1F46DC00091A1051091A205209165
:1012B000A3053091A4054A815B816C817D8144271F
:1012C0005527401751076207730731F7CE01099080
:1012D000D881C02DCECF10929C0510929B05E0CFF7
:1012E000EC0119821882309709F446C0109791F0EA
:1012F000028113812481358112964D915D916D910A
:101300007C911597401751076207730718F49A2FBD
:101310008B2F02C09E2F8F2FC92F282FD22F0190E5
:10132000F081E02D0D90BC91A02D309719F4B98378
:10133000A8831DC0109719F4F983E88318C00281AF
:1013400013812481358112964D915D916D917C912F
:101350001597401751076207730718F43A2F2B2F80
:1013600002C03E2F2F2F38832983C32FD7CF9093CE
:101370009F058093A00504C0B093A005A0939F058E
:10138000DF91CF911F910F9108958F929F92AF920D
:10139000BF92CF92DF92EF92FF9281E090E0909324
:1013A000AA058093A90580919F059091A005892B9E
:1013B00049F40E94F20880E090E00E94C003019688
:1013C000D1F3B4C080E090E00E94C0036C01E12C36
:1013D000F12C3AC0AA24BB2488159905AA05BB059F
:1013E00098F4E0919F05F091A00582809380A480FD
:1013F000B58080E090E00E94C003A0E0B0E08C15D2
:101400009D05AE05BF0530F7A0919F05B091A005E1
:101410008D919C9111979093A00580939F051296B2
:101420001D921D921D921C92159716961D921D924B
:101430001D921C9219971A96ED91FC911B971C9680
:101440008D919C911D970995E0919F05F091A005C4
:10145000309789F480E090E00E94C003A0E0B0E003
:101460004496A11DB11D8C159D05AE05BF0598F5CF
:101470000E94F20824C082809380A480B58080E01E
:1014800090E00E94C003A0E0B0E08C159D05AE0581
:10149000BF0508F4A6CFB501A401662777278417F6
:1014A0009507A607B70708F09CCF481B590B6A0B96
:1014B0007B0B443151056105710560F692CF80E0E8
:1014C00090E00E94C003A0E0B0E0C816D906EA068A
:1014D000FB06A8F32BC0E0919F05F091A005309783
:1014E000B9F082809380A480B58084E1881A910845
:1014F000A108B1080E944208DC01CB014496A11D5D
:10150000B11D88169906AA06BB0608F49DCF2FC008
:1015100080E090E00E94C0034C01A12CB12C8C14FF
:101520009D04AE04BF0430F40E94F208C12CD12CFB
:1015300076018ACFD501C4014496A11DB11DAA2709
:10154000BB2788159905AA05BB0560F480E090E0EB
:101550000E94C003A0E0B0E088159905AA05BB056C
:10156000A8F7E2CF88248A94982CA12CB12C109251
:10157000AA051092A905C501B401FF90EF90DF9074
:10158000CF90BF90AF909F908F900C94A508FC01D6
:10159000A0919F05B091A005A817B90719F0AFE970
:1015A000B5E01DC0ED91FC91F093A005E0939F057F
:1015B000309759F082819381A481B581BC01CD011E
:1015C000645171098109910904C06FEF7FEF80E0D8
:1015D00090E00C94A508E817F907A9F0DC018D91BB
:1015E0009C9111970097B9F7ADE9B5E08D919C9169
:1015F0001197009729F0E817F90729F0DC01F6CFD9
:10160000ABE9B5E009C0808191818D939C930895E9
:10161000E817F907C1F3DC018D919C9111970097B0
:10162000B9F708950F931F9300E010E025EC39E01F
:1016300040E950ED63E070E080E090E00E943B0301
:101640006FEF7FEFCB011F910F910C94A5084F9284
:101650005F926F927F928F929F92AF92BF92CF9242
:10166000DF92EF92FF920F931F93CF93DF93EC01E2
:101670006A017B010E9442084B015C0119821882B9
:10168000D701C60188199909AA09BB098997A1053B
:10169000B105F0F4EE24FF2480E090E00E94C00346
:1016A000A0E0B0E0C816D906EA06FB06A8F380E081
:1016B00090E00E94C003A0E0B0E08C159D05AE054F
:1016C000BF05A8F3EA85FB858C859D850995A0C09B
:1016D0000E94D7018C018A819B81AC81BD81892BBD
:1016E0008A2B8B2B09F090C08E819F81A885B985AC
:1016F000892B8A2B8B2B09F087C0CA82DB82EC8274
:10170000FD824090A5055090A6056090A7057090B9
:10171000A805C701B60164517109810991096815CD
:1017200079058A059B0528F42FEF421A520A620AAE
:10173000720A4E825F82688679864090A505509035
:10174000A6056090A7057090A8052E813F81488569
:101750005985421653066406750688F02091A10546
:101760003091A2054091A3055091A4052B013C01A5
:1017700044245524241535054605570521F0CE018E
:101780000E94B3083DC0AA24BB2486169706A8066B
:10179000B90618F4AFE9B5E021C0ADE9B5E0ED91C7
:1017A000FC911197309759F0428153816481758182
:1017B000C416D506E606F70610F0DF01F0CFF98370
:1017C000E883CD93DC931CC082809380A480B58095
:1017D000C814D904EA04FB0430F0DF01ED91FC9158
:1017E0001197309789F7F983E883CD93DC932091A3
:1017F0009F053091A005C217D30711F40E94A508D8
:10180000C8010E94E30104C0CE010E94C70A75CF3F
:1018100080E090E0DF91CF911F910F91FF90EF90CA
:10182000DF90CF90BF90AF909F908F907F906F9000
:101830005F904F9008950F931F93CF93DF93EC0128
:101840000E94D7018C018A819B81AC81BD81892B4B
:101850008A2B8B2B79F48E819F81A885B985892B62
:101860008A2B8B2B39F4C801DF91CF911F910F91F7
:101870000C94E301CE010E94C70AF5CF8F929F928C
:10188000AF92BF92CF92DF92EF92FF92CF93DF930E
:10189000FC0122853385232B09F447C06A017B01B3
:1018A000EC010E941B0CF8E2CF16D104E104F10414
:1018B00038F580E090E00E94C0034C01A12CB12CCF
:1018C00080E090E00E94C003A0E0B0E08819990990
:1018D000AA09BB09AA27BB278C159D05AE05BF0524
:1018E00078F3EA85FB858C859D85DF91CF91FF900C
:1018F000EF90DF90CF90BF90AF909F908F90099422
:101900000E944208AB01BC014C0D5D1D6E1D7F1D88
:10191000CE01DF91CF91FF90EF90DF90CF90BF90FD
:10192000AF909F908F900C94270BDF91CF91FF90F9
:10193000EF90DF90CF90BF90AF909F908F900895E1
:101940004F925F926F927F928F929F92AF92BF92CF
:10195000EF92FF920F931F93CF93DF930115110521
:101960002105310581F4DF91CF911F910F91FF90F7
:10197000EF90BF90AF909F908F907F906F905F900F
:101980004F900C943E0C280139014A015B01EC0197
:101990000E94D7017C018A819B81AC81BD81892B0A
:1019A0008A2B8B2B09F044C08E819F81A885B98535
:1019B000892B8A2B8B2BE1F5BE016A5F7F4FCE010D
:1019C00002960E946E088A819B81AC81BD81880D40
:1019D000991DAA1DBB1D8A839B83AC83BD830E8189
:1019E0001F8128853985040D151D261D371D881575
:1019F0009905AA05BB0520F40F5F1F4F2F4F3F4FDE
:101A00000E831F8328873987CE010E94B308C70140
:101A1000DF91CF911F910F91FF90EF90BF90AF900A
:101A20009F908F907F906F905F904F900C94E30108
:101A3000CE010E94C70AC0CF0C9463058F929F927B
:101A4000AF92BF92CF92DF92EF92FF926B017C0137
:101A500080E090E00E94C0034C01A12CB12CEE2448
:101A6000FF2480E090E00E94C003A0E0B0E088196D
:101A70009909AA09BB09AA27BB278C159D05AE05A4
:101A8000BF0578F3FF90EF90DF90CF90BF90AF90BD
:101A90009F908F9008954F925F926F927F928F9256
:101AA0009F92AF92BF92EF92FF920F931F93CF93AB
:101AB000DF93CDB7DEB760970FB6F894DEBF0FBEE9
:101AC000CDBF4B015C0129013A010E94ED01892B38
:101AD00071F045284628472829F066EC71E083E03C
:101AE0000E94E304C501B4010E941E0D26C0188A9D
:101AF0001F868CE19DE09C878B877E018FE0E80E3E
:101B0000F11CFE86ED861F82188619861A861B82B6
:101B10001C821D821E8261E070E0C7010E941E05CA
:101B200093018201B501A401CE0101960E94A00C8F
:101B300061E070E0C7010E941E0560960FB6F89440
:101B4000DEBF0FBECDBFDF91CF911F910F91FF90F0
:101B5000EF90BF90AF909F908F907F906F905F902D
:101B60004F90089508950E94D701FFCF0895240F44
:101B7000351FF90131974FEA408331974EEF40838B
:101B80004EE856E0319740833197508331978083F8
:101B90003197908331971082319780E88083319715
:101BA000108231971082C90180971292E817F907C5
:101BB000E1F7F901B1976083319770838AE18293ED
:101BC0008F5F8032E1F7C901899708950E94A405CB
:101BD0000E94DD018DB79EB720910401309105016F
:101BE000821B930B90930101809300018091AB05C0
:101BF0009091AC05892B41F48091020190910301F1
:101C00009093AC058093AB05A0915303B09154031E
:101C1000CD91CDBFDD91DEBFFF91EF91DF91CF91EF
:101C2000BF91AF919F918F917F916F915F914F91F4
:101C30003F912F911F910F91FF90EF90DF90CF90E8
:101C4000BF90AF909F908F907F906F905F904F90DC
:101C50003F902F901F900F900CBE0F900FBE0F90D3
:101C600008950E94ED01892B09F05EC00F920FB616
:101C7000F8940F920CB60F921F9211242F923F925C
:101C80004F925F926F927F928F929F92AF92BF928C
:101C9000CF92DF92EF92FF920F931F932F933F9378
:101CA0004F935F936F937F938F939F93AF93BF9364
:101CB000CF93DF93EF93FF93A0915303B09154031D
:101CC0000DB60D920EB60D920E94A405A09153037D
:101CD000B0915403CD91CDBFDD91DEBFFF91EF9167
:101CE000DF91CF91BF91AF919F918F917F916F9134
:101CF0005F914F913F912F911F910F91FF90EF9026
:101D0000DF90CF90BF90AF909F908F907F906F901B
:101D10005F904F903F902F901F900F900CBE0F90B0
:101D20000FBE0F900895089581E090E0909398037E
:101D30008093970308950F920FB6F8940F920CB604
:101D40000F921F9211242F923F924F925F926F92A7
:101D50007F928F929F92AF92BF92CF92DF92EF923B
:101D6000FF920F931F932F933F934F935F936F9324
:101D70007F938F939F93AF93BF93CF93DF93EF9313
:101D8000FF93A0915303B09154030DB60D920EB67C
:101D90000D920E94A405A0915303B0915403CD91DC
:101DA000CDBFDD91DEBFFF91EF91DF91CF91BF916C
:101DB000AF919F918F917F916F915F914F913F91E3
:101DC0002F911F910F91FF90EF90DF90CF90BF90D8
:101DD000AF909F908F907F906F905F904F903F90CB
:101DE0002F901F900F900CBE0F900FBE0F90189564
:101DF00008950C94120BCF93DF931F92CDB7DEB7EB
:101E000061E070E0CE0101960E94410F8981082EA9
:101E1000000C990B0F90DF91CF910895CF93DF9332
:101E20001F92CDB7DEB7898361E070E0CE010196E5
:101E30000E94440F80E090E00F90DF91CF910895D1
:101E40000E94300FEFEAF5E082E391E09383828312
:101E500084E291E0918380838EE092E00C94B20F53
:101E60000F931F9300E010E020E030E040E855E2DF
:101E700060E070E080E090E00E94F1011F910F911E
:101E8000089583EC9FEF0895CF93DF93EB01AB01AF
:101E9000BC0180E090E00E943A02CE01DF91CF9138
:101EA0000895A1E21A2EAA1BBB1BFD010DC0AA1F9B
:101EB000BB1FEE1FFF1FA217B307E407F50720F0B3
:101EC000A21BB30BE40BF50B661F771F881F991F2E
:101ED0001A9469F760957095809590959B01AC0177
:101EE000BD01CF0108950E94840FA59F900DB49F5E
:101EF000900DA49F800D911D11240895EE0FFF1FDA
:101F00000590F491E02D0994A29FB001B39FC00108
:101F1000A39F700D811D1124911DB29F700D811D15
:101F20001124911D0895FC0101900020E9F780958E
:101F300090958E0F9F1F0895A0E0B0E0E2EAFFE0C9
:101F40000C948312AE014B5F5F4FFA016191719166
:101F5000AF018091B1059091B2050E94E20FE2E0DD
:101F60000C949F120F931F93CF93DF93E091B105D1
:101F7000F091B205238121FF1BC08C01D0E0C0E0AD
:101F8000F80181918F016091B1057091B205DB017B
:101F90001896ED91FC911997882331F00995892BBA
:101FA00079F3DFEFCFEFECCF8AE00995892B19F0B9
:101FB0008FEF9FEF02C08D2F9C2FDF91CF911F914C
:101FC0000F910895ABE0B0E0E8EEFFE00C947312DF
:101FD0006C017B018A01FC0117821682838181FFDB
:101FE000CCC1CE0101963C01F6019381F70193FD2E
:101FF000859193FF81917F01882309F4BAC18532CD
:1020000039F493FD859193FF81917F01853229F405
:10201000B60190E00E94D911E7CF912C212C312CF0
:10202000FFE1F315D8F08B3279F038F4803279F093
:102030008332A1F4232D20611DC08D3261F08033E5
:1020400069F4232D216016C0832D8260382EE32D84
:10205000E4603E2E2AC0F32DF8601DC037FC2DC071
:1020600020ED280F2A3040F08E32B9F436FC81C1C1
:10207000232D2064322E19C036FE06C08AE0989EB9
:10208000200D1124922E11C0EAE02E9E200D112465
:10209000222EF32DF0623F2E08C08C3621F4832DC2
:1020A0008068382E02C0883641F4F70193FD85918F
:1020B00093FF81917F018111B3CF982F9F7D95541C
:1020C000933028F40C5F1F4F9FE399830DC0833634
:1020D00031F0833771F0833509F059C021C0F80120
:1020E000808189830E5F1F4F88248394912C530134
:1020F00013C02801F2E04F0E511CF801A080B180FE
:1021000036FE03C0692D70E002C06FEF7FEFC5019E
:102110000E94CE114C018201F32DFF773F2E16C095
:10212000280122E0420E511CF801A080B18036FE49
:1021300003C0692D70E002C06FEF7FEFC5010E9400
:10214000C3114C01F32DF0683F2E820133FC1BC0FC
:10215000822D90E088169906B0F4B60180E290E0F6
:102160000E94D9112A94F4CFF50137FC859137FEEE
:1021700081915F01B60190E00E94D91121102A944B
:1021800021E0821A91088114910471F7E8C0843625
:1021900011F0893641F5F80137FE07C06081718181
:1021A000828193810C5F1F4F08C060817181072E6F
:1021B000000C880B990B0E5F1F4FF32DFF763F2EFF
:1021C00097FF09C090958095709561957F4F8F4FCF
:1021D0009F4FF0683F2E2AE030E0A3010E941512C5
:1021E000882E861845C0853731F4232D2F7EB22ED8
:1021F0002AE030E025C0932D997FB92E8F36C1F0AB
:1022000018F4883579F0B5C0803719F0883721F097
:10221000B0C0E92FE061BE2EB4FE0DC0FB2DF4600E
:10222000BF2E09C034FE0AC0292F2660B22E06C078
:1022300028E030E005C020E130E002C020E132E0DB
:10224000F801B7FE07C060817181828193810C5FC4
:102250001F4F06C06081718180E090E00E5F1F4FCC
:10226000A3010E941512882E8618FB2DFF773F2EA2
:1022700036FE0DC0232D2E7FA22E891458F434FE75
:102280000BC032FC09C0832D8E7EA82E05C0B82C51
:10229000A32C03C0B82C01C0B92CA4FE0FC0FE01B2
:1022A000E80DF11D8081803321F49A2D997EA92EAD
:1022B00009C0A2FE06C0B394B39404C08A2D8678E8
:1022C00009F0B394A3FC11C0A0FE06C0B21488F4B8
:1022D000280C922C9B180EC0B21460F4B60180E258
:1022E00090E00E94D911B394F7CFB21418F42B18D0
:1022F00002C0982C212CA4FE10C0B60180E390E00F
:102300000E94D911A2FE17C0A1FC03C088E790E08B
:1023100002C088E590E0B6010CC08A2D867859F09D
:10232000A1FE02C08BE201C080E2A7FC8DE2B601F3
:1023300090E00E94D911891438F4B60180E390E04E
:102340000E94D9119A94F7CF8A94F301E80DF11DF8
:102350008081B60190E00E94D9118110F5CF222032
:1023600009F442CEB60180E290E00E94D9112A948D
:10237000F6CFF6018681978102C08FEF9FEF2B96F3
:10238000E2E10C948F12FC01059061507040011045
:10239000D8F7809590958E0F9F1F0895FC0161508E
:1023A000704001900110D8F7809590958E0F9F1F77
:1023B00008950F931F93CF93DF93FB01238121FD9A
:1023C00003C08FEF9FEF2CC022FF16C046815781BC
:1023D000248135814217530744F4A081B1819D01C6
:1023E0002F5F3F4F318320838C93268137812F5F6E
:1023F0003F4F3783268314C08B01EC01FB0100841F
:10240000F185E02D0995892BE1F6D80116968D917D
:102410009C911797019617969C938E931697CE01D1
:10242000DF91CF911F910F910895FA01AA272830CB
:1024300051F1203181F1E8946F936E7F6E5F7F4F91
:102440008F4F9F4FAF4FB1E03ED0B4E03CD0670F0D
:10245000781F891F9A1FA11D680F791F8A1F911D60
:10246000A11D6A0F711D811D911DA11D20D009F4B0
:1024700068943F912AE0269F11243019305D3193F2
:10248000DEF6CF010895462F4770405D4193B3E0DB
:102490000FD0C9F7F6CF462F4F70405D4A3318F082
:1024A000495D31FD4052419302D0A9F7EACFB4E033
:1024B000A6959795879577956795BA95C9F70097EB
:1024C0006105710508959B01AC010A2E069457958C
:1024D000479537952795BA95C9F7620F731F841FE3
:1024E000951FA01D08952F923F924F925F926F9279
:1024F0007F928F929F92AF92BF92CF92DF92EF9294
:10250000FF920F931F93CF93DF93CDB7DEB7CA1B14
:10251000DB0B0FB6F894DEBF0FBECDBF09942A883F
:10252000398848885F846E847D848C849B84AA84E7
:10253000B984C884DF80EE80FD800C811B81AA8174
:10254000B981CE0FD11D0FB6F894DEBF0FBECDBF3F
:08255000ED010895F894FFCF9E
:102558000000B50520000D0080006F003600000067
:10256800000000009000710038000000000000002A
:102578000402090200000001000000000000FB0E38
:10258800000000000002000000000E0F0000000024
:1025980048656C6C6F2041726475696E6F210045E7
:1025A80063686F3A200032333130342637461415C9
:1025B8001617362713111210575655545352350D06
:1025C8000A00256F00256900257800252E2A660057
:1025D800000306080A537461636B20506F696E74B8
:1025E80065723A203078253034780A002A2A2A2061
:1025F80052494F54206B65726E656C2070616E692C
:10260800633A0A25730A0A002A2A2A2068616C7428
:1026180065642E0A0A004641494C454420415353FB
:10262800455254494F4E2E006D61696E28293A2053
:10263800546869732069732052494F5421202856E1
:10264800657273696F6E3A206275696C647465733C
:1026580074290A0069646C65006D61696E000C007C
:040000030000010CEC
:00000001FF
