:100000000C945B000C9499000C9499000C9499004A
:100010000C9499000C9499000C9499000C949900FC
:100020000C9499000C9499000C9499000C94D103B1
:100030000C94F7030C9499000C9499000C9499007B
:100040000C9499000C9499000C945C020C94990007
:100050000C9499000C9499000C9499000C949900BC
:100060000C9499000C949900464154414C204552FF
:10007000524F523A204241444953525F766563746D
:100080002063616C6C65642C20756E70726F6365A3
:100090007373656420496E746572727570742E0A8C
:1000A00053544F5020457865637574696F6E2E0AFE
:1000B000000022015F01832D8093A50684B7809301
:1000C000A60614BE0FB6F894A895809160008861CA
:1000D00080936000109260000FBE11241FBECFEF0E
:1000E000D8E0DEBFCDBF12E0A0E0B1E0EAE0F4E28C
:1000F00002C005900D92A030B107D9F726E0A0E02C
:10010000B2E001C01D92A53AB207E1F710E0CBE5DD
:10011000D0E004C02197FE010E94D70EC935D10757
:10012000C9F70E949B000C9403120E941D010C94BD
:1001300003120C940A0D0E941D040C94690661E0E0
:1001400070E080910601909107010E94280140E82B
:1001500055E260E070E082E892E00E94710164E3A1
:1001600071E082E892E00C94D8010F931F93CF9333
:10017000DF9380910601909107010E943F0161E0A9
:1001800070E0892B11F060E070E0809106019091A1
:1001900007010E94390182E892E00E946B01181663
:1001A00019060CF040C082E892E00E948E018A306D
:1001B000910531F563E471E082E892E00E94C101AB
:1001C00002E012E0C0E0D0E08091000290910102D4
:1001D000C817D90754F4F801619171918F0182E831
:1001E00092E00E94A9012196EFCF6AE070E082E8D8
:1001F00092E00E94A9011092010210920002CBCF5E
:100200002091000230910102A9014F5F5F4F50938E
:10021000010240930002220F331FF901EE5FFD4FF0
:1002200091838083B8CF64EF71E080E090E0DF914C
:10023000CF911F910F910C944D010E949F000E943D
:10024000B500FDCF60E070E082E892E00C946701B9
:100250006115710529F06230710521F462E003C077
:1002600060E001C063E0FC01E65BFE4F80810C941E
:100270009A02865B9E4FFC0180810C941203865B80
:100280009E4FFC0180810E94D30221E030E0892B47
:1002900011F420E030E0C90108959B01AC01A8EE03
:1002A000B3E00E94CC0E22E09695879577956795EE
:1002B0002A95D1F720E030E0A9010C94910C60E080
:1002C00070E08CEC92E00C9467010C94F805FC0152
:1002D000718360830895885B9F4FFC0180819181C9
:1002E00008950F931F93FC01EE5BFF4F9C012E5F5F
:1002F0003F4F3183208320E430E033832283158213
:100300001482178216828F0125E631E0FC0180817C
:1003100091810E9406021F910F910895CF93DF9360
:10032000EC010E94EC01FE01E85BFF4F80819181AE
:10033000892B39F0CE018E5B9F4F0E943306EC0172
:1003400002C0CFEFDFEF0E94F201CE01DF91CF912B
:100350000895CF93DF9300D0CDB7DEB77A8369835A
:1003600041E050E0BE016F5F7F4FFC0180819181D1
:100370000E944D0281E090E00F900F90DF91CF91AD
:1003800008950F931F93CF93DF938C01EB01CB0163
:100390000E94EC0EAC01BE01F801808191810E94A7
:1003A0004D02CE01DF91CF911F910F910C94EC0E75
:1003B0000F931F93CF93DF93EC010E94C1018C0137
:1003C0006EE571E0CE010E94C101C8010296DF9185
:1003D000CF911F910F9108950FB6802DF8948078DA
:1003E00090E0089578940FB6802D807890E008957D
:1003F000FF920F93F82E0FB7087FF02AFFBE0F91E0
:10040000FF9008958091160390E008950F931F9335
:10041000CF93DF93E901892BC9F53093180320931B
:10042000170310931A03009319031092C10010923E
:10043000C00086E08093C200DB01CA0180589B4760
:10044000A14EBF4F23E0880F991FAA1FBB1F2A95FB
:10045000D1F79A01AB0164E0220F331F441F551FEF
:100460006A95D1F7BC01CD010E94AA0E2150310935
:100470003093C5002093C400CD2B11F088E901C052
:1004800088E08093C10080E090E002C08FEF9FEF92
:10049000DF91CF911F910F910895FB01460F571FD8
:1004A000E417F50741F08091C00085FFFCCF8191F2
:1004B0008093C600F5CF08951F920F920FB60F924A
:1004C00011242F933F934F935F936F937F938F9359
:1004D0009F93AF93BF93EF93FF9381E080931603B5
:1004E0006091C600E0911703F09118038091190301
:1004F00090911A0309958091870390918803892B25
:1005000031F00E948D06109216030E94F10D109298
:100510001603FF91EF91BF91AF919F918F917F91C2
:100520006F915F914F913F912F910F900FBE0F9060
:100530001F901895982F9F7021E030E001C0220F86
:100540009A95EAF76230D9F0633079F0611128C0EA
:1005500082958F7093E0899FF001112481A12095ED
:10056000822381A382A1282317C082958F7093E0F4
:10057000899FF001112481A1282B21A30EC082950F
:100580008F7093E0899FF001112481A1922F9095A3
:10059000892381A382A1282B22A380E090E00895E3
:1005A0008FEF9FEF0895E82FE295EF7063E0E69FED
:1005B000F001112420A18F7041E050E0BA0102C087
:1005C000660F771F8A95E2F7CB0130E082239323F1
:1005D0000895E82FE295EF7093E0E99FF001112470
:1005E00032A1282F2F7081E090E001C0880F2A955A
:1005F000EAF7832B82A30895E82FE295EF7093E04A
:10060000E99FF001112432A1282F2F7081E090E0A2
:1006100002C0880F991F2A95E2F780959095832351
:1006200082A30895672B11F00C94E9020C94FC024C
:10063000BC0181E080931603E0910A01F0910B0167
:100640009081AB014F5F5F4F21E030E001C0220F8E
:100650004A95EAF7209529232083E0910E01F09135
:100660000F018091100190911101099580918703EC
:1006700090918803892B31F00E948D061092160309
:100680000E94F10D1092160308958F929F92AF92DF
:10069000BF92CF92DF92EF92FF920F931F93892B1D
:1006A000D9F4EFE6F1E080E0C12C94E2D92E94EF8A
:1006B000E92EF12C46015701019004C0B694A7948D
:1006C000979487940A94D2F78F5F84169506A606AE
:1006D000B70629F0853071F78FEF9FEF16C0E091D4
:1006E0000801F09109011082118212821582148290
:1006F00030930F0120930E0110931101009310010C
:1007000080931201818380E090E01F910F91FF9010
:10071000EF90DF90CF90BF90AF909F908F90089513
:10072000623071055CF52CE0289FF001299FF00DE7
:100730001124E85FFE4F80819181DB011496AA0F9E
:10074000BB1FA80FB91F11965C934E93A481B5816E
:100750002C916F5F7F4F81E090E001C0880F6A9518
:10076000EAF7982F909592239C930280F381E02DD5
:100770009081892B808381E090E008958FEF9FEF37
:1007800008952CE0AC01249FC001259F900D1124F9
:10079000FC01E85FFE4F0190F081E02D848195819E
:1007A00008951F920F920FB60F9211242F933F932B
:1007B0004F935F936F937F938F939F93AF93BF9369
:1007C000EF93FF9380E090E00E941803FF91EF9178
:1007D000BF91AF919F918F917F916F915F914F9159
:1007E0003F912F910F900FBE0F901F9018951F9261
:1007F0000F920FB60F9211242F933F934F935F9355
:100800006F937F938F939F93AF93BF93EF93FF93D8
:1008100081E090E00E941803FF91EF91BF91AF91AA
:100820009F918F917F916F915F914F913F912F9108
:100830000F900FBE0F901F901895E1E6F0E080E852
:10084000808310820E94720E0E94FC0C0E94820E15
:100850000C94F2010895EB0120911B0330911C03CD
:10086000232B71F521E030E030931C0320931B0310
:10087000833091F40EB6202D0DB6802D90E0922B92
:100880009F938F9384E791E09F938F930E94F50E3F
:100890000F900F900F900F90DF93CF938BE891E024
:1008A0009F938F930E94F50E87EA91E09F938F9319
:1008B0000E94F50E0F900F900F900F900F900F90D9
:1008C0000E94EC010E942A040E94F80CEF92FF9211
:1008D0000F931F93CF93DF93EC018B010E94EC01E8
:1008E0007C0188819981892B41F48FEF9FEF998357
:1008F0008883C7010E94F8011FC0012B01F10091FC
:1009000043031091440362E0C8010E942B058881D3
:100910009981019641F4C801069699838883F8016C
:100920001782168204C0B801CE010E94A806C70132
:100930000E94F8010E948B0D81E090E005C0C70184
:100940000E94F80180E090E0DF91CF911F910F911C
:10095000FF90EF900895EF92FF920F931F93CF9324
:10096000DF938C010E94EC017C01D801ED91FC9198
:10097000309739F0EF3FBFEFFB0761F4F8011182C8
:100980001082C701DF91CF911F910F91FF90EF90DF
:100990000C94F80180819181D8018D939C93EF0193
:1009A00026976BE0CE010E942B05F8018081918192
:1009B000892B21F48FEF9FEF91838083CB81D0E04F
:1009C000C7010E94F801CE01DF91CF911F910F91D5
:1009D000FF90EF900C94BC0510928803109287034F
:1009E000A0914303B091440320911D0330911E0355
:1009F00080E090E020FD04C0369527950196FACF5F
:100A0000880F991FFC01EF5DFC4F0190F081E02DF4
:100A10000190F081E02D3697AE17BF07C9F010970F
:100A200041F012968C9112978A3019F48BE012964D
:100A30008C938AE082838481958190934203809392
:100A40004103F0934403E093430381E090E0089571
:100A500080E090E008950F931F93CF93DF93FC0104
:100A600082816A30E0F18A3008F080C09F012A5FFD
:100A70003F4F838190E0880F991FDC01AF5DBC4F31
:100A8000CD91DC911197209751F04881598157837E
:100A900046830D90BC91A02D2D933C9302C03783CB
:100AA0002683DC01AF5DBC4F2D933C9381E090E049
:100AB000038002C0880F991F0A94E2F7092E000CE8
:100AC000AA0BBB0B00911D0310911E0320911F0365
:100AD00030912003802B912BA22BB32B3FC08A3067
:100AE00008F444C0A381B0E0AA0FBB1FAF5DBC4FA8
:100AF000CD91DC911197209769F088819981C81771
:100B0000D90719F41D921C9205C0DC018D919C91AE
:100B1000998388832381A22FB0E0AA0FBB1FAF5D0A
:100B2000BC4F8D919C91892B09F581E090E002C02A
:100B3000880F991F2A95E2F780959095092E000C51
:100B4000AA0BBB0B00911D0310911E0320911F03E4
:100B50003091200380239123A223B32380931D038C
:100B600090931E03A0931F03B09320036283DF9131
:100B7000CF911F910F910895E0914303F0914403A9
:100B800022812A3028F0238130E08217930768F40D
:100B90000E940202892B39F081E090E09093880353
:100BA0008093870308950C948B0D08950E94EC01A7
:100BB000E0914103F0914203EE0FFF1FEB5BFC4F0E
:100BC000118210828091890390918A0301979093FA
:100BD0008A038093890360E08091430390914403EA
:100BE0000E942B0510924403109243030E94420D71
:100BF000FC01468157818281938148175907C9F4C6
:100C000024813581A081B181A20FB31F8C91DA01BB
:100C10001197B783A683AB2B19F41582148207C0F2
:100C20002F5F3F4F3583248342175307B1F390E082
:100C300002C08FEF9FEF4481558126813781D90112
:100C40001196B783A683240F351F42815381241741
:100C5000350710F0241B350B40815181FA01E20F5A
:100C6000F31F60830895FC014681578141155105AA
:100C7000D9F024813581A081B181A20FB31F8C915D
:100C80004150510957834683452B19F4158214822C
:100C900009C02F5F3F4F358324834281538124173E
:100CA0003507A1F390E008958FEF9FEF08950E941C
:100CB0004B0E87EC91E09F938F930E94F50E0E945C
:100CC0001D010F900F9080E090E008950E94FB0CB2
:100CD000FDCF0E94EC01C0901401D0901501E12CD1
:100CE000F12C06E616E02CE030E04FE060E870E022
:100CF0008BE893E00E94C906C0901601D0901701BE
:100D000007E516E02CE030E047E060E872E08BE0B9
:100D100094E00E94C9060E94420D0E94EC01E091FD
:100D20004303F091440322812A3070F0E381F0E024
:100D3000EE0FFF1FEF5DFC4FA081B181109721F0F6
:100D40002D913C91318320830E94F8010C948B0DEE
:100D5000FB0122812A3028F065EB71E083E00E94DC
:100D60002B046381AF014A5F5F4FDC012D913C9101
:100D70002115310541F0D901169713967C9167171B
:100D800010F0C901F2CF37832683FC0151834083E1
:100D900008952F923F924F925F926F927F928F921F
:100DA0009F92AF92BF92CF92DF92EF92FF920F93FA
:100DB0001F93CF93DF9300D000D0CDB7DEB7403183
:100DC0009CF54B013AE1831A9108DC01A80DB91D8D
:100DD000BC83AB83FC0123FF09C0AB81BC81EA1754
:100DE000FB0730F4F183E0833296F7CF9183808361
:100DF0001601370158012A8349832B017C010E9487
:100E0000EC016C01E7E4F3E001E010E081919191E5
:100E1000892B61F00F5F1F4F01321105B9F7C60131
:100E20000E94F8018FEB5CC084EE5AC0F801EE0F0F
:100E3000FF1FEB5BFC4F8B819C8191838083DC01E6
:100E400015961C930E9314979401A701B301C50145
:100E50000E94150DEB81FC8191838083F58AE48AE1
:100E6000518E408E378A268A2981238312821782E7
:100E700016821186108613861286158614861786AA
:100E800016868FEF9FEF918B808B138A128A809149
:100E9000890390918A03019690938A038093890332
:100EA0003A8130FF06C061E08B819C810E942B0556
:100EB00012C06BE08B819C810E942B05FA81F2FDB0
:100EC0000AC0C6010E94F8012981822F220F990BC6
:100ED0000E94BC0503C0C6010E94F801C80101C000
:100EE0009FEF0F900F900F900F90DF91CF911F9178
:100EF0000F91FF90EF90DF90CF90BF90AF909F90B9
:100F00008F907F906F905F904F903F902F900895BB
:100F1000CF92DF92EF92FF92C0909106D09092060E
:100F2000E0909306F090940680E090E00E94C10368
:100F3000BC018091910690919206A0919306B09188
:100F40009406C816D906EA06FB0631F7CB01A0E0E5
:100F5000B0E0BC01CD016C297D298E299F29FF902D
:100F6000EF90DF90CF9008958F929F92AF92BF92B3
:100F7000CF92DF92EF92FF920F931F93CF93DF9365
:100F80008C01EB010E9488074B015C01C090950623
:100F9000D0909606E0909706F09098060E948807F9
:100FA000681579058A059B0568F3F80160837183EC
:100FB00082839383C882D982EA82FB82DF91CF91B8
:100FC0001F910F91FF90EF90DF90CF90BF90AF9067
:100FD0009F908F9008952091990630919A06232B27
:100FE00039F4AB0160E070E080E090E00C94900395
:100FF00008950F931F93CF93DF93DC01E0918B064D
:10100000F0918C06CBE8D6E0309741F1068117814C
:101010002085318516964D915D916D917C91199742
:10102000041715072607370728F4EF010190F08110
:10103000E02DEACF041715072607370779F4028158
:1010400013812481358112964D915D916D917C9132
:101050001597401751076207730738F71196FC93ED
:10106000EE93B983A883DF91CF911F910F910895DB
:101070000F931F93CF93DF938091910690919206E7
:10108000A0919306B0919406119680939106909347
:101090009206A0939306B093940680919106909146
:1010A0009206A0919306B0919406892B8A2B8B2BE4
:1010B00099F48091950690919606A0919706B0912B
:1010C00098060196A11DB11D8093950690939606F2
:1010D000A0939706B0939806E0918D06F0918E0646
:1010E000F0939006E0938F0610928E0610928D0674
:1010F000A0918B06B0918C06ED0180E090E02097E6
:1011000081F14091950650919606609197067091F5
:1011100098060E811F81288539854017510762077F
:10112000730738F4D0938C06C0938B060097F1F4C4
:101130006DC0009191061091920620919306309116
:1011400094064A815B816C817D8144275527401735
:1011500051076207730731F7CE010990D881C02D7E
:10116000CECF10928C0610928B06E0CFEC01198244
:101170001882309709F446C0109791F002811381CC
:101180002481358112964D915D916D917C911597D9
:10119000401751076207730718F49A2F8B2F02C06C
:1011A0009E2F8F2FC92F282FD22F0190F081E02D55
:1011B0000D90BC91A02D309719F4B983A8831DC060
:1011C000109719F4F983E88318C0028113812481F0
:1011D000358112964D915D916D917C9115974017D7
:1011E00051076207730718F43A2F2B2F02C03E2FC6
:1011F0002F2F38832983C32FD7CF90938F068093C7
:10120000900604C0B0939006A0938F06DF91CF9113
:101210001F910F9108958F929F92AF92BF92CF929C
:10122000DF92EF92FF9281E090E090939A06809394
:10123000990680918F0690919006892B49F40E941F
:10124000380880E090E00E94C1030196D1F3B4C059
:1012500080E090E00E94C1036C01E12CF12C3AC0C7
:10126000AA24BB2488159905AA05BB0598F4E0912A
:101270008F06F091900682809380A480B58080E0F4
:1012800090E00E94C103A0E0B0E08C159D05AE0582
:10129000BF0530F7A0918F06B09190068D919C917B
:1012A00011979093900680938F0612961D921D922F
:1012B0001D921C92159716961D921D921D921C92BE
:1012C00019971A96ED91FC911B971C968D919C9104
:1012D0001D970995E0918F06F0919006309789F45B
:1012E00080E090E00E94C103A0E0B0E04496A11D20
:1012F000B11D8C159D05AE05BF0598F50E943808F7
:1013000024C082809380A480B58080E090E00E9419
:10131000C103A0E0B0E08C159D05AE05BF0508F443
:10132000A6CFB501A4016627772784179507A607DE
:10133000B70708F09CCF481B590B6A0B7B0B443155
:1013400051056105710560F692CF80E090E00E9442
:10135000C103A0E0B0E0C816D906EA06FB06A8F370
:101360002BC0E0918F06F09190063097B9F0828003
:101370009380A480B58084E1881A9108A108B108FF
:101380000E948807DC01CB014496A11DB11D88167F
:101390009906AA06BB0608F49DCF2FC080E090E016
:1013A0000E94C1034C01A12CB12C8C149D04AE04ED
:1013B000BF0430F40E943808C12CD12C76018ACFAA
:1013C000D501C4014496A11DB11DAA27BB278815CC
:1013D0009905AA05BB0560F480E090E00E94C10376
:1013E000A0E0B0E088159905AA05BB05A8F7E2CFF3
:1013F00088248A94982CA12CB12C10929A061092D1
:101400009906C501B401FF90EF90DF90CF90BF9097
:10141000AF909F908F900C94EB07FC01A0918F06EA
:10142000B0919006A817B90719F0AFE8B6E01DC053
:10143000ED91FC91F0939006E0938F06309759F070
:1014400082819381A481B581BC01CD016451710970
:101450008109910904C06FEF7FEF80E090E00C9468
:10146000EB07E817F907A9F0DC018D919C91119722
:101470000097B9F7ADE8B6E08D919C911197009770
:1014800029F0E817F90729F0DC01F6CFABE8B6E060
:1014900009C0808191818D939C930895E817F90785
:1014A000C1F3DC018D919C9111970097B9F70895D4
:1014B0000F931F9300E010E02BE039E040E950ED7E
:1014C00063E070E080E090E00E9445036FEF7FEF03
:1014D000CB011F910F910C94EB074F925F926F928B
:1014E0007F928F929F92AF92BF92CF92DF92EF92B4
:1014F000FF920F931F93CF93DF93EC016A017B015F
:101500000E9488074B015C0119821882D701C6012D
:1015100088199909AA09BB098997A105B105F0F4B1
:10152000EE24FF2480E090E00E94C103A0E0B0E040
:10153000C816D906EA06FB06A8F380E090E00E94F0
:10154000C103A0E0B0E08C159D05AE05BF05A8F372
:10155000EA85FB858C859D850995A0C00E94EC01DC
:101560008C018A819B81AC81BD81892B8A2B8B2B3D
:1015700009F090C08E819F81A885B985892B8A2B1F
:101580008B2B09F087C0CA82DB82EC82FD824090FF
:101590009506509096066090970670909806C70141
:1015A000B6016451710981099109681579058A05A7
:1015B0009B0528F42FEF421A520A620A720A4E82E1
:1015C0005F82688679864090950650909606609076
:1015D0009706709098062E813F814885598542165E
:1015E00053066406750688F02091910630919206A4
:1015F00040919306509194062B013C0144245524BC
:10160000241535054605570521F0CE010E94F9073E
:101610003DC0AA24BB2486169706A806B90618F46E
:10162000AFE8B6E021C0ADE8B6E0ED91FC911197CE
:10163000309759F04281538164817581C416D50673
:10164000E606F70610F0DF01F0CFF983E883CD93CB
:10165000DC931CC082809380A480B580C814D90418
:10166000EA04FB0430F0DF01ED91FC911197309713
:1016700089F7F983E883CD93DC9320918F0630912D
:101680009006C217D30711F40E94EB07C8010E940D
:10169000F80104C0CE010E940D0A75CF80E090E0F1
:1016A000DF91CF911F910F91FF90EF90DF90CF903E
:1016B000BF90AF909F908F907F906F905F904F9072
:1016C00008950F931F93CF93DF93EC010E94EC01D9
:1016D0008C018A819B81AC81BD81892B8A2B8B2BCC
:1016E00079F48E819F81A885B985892B8A2B8B2BD4
:1016F00039F4C801DF91CF911F910F910C94F8013B
:10170000CE010E940D0AF5CF8F929F92AF92BF92A9
:10171000CF92DF92EF92FF92CF93DF93FC0122856D
:101720003385232B09F447C06A017B01EC010E9439
:10173000610BF8E2CF16D104E104F10438F580E042
:1017400090E00E94C1034C01A12CB12C80E090E0FC
:101750000E94C103A0E0B0E088199909AA09BB0959
:10176000AA27BB278C159D05AE05BF0578F3EA8532
:10177000FB858C859D85DF91CF91FF90EF90DF9069
:10178000CF90BF90AF909F908F9009940E94880750
:10179000AB01BC014C0D5D1D6E1D7F1DCE01DF91A7
:1017A000CF91FF90EF90DF90CF90BF90AF909F9040
:1017B0008F900C946D0ADF91CF91FF90EF90DF90A6
:1017C000CF90BF90AF909F908F9008954F925F926F
:1017D0006F927F928F929F92AF92BF92EF92FF9201
:1017E0000F931F93CF93DF93011511052105310549
:1017F00081F4DF91CF911F910F91FF90EF90BF90F7
:10180000AF909F908F907F906F905F904F900C94CF
:10181000840B280139014A015B01EC010E94EC01B3
:101820007C018A819B81AC81BD81892B8A2B8B2B8A
:1018300009F044C08E819F81A885B985892B8A2BA8
:101840008B2BE1F5BE016A5F7F4FCE0102960E94AD
:10185000B4078A819B81AC81BD81880D991DAA1D29
:10186000BB1D8A839B83AC83BD830E811F8128852A
:101870003985040D151D261D371D88159905AA05E6
:10188000BB0520F40F5F1F4F2F4F3F4F0E831F8369
:1018900028873987CE010E94F907C701DF91CF91D0
:1018A0001F910F91FF90EF90BF90AF909F908F90FE
:1018B0007F906F905F904F900C94F801CE010E9442
:1018C0000D0AC0CF0C94AB048F929F92AF92BF923F
:1018D000CF92DF92EF92FF926B017C0180E090E06B
:1018E0000E94C1034C01A12CB12CEE24FF2480E006
:1018F00090E00E94C103A0E0B0E088199909AA090C
:10190000BB09AA27BB278C159D05AE05BF0578F33B
:10191000FF90EF90DF90CF90BF90AF909F908F900F
:1019200008954F925F926F927F928F929F92AF92A3
:10193000BF92EF92FF920F931F93CF93DF93CDB798
:10194000DEB760970FB6F894DEBF0FBECDBF4B0178
:101950005C0129013A010E940202892B71F045289D
:101960004628472829F065EB71E083E00E942B04AC
:10197000C501B4010E94640C26C0188A1F8682E645
:101980009CE09C878B877E018FE0E80EF11CFE8631
:10199000ED861F82188619861A861B821C821D827C
:1019A0001E8261E070E0C7010E946604930182011B
:1019B000B501A401CE0101960E94E60B61E070E042
:1019C000C7010E94660460960FB6F894DEBF0FBE92
:1019D000CDBFDF91CF911F910F91FF90EF90BF90FE
:1019E000AF909F908F907F906F905F904F900895F1
:1019F0000E94EC01FFCF0895A8950FB6F894A89522
:101A000080916000886180936000109260000FBE3A
:101A10000C94A90E1F920F920FB60F9211245D9A8B
:101A200068E670E080E00E942B04240F351FF90166
:101A300031974FEA408331974EEF408346ED55E0B2
:101A400031974083319750833197808331979083CA
:101A500031971082319780E8808331971082C901D5
:101A60004F971292E817F907E1F7F901B0976083F1
:101A7000319770838AE182938F5F8032E1F7C901E9
:101A8000889708950E94EC040E94F2018DB79EB7DA
:101A90002091040130910501821B930B9093010169
:101AA0008093000180919B0690919C06892B41F4C4
:101AB000809102019091030190939C0680939B0674
:101AC000A0914303B0914403CD91CDBFDD91DEBF22
:101AD000FF91EF91DF91CF91BF91AF919F918F9146
:101AE0007F916F915F914F913F912F911F910F9136
:101AF000FF90EF90DF90CF90BF90AF909F908F902E
:101B00007F906F905F904F903F902F901F900F901D
:101B10000FBE0F9008950E940202892B09F05AC04F
:101B20000F920FB6F8940F921F9211242F923F92AA
:101B30004F925F926F927F928F929F92AF92BF92DD
:101B4000CF92DF92EF92FF920F931F932F933F93C9
:101B50004F935F936F937F938F939F93AF93BF93B5
:101B6000CF93DF93EF93FF93A0914303B09144038E
:101B70000DB60D920EB60D920E94EC04A091430397
:101B8000B0914403CD91CDBFDD91DEBFFF91EF91C8
:101B9000DF91CF91BF91AF919F918F917F916F9185
:101BA0005F914F913F912F911F910F91FF90EF9077
:101BB000DF90CF90BF90AF909F908F907F906F906D
:101BC0005F904F903F902F901F900F900FBE0F90FF
:101BD0000895089581E090E09093880380938703AF
:101BE00008950F920FB6F8940F921F9211242F921E
:101BF0003F924F925F926F927F928F929F92AF929D
:101C0000BF92CF92DF92EF92FF920F931F932F9389
:101C10003F934F935F936F937F938F939F93AF9374
:101C2000BF93CF93DF93EF93FF93A0914303B091C2
:101C300044030DB60D920EB60D920E94EC04A091D5
:101C40004303B0914403CD91CDBFDD91DEBFFF9141
:101C5000EF91DF91CF91BF91AF919F918F917F9144
:101C60006F915F914F913F912F911F910F91FF9035
:101C7000EF90DF90CF90BF90AF909F908F907F902C
:101C80006F905F904F903F902F901F900F900FBEDE
:101C90000F90189508950C94580ACF93DF931F92D4
:101CA000CDB7DEB761E070E0CE0101960E94990EDB
:101CB0008981082E000C990B0F90DF91CF91089528
:101CC000CF93DF931F92CDB7DEB7898361E070E0D9
:101CD000CE0101960E949C0E80E090E00F90DF9173
:101CE000CF9108950E94880EEFE9F6E086E291E038
:101CF0009383828388E191E0918380838DEF91E0EB
:101D00000C940B0F63E085E10E949A025D980895A0
:101D10000F931F9300E010E020E030E040E855E230
:101D200060E070E080E090E00E9406021F910F9159
:101D3000089583EC9FEF0895CF93DF93EB01AB0100
:101D4000BC0180E090E00E944D02CE01DF91CF9176
:101D500008950895A1E21A2EAA1BBB1BFD010DC018
:101D6000AA1FBB1FEE1FFF1FA217B307E407F5074B
:101D700020F0A21BB30BE40BF50B661F771F881F27
:101D8000991F1A9469F760957095809590959B01BD
:101D9000AC01BD01CF0108950E94DD0EA59F900DFD
:101DA000B49F900DA49F800D911D11240895EE0FF6
:101DB000FF1F0590F491E02D0994A29FB001B39FFD
:101DC000C001A39F700D811D1124911DB29F700D44
:101DD000811D1124911D0895FC0101900020E9F757
:101DE000809590958E0F9F1F0895A0E0B0E0EBEFD7
:101DF000FEE00C94DC11AE014B5F5F4FFA01619184
:101E00007191AF018091A1069091A2060E943B0FB3
:101E1000E2E00C94F8110F931F93CF93DF93E091BE
:101E2000A106F091A206238121FF1BC08C01D0E006
:101E3000C0E0F80181918F016091A1067091A20626
:101E4000DB011896ED91FC911997882331F00995E3
:101E5000892B79F3DFEFCFEFECCF8AE00995892B5F
:101E600019F08FEF9FEF02C08D2F9C2FDF91CF9144
:101E70001F910F910895ABE0B0E0E1E4FFE00C9416
:101E8000CC116C017B018A01FC01178216828381CF
:101E900081FFCCC1CE0101963C01F6019381F7018F
:101EA00093FD859193FF81917F01882309F4BAC145
:101EB000853239F493FD859193FF81917F018532BD
:101EC00029F4B60190E00E943211E7CF912C212C29
:101ED000312CFFE1F315D8F08B3279F038F48032F1
:101EE00079F08332A1F4232D20611DC08D3261F081
:101EF000803369F4232D216016C0832D8260382E33
:101F0000E32DE4603E2E2AC0F32DF8601DC037FC9F
:101F10002DC020ED280F2A3040F08E32B9F436FC67
:101F200081C1232D2064322E19C036FE06C08AE0FE
:101F3000989E200D1124922E11C0EAE02E9E200DB5
:101F40001124222EF32DF0623F2E08C08C3621F48E
:101F5000832D8068382E02C0883641F4F70193FD46
:101F6000859193FF81917F018111B3CF982F9F7D40
:101F70009554933028F40C5F1F4F9FE399830DC055
:101F8000833631F0833771F0833509F059C021C0B1
:101F9000F801808189830E5F1F4F88248394912CE0
:101FA000530113C02801F2E04F0E511CF801A0802C
:101FB000B18036FE03C0692D70E002C06FEF7FEF85
:101FC000C5010E9427114C018201F32DFF773F2E9E
:101FD00016C0280122E0420E511CF801A080B180F9
:101FE00036FE03C0692D70E002C06FEF7FEFC501C0
:101FF0000E941C114C01F32DF0683F2E820133FC2E
:102000001BC0822D90E088169906B0F4B60180E2DC
:1020100090E00E9432112A94F4CFF50137FC8591AB
:1020200037FE81915F01B60190E00E9432112110CC
:102030002A9421E0821A91088114910471F7E8C072
:10204000843611F0893641F5F80137FE07C060810A
:102050007181828193810C5F1F4F08C06081718103
:10206000072E000C880B990B0E5F1F4FF32DFF7688
:102070003F2E97FF09C090958095709561957F4F91
:102080008F4F9F4FF0683F2E2AE030E0A3010E945F
:102090006E11882E861845C0853731F4232D2F7E8A
:1020A000B22E2AE030E025C0932D997FB92E8F36CD
:1020B000C1F018F4883579F0B5C0803719F0883749
:1020C00021F0B0C0E92FE061BE2EB4FE0DC0FB2DA3
:1020D000F460BF2E09C034FE0AC0292F2660B22E3C
:1020E00006C028E030E005C020E130E002C020E179
:1020F00032E0F801B7FE07C060817181828193816F
:102100000C5F1F4F06C06081718180E090E00E5F20
:102110001F4FA3010E946E11882E8618FB2DFF779A
:102120003F2E36FE0DC0232D2E7FA22E891458F48B
:1021300034FE0BC032FC09C0832D8E7EA82E05C054
:10214000B82CA32C03C0B82C01C0B92CA4FE0FC01E
:10215000FE01E80DF11D8081803321F49A2D997ED6
:10216000A92E09C0A2FE06C0B394B39404C08A2D60
:10217000867809F0B394A3FC11C0A0FE06C0B21487
:1021800088F4280C922C9B180EC0B21460F4B6018F
:1021900080E290E00E943211B394F7CFB21418F4A9
:1021A0002B1802C0982C212CA4FE10C0B60180E38D
:1021B00090E00E943211A2FE17C0A1FC03C088E784
:1021C00090E002C088E590E0B6010CC08A2D8678C8
:1021D00059F0A1FE02C08BE201C080E2A7FC8DE2B3
:1021E000B60190E00E943211891438F4B60180E300
:1021F00090E00E9432119A94F7CF8A94F301E80D8F
:10220000F11D8081B60190E00E9432118110F5CF5E
:10221000222009F442CEB60180E290E00E94321101
:102220002A94F6CFF6018681978102C08FEF9FEF47
:102230002B96E2E10C94E811FC010590615070408E
:102240000110D8F7809590958E0F9F1F0895FC017F
:102250006150704001900110D8F7809590958E0FD5
:102260009F1F08950F931F93CF93DF93FB0123814B
:1022700021FD03C08FEF9FEF2CC022FF16C04681C7
:102280005781248135814217530744F4A081B181DD
:102290009D012F5F3F4F318320838C9326813781AF
:1022A0002F5F3F4F3783268314C08B01EC01FB0166
:1022B0000084F185E02D0995892BE1F6D801169669
:1022C0008D919C911797019617969C938E931697D4
:1022D000CE01DF91CF911F910F910895FA01AA27A6
:1022E000283051F1203181F1E8946F936E7F6E5F59
:1022F0007F4F8F4F9F4FAF4FB1E03ED0B4E03CD007
:10230000670F781F891F9A1FA11D680F791F8A1FE9
:10231000911DA11D6A0F711D811D911DA11D20D050
:1023200009F468943F912AE0269F11243019305D0A
:102330003193DEF6CF010895462F4770405D4193FB
:10234000B3E00FD0C9F7F6CF462F4F70405D4A3348
:1023500018F0495D31FD4052419302D0A9F7EACF10
:10236000B4E0A6959795879577956795BA95C9F73F
:1023700000976105710508959B01AC010A2E069432
:102380005795479537952795BA95C9F7620F731FEB
:10239000841F951FA01D08952F923F924F925F9228
:1023A0006F927F928F929F92AF92BF92CF92DF9265
:1023B000EF92FF920F931F93CF93DF93CDB7DEB7CA
:1023C000CA1BDB0B0FB6F894DEBF0FBECDBF09945E
:1023D0002A88398848885F846E847D848C849B84B5
:1023E000AA84B984C884DF80EE80FD800C811B81C3
:1023F000AA81B981CE0FD11D0FB6F894DEBF0FBEF2
:0A240000CDBFED010895F894FFCF61
:10240A000000A70620000D0080006F0036000000C3
:10241A0000000000F301F8010000000100000000C4
:10242A0000004D0E00000000000200000000600ED7
:10243A000000000048656C6C6F2041726475696E1B
:10244A006F21004563686F3A2000303132333435EA
:10245A0036371011121314152021222324250D0AB0
:10246A0000256F00256900257800252E2A660000C0
:10247A000306080A537461636B20506F696E7465B2
:10248A00723A203078253034780A002A2A2A2052D3
:10249A00494F54206B65726E656C2070616E69637A
:1024AA003A0A25730A0A002A2A2A2068616C746586
:1024BA00642E0A0A004641494C454420415353457B
:1024CA005254494F4E2E006D61696E28293A2054A4
:1024DA006869732069732052494F54212028566530
:1024EA007273696F6E3A206275696C64746573748D
:1024FA00290A0069646C65006D61696E000C000050
:0400000300000136C2
:00000001FF
