:020000040020DA
:1000000000020020BD052000590520001505200034
:100010006905200079052000890520000000000006
:10002000000000000000000000000000F9042000B3
:100030009905200000000000DD042000A905200033
:100040008D0220008D0220008D0220008D022000F4
:1000500000000000BD0F20008D0220008D02200056
:100060008D022000000000000000000000000000E1
:1000700000000000000000008D02200000000000D1
:1000800000000000000000008D0220004513200049
:100090004D132000551320005D1320006513200030
:1000A0006D1320008D0220008D0220008D022000A3
:1000B0008D0220008D0220008D0220008D02200084
:1000C0008D0220008D0220008D022000751320007B
:1000D0007D13200000000000000000000000000070
:1000E0000000000000000000000000000000000010
:1000F0008D022000000000008D0220008D022000F3
:1001000000000000000000000000000000000000EF
:1001100000000000000000000000000000000000DF
:1001200000000000000000000000000000000000CF
:1001300000000000000000000000000000000000BF
:1001400000000000000000000000000000000000AF
:10015000000000000000000000000000000000009F
:10016000000000000000000000000000000000008F
:10017000000000000000000000000000000000007F
:10018000000000000000000000000000000000006F
:10019000000000000000000000000000000000005F
:1001A000000000000000000000000000000000004F
:1001B000000000000000000000000000000000003F
:1001C000000000000000000000000000000000002F
:1001D000000000000000000000000000000000001F
:1001E000000000000000000000000000000000000F
:1001F00000000000000000000000000000000000FF
:1002000000000000000000000000000000000000EE
:1002100000000000000000000000000000000000DE
:1002200000000000000000000000000000000000CE
:1002300000000000000000000000000000000000BE
:1002400000000000000000000000000000000000AE
:10025000000000000000000000000000000000009E
:10026000000000000000000000000000000000008E
:10027000000000000000000000000000000000007E
:1002800000000000000000000000000000F08CB939
:1002900000F09DBA7047000070B50C46064600F0AD
:1002A00087FA094B094A1D682C44944202D8084A2F
:1002B000944207D20C234FF0FF35336000F080FAF0
:1002C000284670BD1C60F9E7000200200080002075
:1002D000E45B00201946104600F080BA194610462B
:1002E00000F07FBA132303604FF0FF3070471323F1
:1002F00003604FF0FF307047132303604FF0FF306F
:1003000070470023022903608CBF00200120704742
:10031000134910B50C68002094FAA4F18442B1FA94
:1003200081F108BF4FF0FF310E4C0F4B54F82110F4
:1003300018600E4B09681A68A1F1080494420ED0A7
:1003400022B110790A2804BF0B2010710A22012063
:1003500001F8042C31F9021C054A1C60118010BD03
:1003600090020020A40200209C020020980200209D
:1003700094020020092930B503791AD9092B14D821
:1003800042791A4B00F1080453F822507DB12D68D0
:10039000856053F822502C6043F822400123144A10
:1003A0004479A340146823431360017130BD846015
:1003B000F2E7092BF9D945790C4B53F825203AB1CE
:1003C0001468A2420BBF0022246843F82520146061
:1003D000427953F82230002BE7D10123044C03FA71
:1003E00002F2236823EA02032360DEE7A40200206E
:1003F0009002002008B5094B1B681A79092A02D916
:100400005B79834205D900F0DEF918B10122044B73
:100410001A6008BDBDE8084000F058B898020020F6
:100420009C020020002408B500F0C2F9084B094ADC
:100430001B88094D1BB242F82340084A2146136825
:100440002868013B1360FFF795FF2C6000F03AF835
:1004500094020020E402002098020020A002002064
:1004600013444FF0773223F0030310B51C1F43F8F9
:10047000042C620742BF4FF08832A3F1080443F80E
:10048000082C4FF0807344E902030D4B002244F81E
:100490000C3C0323022044E905320123224644E9AF
:1004A00007300B2342F8201D42F8043D013B032B8B
:1004B000FAD120466FF0020340F8443D10BD00BF62
:1004C0002504200000F078F901DFFEE7024A5368B6
:1004D00043F080535360704700ED00E0EFF3098074
:1004E00020E9F00F40F804ED02490968086000F0C7
:1004F00003F8000098020020FFF70AFF0448006894
:10050000016801C9B1E8F00F81F3098800470000D4
:10051000980200200D4B0E4A0E496846904203D8BF
:10052000984201D9002102E009468D4601210420AC
:100530007246024202D1EFF3088001E0EFF3098036
:100540002DE9F00F6B4600F06FF800BF5801002056
:10055000008000200002002008B50249042000F0BD
:10056000A7FB00BF1FCA200008B50249062000F003
:100570009FFB00BF0CCA200008B50249072000F00D
:1005800097FB00BFE6C7200008B50249082000F02D
:100590008FFB00BF2BCA200008B50249092000F0DC
:1005A00087FB00BFF8C7200008B502490A2000F009
:1005B0007FFB00BF0AC820007047704708B5FFF7EF
:1005C000FBFF6A46114B1249934213D3114A124B57
:1005D00012498B4211D30021114B124A934211D37D
:1005E000FFF7EBFF00F026FB0AF0AEFFBDE8084086
:1005F00000F080BB43F8041BE6E752F8040F43F811
:10060000040BE6E743F8041BE8E700BF0000002006
:10061000FEE7FEE7DCF3200000020020900200204D
:1006200090020020E45B00202DE9F04F9A464A4BEF
:1006300093469A6B8FB003925A6B9F6A0492DA6A60
:10064000044605921A6BDB6B06920793434B884670
:100650001A68434B9A4202D042480BF05DF8B8F159
:10066000000F4ED0002540480BF056F82E463F486C
:100670000BF052F839463E480AF0C6FF05993D484E
:100680000AF0C2FF06993C480AF0BEFF07993B48B2
:100690000AF0BAFF3A0403D5039939480AF0B4FFC7
:1006A0003B0603D5049937480AF0AEFF36480BF0F5
:1006B00033F8594635480AF0A7FFB8F1000F1BD1AF
:1006C00033480BF029F8314632480AF09DFF69465D
:1006D000314BC91A03D5494230480AF095FF2046EC
:1006E0008268C36801698C4641698E46AD465146B1
:1006F00091E8F00F4168006801BE2949052000F02B
:10070000D7FAD4E9023008902069D4E90669099043
:10071000606919F4007F0A902248D4E9001208BFEA
:1007200004F12005CDE90C2318BF04F124050B9139
:100730000AF0F2FF089B0B9900931B48DDE90C239C
:100740000AF062FFDDE90912CDF800903346174840
:100750000AF05AFF8BE700BF00ED00E00000002028
:10076000FEE7FEE718C820002EC82000F3C82000CE
:10077000FCC820000CC920001CC920002CC9200086
:100780003CC920004CC920005CC9200061C9200080
:1007900073C92000A4C9200058010020CCC9200042
:1007A000F9C920005DC8200078C82000B5C8200025
:1007B000EFF3108072B6704762B6EFF310807047A7
:1007C00080F310887047EFF30580C0B270470023B4
:1007D0004FF4E1311A46184600F05EBB6FF0850019
:1007E000704710B50C460A460146002000F0D0FBC9
:1007F000204610BD002000F08FBD000038B5044C2D
:100800002568FFF7F7FF2368AB42F9D1184338BDDD
:1008100070030020034B196819B982B2084600F032
:1008200041BD70476803002010B5094A136843B101
:100830009C6881688C4207D303D15C6841688C4214
:1008400002D90360106010BD1A461B68EFE700BFB5
:10085000740300202DE9F047294E3268B24602F5B4
:100860008032326032681AB9264B1A6801321A6037
:100870000020254B254C1A681860236884461946C9
:10088000234FDFF880E0DFF88C803A6021B1DEF89A
:1008900000508E68AE4217D900B12160BCF1000F44
:1008A00010D00021CCF800103AB3C3B15168586899
:1008B00081428CBF19461146084612681B6882B9EE
:1008C00003603960BDE8F0874D68DAF8009005EA0A
:1008D00008054D45E0D18C4601200968D6E7114650
:1008E000EAE70BB90260ECE754685D68AC428CBF84
:1008F0001C46144604602046DFE73B60E2E700BF89
:10090000700300206C030020780300207403002093
:100910007C0300200000FFFF01232DE9F041324F4E
:10092000324C3B602368CBB9FFF794FF4FF6FF755D
:10093000FFF760FFA842FBD000254FF000082368B6
:1009400083B9FFF757FF2830854228D9FFF782FF88
:10095000FFF750FF8542FBD30025F0E7FFF74AFF82
:100960000546EAE75E68FFF745FF854205D8B3B262
:10097000834202D91B1A272BE3D823685E68FFF74E
:1009800039FF854202D8B6B28642F6D823681A6883
:10099000C3E901882260D3E903209047CFE72368A9
:1009A0006BB15E68FFF72AFF143E28308642C6D33B
:1009B000002330463B60BDE8F041FFF72BBFFFF757
:1009C00019FF8542064602D9FFF744FFC4E700F14C
:1009D00028039BB2984204D9FFF70CFF8642FBD94B
:1009E000F2E74FF6FF76E3E7680300207C03002080
:1009F000144A1368834210D11B6813601BB15868F6
:100A00001438FFF707BF4FF6FF70FAE798421968EE
:100A100001D1116070471A460B46002BF6D10A4AE5
:100A200013681BB9094A136833B9704798421968AB
:100A3000EFD01A460B46F4E798421968E9D01A46F7
:100A40000B46F1E77C0300207803002074030020AC
:100A500008B50023054A1846054900F07DFBBDE8AE
:100A600008404FF0FF30FFF7D5BE00BF1909200046
:100A700040420F0070B5084EFFF7C0FE34680546CF
:100A8000FFF7BCFE8542F7D800222346141843F135
:100A900000052046294670BD6C030020F8B50446C9
:100AA0000D46FFF7ABFE002323602B1A322B0746BF
:100AB0000DD8ADB2FFF79EFE8542FBD3FFF79AFE3D
:100AC0008542FBD8D4E9033098470020F8BDFFF7F2
:100AD0006FFE636806460BB9A36813B12046FFF7A3
:100AE00087FF1D4BA5F114001A68874288BF0132A9
:100AF000A2601B68A26865609A4205D8174B1A6805
:100B0000030C1B049A4206D02046FFF78DFE3046A8
:100B1000FFF756FED9E7BFB2B8420ED9104B1946BF
:100B20001A6812B15768BD4213D222601C600B686C
:100B30009C42ECD1FFF76EFEE9E70A4A136813B155
:100B400059688D4202D223601460E0E71A461B68A0
:100B5000F5E713461268E4E76C03002070030020F9
:100B60007C0300207803002038B50446FFF720FE00
:100B7000636805460BB9A36813B12046FFF738FF39
:100B80002846BDE83840FFF71BBEC36870B5044671
:100B90000D46CBB1FFF7E8FF312D0DD8FFF72AFE48
:100BA0000646FFF727FE801B80B28542F9D8D4E9BC
:100BB0000330BDE870401847FFF720FE2918204693
:100BC000BDE87040FFF76ABF70BD00002DE9F04737
:100BD00004460E4615461AB9BDE8F047FFF7D5BFE3
:100BE000FFF7E6FD636807460BB9A36813B120461B
:100BF000FFF7FEFEDFF830A0FFF700FEDAF8008016
:100C00008146FFF7FBFD8145F6D83618454428BFDD
:100C1000013520466660A560FFF706FE3846BDE850
:100C2000F047FFF7CDBD00BF6C03002008B5FFF70C
:100C3000BFFDFEE708B500F017F90821124800F0E3
:100C4000E9F90821114800F0E5F90821104800F001
:100C5000E1F908210F4800F0DDF904210E4800F009
:100C6000D9F904210D4800F0D5F904210C4800F011
:100C7000D1F904210B4800F0CDF9BDE8084004216A
:100C8000094800F0C7B900BF00B00D4001B00D40E9
:100C900002B00D4003B00D4006B00D4004B00D4051
:100CA00005B00D4007B00D4003900D4070470000A7
:100CB00008B5084B1A683AB9012203281A6003D113
:100CC000714605480AF0A0FCFFF772FDFFF7EEFF42
:100CD000FFF7ACFF8003002051CA200008B504F0E4
:100CE0002DF803F059FA002008BD08B500F088F986
:100CF000FCE700001FB50024FFF75AFD0D4B0F2243
:100D00001B684FF4807102930B4B019400930B48C6
:100D10000C2300F033F80A4B07221B684FF4C06124
:100D2000CDE90143074B084800930C2300F026F857
:100D3000FFF7C8FB04020020EB0C20008403002016
:100D400008020020DD0C20008404002038B50B7957
:100D5000092B03D908490320FFF7AAFF4C7901F1B9
:100D60000802036813B98B60026038BD13F8035C96
:100D7000AC42F8D31846F4E73FCA20000F2A2DE909
:100D8000F74F05468B4691469A4633D810F0030339
:100D90000FBF0B46C3F10403ED18CB1A303B23F011
:100DA00003031AF0080F05EB030419D12D6003E0CB
:100DB00012600432A242FBD30193FFF7F9FC012237
:100DC00080462749019B51F8226017B2AEB101322B
:100DD000212AF8D14046FFF7F3FC6FF08A073BE089
:100DE0002A46E7E701212046FFF7C4FA4046FFF70D
:100DF000E7FC31E06FF015072EE041F822402A466B
:100E0000DDE90C01E780FFF72BFB0E9B154AA3627F
:100E10004FF0FF33C4E9073613681AF0010F03F1EE
:100E2000010320606562C4F82CB084F80590267137
:100E3000C4E90266C4E90466A6611360D2D10B213D
:100E40002046FFF797FA1AF0040FCFD14046FFF77C
:100E5000B7FC4846FFF7CEFA384603B0BDE8F08F3E
:100E6000E4020020A002002008B504F0B7F9012236
:100E7000064B0748C3F89820064A1A605968514043
:100E80000142FBD1BDE8084000F07CBA00200D40D3
:100E9000000001010101020170B514460E461D4615
:100EA000024618B130490320FFF702FF1CB101468A
:100EB0002E4800F0DDF8082200212D4800F0D8F877
:100EC0002C4A136843F001031360536843F0010395
:100ED0005360936843F0010393600022264B1A632A
:100EE000C3F8C82F4FF4DA629A6344B102215A6BF7
:100EF00061F3C5025A631A6B42F400721A6302214D
:100F00005A6B61F302025A631A6B1C4942F48072F5
:100F10001A631A6B6FF345121A63194A136813F4B4
:100F2000803F184B08BF1946136803F0070321FAE6
:100F300003F3710801EB8301B1FBF6F10E4B8A0953
:100F40005A62702201F03F019962DA6214B10E4ACE
:100F5000C2E9004520210D4A002011601A6B42F0C1
:100F600001021A6370BD00BF3FCA200000900D400F
:100F700001900D4028200D4000C000400024F400E6
:100F800000200D400048E801840A002000E100E054
:100F900008B520B9074B0A44914204D108BD06495F
:100FA0000320FFF785FE98698006FCD411F8010B39
:100FB0001860F1E700C000403FCA200070B50D4C3A
:100FC0000D4E256CADB26564A369DB060BD515F437
:100FD000D06F1CBFFF236360084B1B684BB1BDE89B
:100FE0007040FFF773BA21683368C9B270689847D8
:100FF000EAE770BD00C00040840A00209C02002087
:101000007047C0F30233013B00F0070000EBC30060
:10101000C0B27047FF2938B524D0012400F007037F
:101020009C40E54320F47F6222F00F02D2F8103496
:101030002B40C2F81034D2F820342B40C2F82034B0
:10104000FFF7DFFF094B203043F820100020D2F8D3
:10105000003408290BBF1C432B40C2F80044C2F8DF
:10106000003438BD4FF0FF30FBE700BF00400D40BB
:10107000431C10B5044603D110490320FFF718FEA6
:10108000FFF7BFFF830003F1402303F55023082A35
:10109000C3F880201DBF0A4B403143F8210019607E
:1010A000012324F47F6222F00F02D2F8201404F00E
:1010B0000704A3400B43C2F8203410BD3FCA2000F0
:1010C00000400D40032808B503D904490320FFF769
:1010D000EFFD034B43EA003008BD00BF3FCA2000CC
:1010E00000000340174B70B553F8303005468B4273
:1010F0000C4603DC14490320FFF7DAFDFFF7E2FF9B
:10110000124A016A32F8243002EB840256880B40FE
:101110001E4243620ED02846FFF7D4FF8369214662
:1011200023EA060383610A4B03EBC502506853F8B8
:1011300035309847074B1B681BB1BDE87040FFF77F
:10114000C5B970BD68CA20003FCA200060CA20002F
:101150008C0A00209C02002003282DE9F843044655
:10116000884603D94FF0FF30BDE8F8834749C500F2
:1011700041F8302029444B600123454E8340B2683A
:10118000444F1343B360FFF79DFF00233D44D5F860
:101190000490C360B9F1000F54D157F83430012BDB
:1011A000E0D833683C4A13F4803F3C4B08BF1346F9
:1011B000326802F00702D3404345D3D132264D4670
:1011C0002046FFF77FFFC0F800902046FFF77AFF28
:1011D0000123C3602046FFF775FF57F8347046605F
:1011E000012F13D92046FFF76DFF86602046FFF7D9
:1011F00069FFC5632046FFF765FF4FF6FF73C362C3
:101200002046FFF75FFF40F20113C3602020640017
:10121000A4B204F11303224A9BB2D11881F800034F
:101220000121022F08BF143401FA03F308BFA4B24E
:10123000136001BF131901FA04F483F8000314606A
:10124000002091E7B9F1040F8CD13368134D13F4EA
:10125000803F114B316808BF1D4601F00701CD40AA
:1012600005EB5805B5FBF8F51DB1013DFF2D28BF75
:10127000FF252046FFF726FF85632046FFF722FF64
:101280004FF6FF73222683629AE700BF8C0A002084
:1012900000200D4068CA20000048E8010024F40046
:1012A00000E100E003282DE9F04105468846144698
:1012B0002AD8174F57F830308B4225DDFFF702FF51
:1012C000144B03EB88035E884662B8F1000F13D11C
:1012D00007EBC5077B6813B1C4F57F44FF3428468C
:1012E000FFF7F0FE04632846FFF7ECFE83691E4318
:1012F00086610120BDE8F0812846FFF7E3FEC4F5D2
:101300007F44FF344463EEE74FF0FF30F2E700BF65
:1013100068CA200060CA2000032808B50ED8084B10
:1013200003EBC0035B681BB9FFF7CCFE006D08BD83
:10133000FFF7C8FE006DC04380B2F8E70020F6E773
:1013400068CA200000210846FFF7CCBE012100201A
:10135000FFF7C8BE00210120FFF7C4BE01210846E7
:10136000FFF7C0BE00210220FFF7BCBE0121022012
:10137000FFF7B8BE00210320FFF7B4BE0121032010
:10138000FFF7B0BE09F0C2B80122014B1A707047D6
:10139000B41600204FF0FF30704700207047000067
:1013A0002DE9F0430624414B414D18689B8885B0D8
:1013B000ADF80C302B6802900221B3F990000022A6
:1013C000009402AB06F00AFFC117002908BF0628E7
:1013D0000DD0384B0246019340F25F430620009344
:1013E0000B46002103F01AFF05B0BDE8F08300278B
:1013F0002B68002F93F88C6008BF062E07D02D4B6A
:1014000001934FF48C63009332463B46EAE7224651
:1014100003F1840102A80AF0BBF880464FEAE079A4
:1014200040B1244B0246019340F2624300200093F6
:101430004B46D6E72246204902A80AF0B8F82B68A6
:101440000221B3F990000022009402AB06F0C6FE20
:10145000C117002908BF062809D0164B0246019380
:101460004FF48D63304600930B463946BAE70027A8
:101470002B68002F93F88C6008BF062E04D00D4B0C
:10148000019340F26943BEE7224603F1840102A8BA
:101490000AF07EF80246C3170028A5D00549404649
:1014A000019140F26B41009149469BE788CA2000B8
:1014B000AC0A0020DBEA200066CD20001FB5164BE9
:1014C00000221B680221B3F99000082300936B44AB
:1014D00006F07AFEC317002B08BF062802460BD081
:1014E0000E490620019140F252410091002103F083
:1014F00095FE05B05DF804FB062202A908480AF033
:1015000047F80246C3170028F3D004490020019190
:1015100040F253410091E9E7AC0A0020DBEA2000E9
:1015200060CD200030B5214A85B01068516802AB0B
:1015300003C3002006F004FE044602A806F024FEC1
:1015400002B2D31752EA030109D0194900200191D0
:1015500040F242410091002103F060FE06E03CB9F8
:1015600040F24441124A134803F0F8FF05B030BD81
:1015700002A9204606F0F2FD002804DC0C4A40F2E5
:1015800045410D48F0E702A806F0FEFD24B202B284
:10159000E517D3179D4208BF9442E7D0044920467F
:1015A000019140F2464100912946D5E7CEEA20005C
:1015B000DBEA200097EA2000AEEA200030B50020E8
:1015C00089B006F0BDFD054638B9204A40F23441E5
:1015D0001F4803F0C3FF09B030BD03A906F0BEFDEC
:1015E0002A4604461B4905A80AF09EF805A80AF0F9
:1015F000C3F80021E317994208BFA042224607D052
:10160000124C01944FF48764009403F007FEE2E764
:1016100003A905A803F0E8FF38B10C4B40F23942AA
:1016200003A905A803F02AFED5E703A947F6FF7032
:1016300006F094FD0246C3170028CCD003490020D1
:10164000019140F23A4100910021DEE7DBEA2000FF
:1016500097EA2000D6EA200013B50024204606F0C1
:101660006FFD88B905F034FF0021E317994208BFE8
:10167000A042224606D0054C019440F22A44009430
:1016800003F0CCFD02B010BD0134E8E7DBEA200036
:1016900013B540F203240194049C009405F044FD2A
:1016A00002B010BD2DE9F0470225604B86B01B68E3
:1016B00006AC24F8025DB3F990000521009523469D
:1016C0000022FFF7E5FF4FF0FF310646C7176FF026
:1016D00085008F4208BF86420BD0554B324601939E
:1016E00040F20E4300933B4603F098FD06B0BDE880
:1016F000F087DFF84CA10022DAF800300521B3F9B9
:10170000900000952346FFF7C3FF4FEAE079B9F157
:10171000000F08BF0228804609D0454B02460193BE
:1017200040F21143022000934B460021DCE70021E8
:101730000023DAF800C0BDF816009CF88C2099420E
:1017400008BF904205D03A4C019440F212440094F4
:10175000CAE72A460CF18401364809F019FF02460F
:10176000C317CDE9022340B1314B0020019340F271
:1017700014430093DDE90223D7E72F4B00221B68B7
:101780000521B3F9900023460095FFF781FFC317A9
:10179000BB4208BFB042024607D0254930460191FE
:1017A00040F21741009139469EE70826DAF80030EA
:1017B0000022B3F99000052123460095ADF816608C
:1017C000FFF766FFC317002B08BF0228024607D0A9
:1017D00017494046019140F21C410091494683E778
:1017E00000250023DAF80010BDF8164091F88C208F
:1017F0009D4208BF944207D00D492046019140F216
:101800001D41009129466FE7324684310B4809F0AB
:10181000BFFE0246C31700283FF468AF0449019198
:1018200040F21F410091DDE902015DE7AC0A0020B2
:10183000DBEA200088CD2000B816002067D1200008
:10184000B01000202DE9F04F4FF0080A5F4A85B034
:101850001068516802AB03C35D4B03211B68002273
:10186000B3F99000CDF800A00DEB0A03FFF710FFCD
:101870004FF0FF310446C5176FF085008D4208BF59
:10188000844207D0534B019340F2EF33009322463A
:101890002B462BE0DFF848B10321DBF800300022B3
:1018A000B3F99000CDF800A002ABFFF7F1FEC1172D
:1018B000002908BF082809D0464B0246019340F290
:1018C000F333082000930B4600210FE00027DBF8DC
:1018D0000030002F93F88C6008BF082E0BD03D4BD2
:1018E000324601934FF47D7300933B4603F096FC20
:1018F00005B0BDE8F08F524603F1840102A809F05B
:1019000047FE80464FEAE07940B1324B02460193F0
:1019100040F2F633002000934B46D5E72E4B0022D1
:101920001B680321B3F9900002ABCDF800A0FFF7CC
:10193000AFFEC317AB4208BFA042024607D02549FD
:101940002046019140F2FA3100912946CEE75246F5
:10195000224902A809F02BFEDBF800300321B3F97D
:1019600090000022CDF800A002ABFFF791FEC11756
:10197000002908BF082809D0164B024601934FF4EE
:101980008063304600930B463946AFE70025DBF80D
:101990000030002D93F88C4008BF082C04D00D4B6C
:1019A000019340F2014371E7524603F1840102A81A
:1019B00009F0EEFD0246C317002899D005494046BC
:1019C000019140F20341009149468FE78ECA200001
:1019D000AC0A0020DBEA2000B816002078CD2000F9
:1019E000B01000202DE9F04F0625704BDFF8D0A194
:1019F00018689B8887B0ADF81430DAF8003004908E
:101A00000221B3F990000022009504ABFFF740FEDD
:101A1000C117002908BF062809D0654B024601936B
:101A200040F2C933062000930B4600210FE0002747
:101A3000DAF80030002F93F88C6008BF062E0BD028
:101A40005B4B3246019340F2CA3300933B4603F0AE
:101A5000E5FB07B0BDE8F08F2A4603F1840104A836
:101A600009F096FD80464FEAE07940B1504B0246BE
:101A700001934FF47373002000934B46D5E7022483
:101A8000DFF840B10022DBF800302146B3F99000C6
:101A900004AB0094FFF7FCFDC317002B08BF02281E
:101AA000024606D0424901914FF474710091022020
:101AB000BBE70023DBF80010002B91F88C2008BF57
:101AC000082A06D03A490820019140F2D23100910B
:101AD000ABE708228431374809F05AFD0246C317A4
:101AE000CDE9022348B1324B4046019340F2D53351
:101AF00049460093DDE90223A9E72A462E4904A8B6
:101B000009F055FDDAF800302146B3F990000022C3
:101B1000009504ABFFF7BCFDC117002908BF0628DC
:101B200009D0234B0246019340F2DB333046009349
:101B30000B4639468BE70023DAF80060002B96F855
:101B40008C2008BF062A05D0194C01944FF47774F5
:101B500000947CE72A4606F1840104A809F018FDE8
:101B60000246C31738B11249019140F2DE310091AB
:101B7000DDE902016BE72246104904A809F017FDD0
:101B8000DBF800300022B3F99000214604AB00944A
:101B9000FFF77EFDC317002B08BF022802463FF463
:101BA00058AF0349019140F2E3317FE788CA200032
:101BB000DBEA200080CD20005ACD200076CD200029
:101BC000AC0A0020B01000201FB50122144C04AB59
:101BD000216803F8012DB1F9900000924021002204
:101BE000FFF756FDC317002B08BF012802460AD095
:101BF0000C490120019140F2BB310091002103F01A
:101C00000DFB04B010BD2368D3F88030DB05F8D499
:101C1000044A4FF46F71044803F0A0FCF1E700BFE1
:101C2000B8160020DBEA2000A8E920004DF66A7310
:101C3000F0B5022585B0244E04AC24F8023D33688B
:101C40002A46B3F99000112123460095FFF720FDA5
:101C5000C317002B08BF022802460AD01B490220E6
:101C600001914FF46B710091002103F0D7FA05B098
:101C7000F0BD002100273368BDF80E00B3F87C608A
:101C8000B94208BFB04207D0104B3246019340F230
:101C9000AD3300933B46E8E7B3F9900000222346BA
:101CA00011210095FFF7F4FC4FF0FF310246C317F6
:101CB0006FF085008B4208BF8242D8D0034C01945C
:101CC00040F2B1340094D0E7B8160020DBEA2000DF
:101CD0001FB55922174C04AB03F8012D22680721C8
:101CE000B2F99000012200920022FFF7D1FCC31745
:101CF000002B08BF012802460AD00F49012001919C
:101D00004FF45B710091002103F088FA04B010BD1C
:101D10002368002193F88E2000239DF80F0099423C
:101D200008BF9042F2D0044C019440F26D3400940C
:101D3000EAE700BFB8160020DBEA200013B54FF435
:101D400001740194049C009405F0EEF902B010BDFA
:101D50007FB508262F4B03211B680022B3F99000A2
:101D600000960DEB0603FFF7E9FF4FF0FF31044645
:101D7000C5176FF085008D4208BF84420AD0264BFC
:101D8000224601934FF4567300932B4603F046FA14
:101D900004B070BD214B00221B680321B3F99000F1
:101DA00002AB0096FFF7CAFFC317002B08BF082835
:101DB000024607D01849082001914FF4577100914D
:101DC0000021E3E7324602A9154809F0E1FB02468B
:101DD000C31730B110490020019140F25E310091EB
:101DE000EEE7104B00221B680321B3F9900002AB11
:101DF0000096FFF7A3FFC317AB4208BFA0420246FD
:101E0000C6D005492046019140F262310091294631
:101E1000BCE700BFAC0A0020DBEA2000B0100020C5
:101E20006ECD2000B81600207FB508262A4B002270
:101E30001B680221B3F990000DEB06030096FFF733
:101E40007DFFC317002B08BF062802460AD023498E
:101E50000620019140F246310091002103F0DEF9A5
:101E600004B070BD062202A91D4809F091FB04468A
:101E7000C51740B1194B0246019340F24733002089
:101E800000932B46E9E7174B00221B680221B3F9A8
:101E9000900002AB0096FFF751FFC317002B08BF5D
:101EA0000228024606D00D490220019140F24B3132
:101EB0000091D2E7022202A90B4809F069FB024611
:101EC000C3170028CCD005492046019140F24D317E
:101ED00000912946C2E700BFAC0A0020DBEA2000DF
:101EE00054CD2000B01000206CCD20002DE9FF4122
:101EF0004FF001083F4B00221B684021B3F99000CE
:101F0000CDF800800DF10F03FFF718FFC717002F62
:101F100008BF012806460DD0374B0246019340F218
:101F20002F33012000933B46002103F077F904B0E2
:101F3000BDE8F08100259DF80F4054EA050308D064
:101F40002D4B224601934FF44C73002000932B46F7
:101F5000EAE72A4B40211B680022B3F99000CDF834
:101F600000800DF10F03FFF7E9FEC117002908BF3C
:101F7000012809D0204B024601934FF44D73009382
:101F80000B4630463946D0E700279DF80F60002FFA
:101F900008BF012E07D0184B3246019340F235336B
:101FA00000933B46C1E7164B00221B684021B3F962
:101FB00090000DF10F03CDF80080FFF7BFFEC317AF
:101FC000002B08BF0128024605D00B49019140F2C1
:101FD00039310091D5E700239DF80F2052EA030123
:101FE000A5D005492046019140F23A310091294699
:101FF0009BE700BFAC0A0020DBEA2000B010002005
:10200000B81600202DE9FF474FF0020A804E5246D5
:1020100033681121B3F99000CDF800A00DF10E0343
:10202000FFF78CFE4FEAE079B9F1000F08BF0228F4
:10203000804608D0774B0246019340F20B33009361
:102040004B46022096E00025002140F2DC50BDF80E
:102050000E408D4208BF84420BD06E4B2246019346
:102060004FF4437300932B4603F0D8F804B0BDE857
:10207000F08733684FF6FF72B3F990001121CDF865
:1020800000A00DF10E03FFF759FEC717002F08BF80
:102090000228064609D05F4B024601934FF4447371
:1020A0004046009349463B46DEE70023BDF80E203C
:1020B000AB4208BFA24207D05649019140F211310C
:1020C000009120462946CFE7DFF850815246D8F8E4
:1020D00000301121B3F99000CDF800A00DF10E03EE
:1020E000FFF72CFEC517002D08BF0228044609D0B3
:1020F000484B0246019340F2153300932B4630467D
:102100003946B1E70023BDF80E20002B08BFB2F519
:10211000A06F07D03F49019140F2163100914FF472
:10212000A06027E0D8F800304FF6FF72B3F99000B6
:102130001121CDF800A00DF10E03FFF7FFFDC71729
:10214000002F08BF0228064607D0324B02460193F3
:1021500040F21A3300933B46B3E70023BDF80E204C
:10216000002B08BF662A07D02A496620019140F259
:102170001B310091002177E7274C5246236811213B
:10218000B3F990000DF10E03CDF800A0FFF7D6FDD6
:10219000C317002B08BF0228024605D01D49019134
:1021A00040F21F310091AAE70023BDF80E20002B5A
:1021B00008BFB2F5A06F04D0164901914FF44871E1
:1021C000ACE723684FF6FF72B3F9900002231121A8
:1021D00000930DF10E03FFF7B1FDC317002B08BFED
:1021E0000228024605D00B4901914FF44971009134
:1021F00027E70023BDF80E20002B08BFB2F5A06F23
:102200003FF434AF0349019140F2253186E700BF26
:10221000AC0A0020DBEA2000B8160020B010002035
:102220002DE9F04708244FF0020A6C4B8AB01B6876
:102230000022B3F990002146009408ABADF81EA02F
:10224000FFF77CFDC717002F08BF0828064609D0F6
:10225000634B0246019340F2E523082000933B467E
:10226000002141E022465F4908A809F091F90246A1
:10227000C317CDE9022340B1594B0020019340F22E
:10228000E7230093DDE90223EAE7574D00222B689C
:102290002146B3F99000009408ABFFF74FFD4FEAD9
:1022A000E079B9F1000F08BF0828804609D04C4BEF
:1022B0000246019340F2EA2300934B4630463946EA
:1022C00012E02246494908A809F062F90246C317FC
:1022D000CDE9042368B1DDE90201414B01934FF4DC
:1022E0003B730093DDE9042302F098FF0AB0BDE8D8
:1022F000F0872B680022B3F990000521CDF800A0EB
:102300000DF11E03FFF7C4F9C717002F08BF0228FD
:10231000064608D0324B0246019340F2F1230220D8
:1023200000933B469CE72B680022B3F990002146BE
:1023300008AB0094FFF702FDC317002B08BF082865
:10234000024607D026494046019140F2F52100910E
:102350004946C9E72246264908A809F019F9024664
:10236000C31738B11E49019140F2F7210091DDE910
:102370000401B9E72B680022B3F9900005210DF1A3
:102380001E03CDF800A0ADF81E40FFF781F9C3177A
:10239000002B08BF0228024605D01149019140F2E6
:1023A000FE2100918AE7134B00221B682146B3F9F6
:1023B000900008AB0094FFF7C1FC4FF0FF310246DC
:1023C000C3176FF085008B4208BF82428ED0044C49
:1023D000019440F20134009486E700BFAC0A00206B
:1023E000DBEA200030CD2000B0100020DCCF200040
:1023F000BCCF2000B81600201FB5174C0022236860
:102400000721B3F99000012300930DF10F03FFF7AB
:1024100095FCC317002B08BF012802460AD00F49BC
:10242000012001914FF42C710091002102F0F6FE81
:1024300004B010BD2368002193F88E0000239DF89E
:102440000F20994208BF9042F2D0044C019440F210
:10245000B1240094EAE700BFB8160020DBEA2000B0
:1024600010B586B00E2200210DF10A0009F0C3F864
:1024700040F2FF23ADF8083001231B4C02A920686D
:102480008DF8173005F014FD002806DB40F28F317F
:10249000164A174803F062F818E023680022B3F9DF
:1024A000900010230C21009302ABFFF7F1F8C31743
:1024B000002B08BF102802460AD00C4910200191B9
:1024C00040F293310091002102F0A8FE06B010BD49
:1024D00002A9206805F0ECFC0028F7DA034A4FF463
:1024E00065710448D6E700BFB8160020DBEA20007B
:1024F00034EA200065EA20000D4B07B50D49186845
:1025000005F0D6FCC317591C08BFB0F1FF3F0246C7
:102510000AD009494FF0FF30019140F26E2100913D
:102520004FF0FF3102F07AFE03B05DF804FB00BF0C
:10253000B8160020C8CB2000DBEA20000D4B07B501
:102540000D49186805F0B4FCC317591C08BFB0F159
:10255000FF3F02460AD009494FF0FF30019140F297
:10256000662100914FF0FF3102F058FE03B05DF894
:1025700004FB00BFB816002029EE2000DBEA200093
:102580000D4B07B50D49186805F092FCC317591C8F
:1025900008BFB0F1FF3F02460AD009494FF0FF30B3
:1025A00001914FF4187100914FF0FF3102F036FEA7
:1025B00003B05DF804FB00BFB8160020D9ED200081
:1025C000DBEA200070B586B002AA15461F4B03F166
:1025D0001006144618685968083303C4B3422246EB
:1025E000F7D11B4C2946206805F0C2F9002806DB0C
:1025F00040F27631174A184802F0B0FF19E023681C
:1026000044F21002B3F990001023092100932B46E5
:10261000FFF73EF8C317002B08BF102802460AD068
:102620000C491020019140F27A310091002102F012
:10263000F5FD06B070BD2946206805F099F900281F
:10264000F7DA044A40F27B310448D5E796CA200005
:10265000B8160020DBEA2000D3E9200003EA2000BE
:102660000D4B07B50D49186805F082F9C317591CC1
:1026700008BFB0F1FF3F02460AD009494FF0FF30D2
:1026800001914FF49E7100914FF0FF3102F0C6FDB1
:1026900003B05DF804FB00BFB816002029EE20004F
:1026A000DBEA20000D4B07B50D49186805F060F90D
:1026B000C317591C08BFB0F1FF3F02460AD00949B1
:1026C0004FF0FF3001914FF49B7100914FF0FF31BB
:1026D00002F0A4FD03B05DF804FB00BFB8160020B3
:1026E000E8CA2000DBEA2000D0F8802010B4D2072E
:1026F0000B4606D590F88C2000F1840110BC05F043
:1027000011BD6FF0850010BC704700002DE9F04F3F
:102710000225684B89B006A91868ADF81650FFF776
:10272000E3FFC717002F08BF0828064609D0624BF1
:102730000246019340F28F23082000933B4600217C
:102740003BE008225D4906A808F022FF82464FEAD6
:10275000E07B40B1584B0246019340F291230020A8
:1027600000935B46EBE7564C06A92068FFF7BCFFD9
:102770004FEAE079B9F1000F08BF0828804609D078
:102780004D4B0246019340F2932300934B46304653
:10279000394612E008224B4906A808F0F9FE024625
:1027A000C317CDE9022368B1434B50460193594604
:1027B00040F295230093DDE9022302F02FFD09B0DA
:1027C000BDE8F08F23680022B3F990000521009541
:1027D0000DF11603FEF75CFFC717002F08BF022894
:1027E000064608D0344B0246019340F29A23022059
:1027F00000933B46A3E706A92068FFF775FFC317C0
:10280000002B08BF0828024607D02B4940460191FB
:102810004FF4277100914946CFE708222A4906A8BC
:1028200008F0B6FE0246C31738B12349019140F2C1
:102830009D210091DDE90201BFE70823ADF81630C4
:1028400023680022B3F9900005210DF116030095CD
:10285000FEF71EFFC317002B08BF0228024622D135
:102860001A4E06A93068FFF73FFF4FF0FF356FF0B3
:102870008504C317AB4208BFA042024609D106A98E
:102880007068FFF731FFC317AB4208BFA042024692
:1028900095D009496FF08500019140F2A621009181
:1028A0004FF0FF3189E7044901914FF429710091FC
:1028B0006DE700BFAC0A0020DBEA200020CD20003D
:1028C000B0100020CCCF2000B4CF2000B8160020DC
:1028D00030B587B00E2200210DF10A0008F08BFE02
:1028E00040F2FF23ADF8083001230324174D8DF883
:1028F000173002A9286805F083F9002807DA144A7E
:1029000040F22621134802F029FE07B030BDBDF881
:102910001630013C03F10103ADF81630E9D102A9EC
:10292000286805F06DF94FF0FF310246C3176FF0CC
:102930000B008B4208BF8242E7D0054C019440F265
:102940002924009402F06AFCDFE700BFB8160020DB
:10295000DBEA200059E72000F7B5234D1023402281
:102960002249286804F07AFF041E08DA40F20111B7
:102970001F4A204803B0BDE8F04002F0EFBD10232D
:1029800040221A49286804F069FFE717C3179F42DD
:1029900008BF844202460AD015492046019140F200
:1029A00005110091394602F039FC03B0F0BD2968E9
:1029B0000B191A7C0023002B08BF102A07D00C49E2
:1029C0001020019140F2071100910021EBE701EB8B
:1029D00004111231054807F08FFA0028E5D1044AA6
:1029E0004FF484710448C5E7B8160020C8CA200017
:1029F000DBEA2000A3E2200012E3200070B586B0DD
:102A000002AA1546204B03F11006144618685968AF
:102A1000083303C4B3422246F7D11C4CFFF79CFF96
:102A20002946206804F0A4FF002806DA40F283312A
:102A3000174A184802F092FD18E023680022B3F903
:102A4000900010230A2100932B46FEF721FEC317A6
:102A5000002B08BF102802460AD00D491020019112
:102A600040F287310091002102F0D8FB06B070BD22
:102A70002946206804F07CFF0028F7DB044A4FF465
:102A800062710548D6E700BF96CA2000B81600203C
:102A9000DBEA200003EA2000D3E920001FB5FFF79E
:102AA0005BFF154B00221B680B21B3F9900002233A
:102AB000009303ABFFF742F9C317002B08BF0128AF
:102AC00002460BD00D490120019140F2C92100912D
:102AD000002102F0A3FB05B05DF804FB00239DF884
:102AE0000C20002B08BF102AF5D0044910200191BA
:102AF00040F2CB210091EBE7B8160020DBEA200082
:102B000000B58BB0FFF728FF144B00221B6809218A
:102B1000B3F990002023009302ABFFF70FF9C3171E
:102B2000002B08BF102802460BD00D491020019140
:102B300040F2BD210091002102F070FB0BB05DF866
:102B400004FB02A9074807F0D7F90028F6D1044A88
:102B500040F2BE21044802F001FDEFE7B816002064
:102B6000DBEA200044CD20004BE9200007B5FFF749
:102B7000F3FE0D4B0D49186804F0FAFEC317591CFB
:102B800008BFB0F1FF3F02460AD009494FF0FF30BD
:102B900001914FF4A67100914FF0FF3102F03EFB1E
:102BA00003B05DF804FB00BFB816002028CC20005D
:102BB000DBEA200007B5FFF7CFFE0D4B0D49586843
:102BC00004F0D6FEC317591C08BFB0F1FF3F024600
:102BD0000AD009494FF0FF3001914FF4A2710091E2
:102BE0004FF0FF3102F01AFB03B05DF804FB00BFA9
:102BF000B8160020F8CA2000DBEA200070B586B0C5
:102C000002AA1546214B03F11006144618685968AC
:102C1000083303C4B3422246F7D11D4C102340228F
:102C20002946206804F01AFE00280CDBBDF80E309F
:102C300040220133ADF80E3029461023206804F0FD
:102C40000DFE002806DA134AF421134802F086FC30
:102C500006B070BDBDF80E3040220133ADF80E3025
:102C600029461023206804F0F9FD4FF0FF31024699
:102C7000C3176FF00B008B4208BF8242E8D0054CAF
:102C80000194F824009402F0C9FAE1E7A6CA2000F2
:102C9000B8160020DBEA2000CCE1200007B5FFF7E2
:102CA0005BFE0D4B0D49186804F07AFEC317591CE2
:102CB00008BFB0F1FF3F02460AD009494FF0FF308C
:102CC000019140F2711100914FF0FF3102F0A6FA2C
:102CD00003B05DF804FB00BFB816002038CC20001C
:102CE000DBEA200007B5FFF737FE0D4B0D495868AA
:102CF00004F056FEC317591C08BFB0F1FF3F02464F
:102D00000AD009494FF0FF30019140F2691100915A
:102D10004FF0FF3102F082FA03B05DF804FB00BF10
:102D2000B816002028CB2000DBEA20000D4B07B5A9
:102D30000D49186804F034FEC317591C08BFB0F1E0
:102D4000FF3F02460AD009494FF0FF30019140F29F
:102D5000611100914FF0FF3102F060FA03B05DF8AD
:102D600004FB00BFB816002029EE2000DBEA20009B
:102D70000D4B07B50D49186804F012FEC317591C16
:102D800008BFB0F1FF3F02460AD009494FF0FF30BB
:102D9000019140F25B1100914FF0FF3102F03EFAD9
:102DA00003B05DF804FB00BFB816002018CB20006C
:102DB000DBEA2000F7B51E4D102340221D4928688C
:102DC00004F04CFD041E08DA4FF4CC711A4A1B487B
:102DD00003B0BDE8F04002F0C1BB1949286804F017
:102DE000DFFDE717C3179F4208BF844202460AD09F
:102DF00011492046019140F299110091394602F0A3
:102E00000DFA03B0F0BD2868240112340C492044A7
:102E100007F087F80023C2B2002B08BF402AF0D089
:102E200005494020019140F29B1100910021E6E705
:102E3000B816002058CB2000DBEA2000A3E22000D7
:102E40008FD12000F7B51E4D102340221D49286860
:102E500004F004FD041E08DA4FF4C5711A4A1B4839
:102E600003B0BDE8F04002F079BB1949286804F0CE
:102E700097FDE717C3179F4208BF844202460AD056
:102E800011492046019140F28B110091394602F020
:102E9000C5F903B0F0BD2868240112340C49204460
:102EA00007F03FF80023C2B2002B08BF172AF0D06A
:102EB00005491720019140F28D1100910021E6E7AC
:102EC000B816002048CB2000DBEA2000A3E2200057
:102ED0007FD12000F7B51E4D102340221D492868E0
:102EE00004F0BCFC041E08DA4FF4BE711A4A1B48F9
:102EF00003B0BDE8F04002F031BB1949286804F086
:102F00004FFDE717C3179F4208BF844202460AD00D
:102F100011492046019140F27D110091394602F09D
:102F20007DF903B0F0BD2868240112340C49204417
:102F300006F0F7FF0023C2B2002B08BF122AF0D020
:102F400005491220019140F27F1100910021E6E72E
:102F5000B816002038CB2000DBEA2000A3E22000D6
:102F60006FD1200013B50F4CFFF7F6FC0E49206817
:102F700004F09EFE0C49206804F0FAFCC317591CAB
:102F800008BFB0F1FF3F02460AD008494FF0FF30BA
:102F9000019140F22F1100914FF0FF3102F03EF904
:102FA00002B010BDB8160020D8CA2000DBEA20000D
:102FB000F0B585B002A9394804F0C8FA00250446E6
:102FC00040B1374B02460193DD23002000932B468E
:102FD000002141E002A9334804F0B8FA0023002B95
:102FE00008BF0628024605D02D4906200191DF21A1
:102FF0000091EDE7062202A92B4808F0C9FA06461F
:10300000C71740B1264B02460193E12300933B468C
:103010002046294620E002A9244804F097FA00231C
:10302000002B08BF0828024605D01D490820019141
:10303000E4210091CCE708221D480DEB020108F0C5
:10304000A7FA0446C51758B1154B02460193E6236B
:103050003046009339462B4602F0E0F805B0F0BD4B
:1030600002A9144804F072FA0023002B08BF0228BA
:10307000024605D00A4902200191E8210091A7E704
:10308000022202A90C4808F083FA0246C31700285E
:10309000E4D003490191EA210091B9E7F2C8200088
:1030A000DBEA200016DA20003ECD200028DA2000DE
:1030B000ECCF200022DA2000F6CF200070B586B0D9
:1030C0006E4600213246084604F01AFAB042054620
:1030D00006D0C321344A354802F040FA06B070BD2C
:1030E0000146334802F080FA30B1C42229462E4B03
:1030F0002F4802F0C3F8F1E72A4606212D4804F0D4
:10310000FFF9A842044603D0274AC6212A48E3E72C
:1031100001462A4802F068FA20B1234BC722214613
:103120002648E6E722460821254804F0E9F9A042AE
:10313000054603D01C4ACA212248CDE70146224851
:1031400002F052FA20B1184BCB2229461E48D0E794
:103150002A4602211D4804F0D3F9A842044603D0B0
:10316000114ACE211A48B7E701461A4802F03CFA44
:1031700020B10D4BCF2221461648BAE7224608213E
:10318000154804F0BDF9844203D0074AD221134800
:10319000A2E73146124802F027FA00289ED0024BDF
:1031A000D32231460E48A4E7DBEA200040DA2000B3
:1031B000F2C8200038CD20006CDA200016DA20009A
:1031C000E4CF2000B9DA200028DA2000F4CF200074
:1031D00014DB200022DA20005FD1200071DB200008
:1031E000BADB200037B5254C206880B102220021CF
:1031F000103008F000FA206820220021123008F078
:10320000FAF9206830220021323008F0F4F91C4C21
:10321000206880B102220021103008F0ECF920680B
:1032200020220021123008F0E6F920683022002127
:10323000323008F0E0F90024124D55F8240090B126
:1032400002220021103008F0D6F955F8240020227F
:103250000021123008F0CFF955F824003022002167
:10326000323008F0C8F934B1684601F09DFF0028FB
:10327000FADC03B030BD0124DFE700BFAC0A002058
:10328000B0100020B816002040F2022203F072BFF6
:1032900008B502490320FDF70BFD00BF3FCA20001F
:1032A00008B5084B1B68834208D1022A01D0FFF7FA
:1032B000EFFF10460988044B198008BD6FF08500A8
:1032C000FBE700BF240200201202002008B5084BD3
:1032D0001B68834208D1022A01D0FFF7D9FF1046AC
:1032E000044B1B880B8008BD6FF08500FBE700BF17
:1032F0002402002012020020084B10B51B6814465F
:10330000834208D1082A01D9FFF7C2FF044808F018
:103310004EF9204610BD6FF08500FBE72402002027
:103320001402002008B50B460849096881420AD1F9
:10333000072A01D8FFF7ACFF08220549184608F014
:1033400036F9082008BD6FF08500FBE72402002055
:10335000140200200E4B10B51B681446834208D19E
:10336000062A01D9FFF794FF0A4808F020F9204601
:1033700010BD094B1B68834207D1022A03D90749B4
:103380000320FDF795FC0648EFE76FF08500EFE7B7
:10339000200200200C020020240200203FCA20004E
:1033A0001C02002008B503460846104909689942E6
:1033B00009D1052A01D8FFF76BFF06220C4908F056
:1033C000F6F8062008BD0B49096899420BD1012A7D
:1033D00003D809490320FDF76BFC0222074908F0D6
:1033E000E6F80220EEE76FF08500EBE72002002010
:1033F0000C020020240200203FCA20001C020020F2
:1034000073B51A4E1A49306804F0FAFB002808DA3E
:103410004FF41071174A184802B0BDE8704002F02E
:103420009DB81649306804F0EBFB041E04DA114A1B
:1034300040F242211248EFE70D49306804F018FCD1
:103440000E49306804F0DCFBE517C3179D4208BF46
:103450008442024608D007492046019140F24621A5
:103460000091294601F0DAFE02B070BDB8160020C6
:10347000D9ED2000DBEA200094E72000E9ED2000F0
:10348000E9E72000F7B51A4D1A49286804F0B8FB9F
:10349000041E08DA40F23121174A184803B0BDE88B
:1034A000F04002F05BB81349286804F0A9FBE71765
:1034B000C3179F4208BF844202460AD00E492046E5
:1034C000019140F235210091394601F0A7FE03B089
:1034D000F0BD2401296832342144064806F00CFD71
:1034E0000028F4D1044A40F237210548D6E700BF4E
:1034F000B8160020D9ED2000DBEA200048E82000C3
:10350000A5E8200010B586B00E2200210DF10A00BA
:1035100008F071F840F2FF23ADF8083001231C4C8D
:103520008DF81730FFF7AEFF02A9206804F0C0FC49
:10353000002806DA4FF46771164A174802F00EF8B1
:1035400018E023680022B3F9900010230D210093A6
:1035500002ABFEF79DF8C317002B08BF10280246E8
:103560000AD00C49102001914FF46871009100219C
:1035700001F054FE06B010BD02A9206804F098FCCA
:103580000028F7DB034A40F2A1310448D6E700BF28
:10359000B8160020DBEA200065EA200034EA2000AB
:1035A00000B58FB0FFF76EFF144B00221B680C2193
:1035B000B3F990003023009302ABFEF7BFFBC317B3
:1035C000002B08BF102802460BD00D491020019196
:1035D00040F2D6210091002101F020FE0FB05DF8ED
:1035E00004FB02A9074806F087FC0028F6D1044A2C
:1035F00040F2D721044801F0B1FFEFE7B8160020F0
:10360000DBEA2000D9ED20006CE9200007B5FFF7C8
:1036100039FF0D4B0D49186804F04AFCC317591CBB
:1036200008BFB0F1FF3F02460AD009494FF0FF3012
:1036300001914FF41F7100914FF0FF3101F0EEFD49
:1036400003B05DF804FB00BFB8160020E9ED2000D0
:10365000DBEA200007B5FFF715FF0D4B0D49586851
:1036600004F026FCC317591C08BFB0F1FF3F024607
:103670000AD009494FF0FF30019140F275210091C5
:103680004FF0FF3101F0CAFD03B05DF804FB00BF4D
:10369000B8160020D9ED2000DBEA200013B50F4C4E
:1036A000FFF7F0FE0E49206804F0E2FA0C492068AA
:1036B00004F0FEFBC317591C08BFB0F1FF3F0246E0
:1036C0000AD008494FF0FF30019140F25A21009191
:1036D0004FF0FF3101F0A2FD02B010BDB81600207E
:1036E000D9ED2000DBEA200008B5FFF7CBFE084B40
:1036F0000849186804F0DCFB002807DABDE8084038
:10370000054A40F28221054801F028BF08BD00BFEC
:10371000B8160020D9ED2000DBEA20000EE72000DB
:1037200010B5154CFFF7AEFE1449206804F0C0FB3D
:10373000002804DA40F24D21114A124809E01249EA
:10374000206804F05DFA002807DA40F24F210C4AA5
:103750000E48BDE8104001F001BF0B49206804F09D
:1037600087FA0649206804F0A3FB002803DA044A1C
:1037700040F25221E1E710BDB8160020D9ED20003B
:10378000DBEA20000EE72000E9ED2000F4E820004D
:1037900008B5FFF7E1F8084B0849186804F0E8F8A5
:1037A000002807DABDE80840054A4FF4AA71054829
:1037B00001F0D4BE08BD00BFB816002008CB200021
:1037C000DBEA200045E6200008B5064804F0F2F9DF
:1037D00038B1BDE80840044A40F2F911034801F04D
:1037E000BDBE08BD29EE2000DBEA20008DE12000EF
:1037F00008B5064804F0DEF938B1BDE80840044ACF
:103800004FF4FA71034801F0A9BE08BD88CB20002F
:10381000DBEA200033E1200010B5FFF79DF80B4BE9
:103820001C683CB94FF4F671094A0A48BDE81040DB
:1038300001F094BE084804F0A5F9844204D0044A7B
:1038400040F2ED110548F1E710BD00BFB8160020A9
:10385000DBEA2000FCDF200078CB200010E0200015
:1038600008B5064804F08EF938B1BDE80840044AAE
:103870004FF4F271034801F071BE08BD29EE20003B
:10388000DBEA200040E0200008B5064804F07AF9A1
:1038900038B1BDE80840044A40F2DF11034801F0A6
:1038A0005DBE08BD68CB2000DBEA2000CBDF200036
:1038B00013B5244CFFF750F810234022224920680A
:1038C00003F0CCFF002808DA4FF4E8711F4A2048C3
:1038D00002B0BDE8104001F041BE21680B181A7C0F
:1038E0000023002B08BF102A0AD01849102001918C
:1038F0004FF4E9710091002101F090FC02B010BD7D
:1039000001EB00111231104806F0F6FA20B90F4A07
:1039100040F2D3110F48DBE70F490022206804F082
:1039200057F8014620B9094A40F2D7110B48CFE7B2
:10393000054806F0E1FA0028E0D1044A4FF4EC71A2
:103940000748C5E7B81600203CEB2000DBEA200062
:10395000DBE420004DE520002CEB200084E5200076
:10396000D0E5200010B5FEF7F7FF174B00221749EE
:10397000186804F02DF8044638B940F2BF11144A13
:103980001448BDE8104001F0E9BD01460F4806F0BB
:10399000B3FA20B10E4A4FF4E0710F48F1E72378F3
:1039A000FF2B04D10A4A40F2C1110C48E9E710226A
:1039B0000B49204607F0ECFD20B9054A4FF4E171B0
:1039C0000848DEE710BD00BFB81600204FD1200028
:1039D000DBEA200033E420007FE420009FE42000A5
:1039E00029EE2000BCE4200008B5084B002208495D
:1039F000186803F0EDFF38B1BDE80840054A4FF400
:103A0000DA71054801F0AABD08BD00BFB816002054
:103A100029EE2000DBEA2000EFE5200010B51A4C6B
:103A2000FEF79AFF102340221849206803F016FF82
:103A3000002807DA4FF4D471154A1648BDE8104043
:103A400001F08CBD20680022134903F0C1FF044639
:103A500020B90F4A40F2AB111048EFE701460E487B
:103A600006F04AFA20B10A4A4FF4D6710C48E5E74D
:103A70002146064806F040FA20B9054A40F2AD1149
:103A80000848DBE710BD00BFB8160020F8CB2000C7
:103A9000DBEA200046E3200048CC2000AEE3200013
:103AA000F8E3200016E4200010B5134C1023402248
:103AB0001249206803F0D2FE002807DA40F21A21EA
:103AC0000F4A1048BDE8104001F048BD246824B9F1
:103AD0000B4A40F21B210C48F4E70C4804F06AF84A
:103AE000844204D0064A4FF407710948EAE7BDE86A
:103AF0001040FFF75FB900BFB8160020B8CB200018
:103B0000DBEA2000CCE12000FCDF2000BFD1200058
:103B100061E1200010B5134C1023402212492068A7
:103B200003F09CFE002807DA40F20E210F4A1048ED
:103B3000BDE8104001F012BD246824B90B4A40F2E0
:103B40000F210C48F4E70C4804F034F8844204D008
:103B5000064A4FF404710948EAE7BDE81040FFF750
:103B600071B900BFB8160020A8CB2000DBEA200006
:103B7000CCE12000FCDF2000AFD1200061E120007B
:103B800010B5134C102340221249206803F066FE42
:103B9000002807DA40F202210F4A1048BDE8104021
:103BA00001F0DCBC246824B90B4A40F203210C4824
:103BB000F4E70C4803F0FEFF844204D0064A4FF4B9
:103BC00001710948EAE7BDE81040FFF783B900BF7B
:103BD000B816002098CB2000DBEA2000CCE12000C2
:103BE000FCDF20009FD1200061E1200010B5164CC1
:103BF000FEF7B2FE1549206803F0BAFE002804DA89
:103C00004FF49171124A13480BE0102340221249DD
:103C1000206803F023FE002807DA4FF492710C4A63
:103C20000E48BDE8104001F099BC0B49206804F033
:103C30003FF80649206803F09BFE002803DA044A97
:103C40004FF49371DFE710BDB8160020E8CB2000D9
:103C5000DBEA200075E6200018CC2000A6E6200054
:103C600073B51D4E102340221C49306803F0F6FD49
:103C7000002808DA40F21311194A1A4802B0BDE8C8
:103C8000704001F06BBC102340221749306803F0EC
:103C9000E5FD041E04DA124A40F215111348EDE75F
:103CA0000E49306804F004F8102340220E493068B1
:103CB00003F0D4FDE517C3179D4208BF84420246B6
:103CC00008D007492046019140F219110091294678
:103CD00001F0A4FA02B070BDB8160020D8CB2000C5
:103CE000DBEA200046E3200008CC200033E220007D
:103CF00038B5184C2368B3F9900003F0F6FB23683D
:103D0000834206D0B421144A1448BDE8384001F07B
:103D100025BC134C2368B3F9900003F0E6FB23683D
:103D2000834212D10F4C2568B5F9900003F0DDFBFA
:103D3000854206D16468B4F9900003F0D6FB844252
:103D400007D0054AB7210848DFE7034AB5210748ED
:103D5000DBE738BDAC0A0020DBEA200082E020006F
:103D6000B0100020B816002000E12000BFE02000C5
:103D70002DE9F74F03F0ACFB0023024630B1A14917
:103D80000020019174210091002158E0002003F0EF
:103D900083FB054638B175219A4A9B4803B0BDE8BC
:103DA000F04F01F0DBBB994B02221B684FF4C0615E
:103DB00000939748974B04F0FFFA974C20602746F2
:103DC00018B9904A79219548E8E703F081FB002370
:103DD000002B08BF0128024605D08A4901917A21AB
:103DE00000910120D0E7284603F056FB18B97B214B
:103DF000844A8B48D2E703F04FFB18B17C21814AFB
:103E00008848CBE723681A681AB97E4A7D2186481C
:103E1000C4E75A681AB97B4A7E218448BEE7002568
:103E2000002140F2DC50B3F87C408D4208BF844250
:103E30000AD0744B224601937F2300932B4601F056
:103E4000EDF903B0BDE8F08F002193F88E00002952
:103E500008BF402807D06B4B019380230093024694
:103E60000B46402090E7002193F88F00002908BFFF
:103E7000032807D0634B024601938123032000935C
:103E80000B4681E7B3F99030002B03DC5D4A8221B9
:103E9000674883E7674C5F4854F82330A0469D6A23
:103EA000294601F0A1FB064640B184222946554B24
:103EB000584803B0BDE8F04F01F0E0B93B68B3F9F2
:103EC000903054F823301B6A1BB94E4A86215A4859
:103ED00064E75A4B02221B684FF4C06100935848B4
:103EE000584B04F0C9FB584D286018B9454A8B213E
:103EF000564853E703F0ECFA0023002B08BF0228D2
:103F0000024605D03F49022001918C2100913BE7F8
:103F1000304603F0C1FA10B93A4A8D2169E703F03F
:103F2000BBFA10B9374A8E2163E703F0B5FA10B136
:103F3000344A8F2164E72B681A681AB9314A9021F4
:103F400043482BE75A681AB92E4A9121414825E780
:103F50000021B3F87C00002908BFB0F5A06F08D09D
:103F6000284B0246019392234FF4A06000930B4626
:103F70000AE7002193F88D00002908BF662807D0C2
:103F8000204B024601939423662000930B46FBE6E8
:103F9000002193F88E00002908BF402803D0194B58
:103FA000019395235AE7002193F88F00002908BF59
:103FB000042807D0134B0246019397230420009353
:103FC0000B46E1E6B3F99030002B03DC0D4A982153
:103FD0002148E3E654F823301A489C6A214601F050
:103FE00003FB20B1074B9A222146164861E72B6854
:103FF000B3F9903058F823301B6A8BBB014A9C21DF
:104000001648CBE6DBEA2000D2DB200020020020AD
:10401000B00A0020F5DB2000AC0A0020F9DB20000C
:1040200083DC2000AADC2000D5DC2000F3DC2000AB
:1040300011DD2000E402002038DD200024020020F1
:10404000B410002071DD2000B010002076DD2000CB
:104050000BDE20002BDE20004BDE200074DE200073
:104060000326002704463F4DDFF828A13E4B0222DD
:1040700001935AF824304FF48061009305EB8420BB
:104080003A4B03F0C9F93A4B43F8240028B9394AAE
:10409000A221394882E60124E8E703681BB9354AC2
:1040A000A32136487AE643681BB9324AA421344832
:1040B00074E6002390F88E20002B08BF402A04D01D
:1040C0002C490191A5210091CBE6002390F88F2087
:1040D000002B08BF012A03D026490191A6217FE6C3
:1040E000B0F99030002B03DC224AA721254855E681
:1040F00058F823301B6A1BB91E4AA82122484DE6F6
:1041000003F0E6F900239F4208BF8642B346024609
:1041100006D0184930460191A921009139468EE612
:1041200000229146104603F0B7F9024610B9114A31
:10413000AB215EE609F10109CB45F3D803F0ACF9F8
:1041400010B10C4AAD215BE6013647F10007002CA7
:10415000A1D00E4B1B78002B7FF473AE054AAF2124
:104160000B481BE6C0160020E0CC2000A8EA200087
:10417000B8160020DBEA2000AFDE200037DF200089
:1041800050DF200069DF20008BDF2000B416002004
:10419000BFDF2000802800202DE9F04FCA4C89B0F5
:1041A00000F0F6FC2668DFF8908306F5177501210C
:1041B000284600F0D5FD2846C6F8388000F000FEFD
:1041C0002568012105F517742046C04F00F0C8FD91
:1041D0002046BF4CC5F84C7100F0F2FD2668012165
:1041E00006F51775284600F0BBFD2846C6F838804E
:1041F00000F0E6FD2668012106F51775284600F057
:10420000AFFD2846C6F84C7100F0DAFD26680121A2
:1042100006F51775284600F0A3FDAE4B2846F3635C
:1042200000F0CEFD2668012106F51775284600F03E
:1042300097FDA94B2846C6F8503100F0C1FD26680D
:10424000012106F51775284600F08AFDA34B284684
:10425000736400F0B5FD2568012105F5177420464B
:1042600000F07EFD9E4B2046C5F8583100F0A8FDB9
:1042700001F0EAF89B4801F0EFF801F0F7F89A4BEB
:10428000082218689B880690ADF81C3000239749D7
:10429000184604F08DFB964D0446002840F05E81E0
:1042A00040F27541934A944801F058F900230822DE
:1042B0008E49184604F07CFB0446002840F06281D9
:1042C00040F282418B4A8C4801F048F98B4E06AB94
:1042D000306871680B2203C300238949184604F033
:1042E00067FB884C0746002840F0658140F2914109
:1042F000804A814801F032F9DFF840820B22B8F899
:1043000000307F49ADF818300023184604F050FB08
:10431000CDF80C800746002840F0618140F29E41B4
:10432000744A754801F01AF93068716806AB03C326
:1043300000230B227249184604F03AFB4FF00209A1
:1043400008AF27F80C9D8046002840F05C8140F2C1
:10435000AD41684A684801F001F96B4B30681B8831
:104360007168ADF8143006AB03C300230B22644917
:10437000184604F01DFB0646002840F0928140F2EA
:10438000C3415C4A5C4801F0E9F8039B0B221B889F
:104390005B49ADF814300023184604F009FB0226EF
:1043A0008246ADF81860002840F08F8140F2D3417A
:1043B000504A514801F0D2F800230B2250491846C8
:1043C00004F0F6FA0646002840F0CB814FF49D61D8
:1043D000484A494801F0C2F800230B2248491846D0
:1043E00004F0E6FA4FF002088146ADF81880002884
:1043F00040F0D08140F2F9413E4A3F4801F0AEF82A
:1044000042F21933ADF81C300023404E08223749E0
:104410001846069604F0CCFA002840F0158240F2C7
:104420001651344A3A4801F099F8002308222F49DE
:10443000184604F0BDFA002840F02F8240F22F51B8
:104440002C4A334801F08AF8324B082207930023A4
:1044500026491846069604F0ABFA002840F04B8235
:1044600040F24E51234A2A4801F078F800230822EE
:104470001E49184604F09CFA002840F0658240F27C
:1044800067511C4A224801F069F8234807F044F9B3
:104490000E222249286800F05BFB214807F03CF916
:1044A00015222049206800F053FB1F4807F034F91B
:1044B00012221E49286800F04BFB1D4807F02CF91A
:1044C00019221C4920683BE02002002055332000BF
:1044D0002402002025332000F9322000CD322000B4
:1044E000A132200014EB2000B6CA200019D0200011
:1044F000AC0A0020DBEA2000F8CF2000BCCA200074
:1045000016D02000B0100020C6CA20003EE6B50F2D
:1045100021D020001922FD0B33D0200058CC2000E0
:1045200066D0200066CC20009ED020007BCC2000EE
:10453000D7D020008DCC2000A5332000C4CA200095
:1045400000F006FBBC4807F0E7F828683722BB49B3
:1045500000F0FEFA002009B0BDE8F08F002106232C
:10456000084606AA03F034FF014620B9B44A40F2D7
:104570007741B44898E62B680460B3F99000FEF7E1
:1045800083FE93E6002319461A46184603F020FFDF
:10459000014620B9AA4A40F28441AA4894E64268FA
:1045A000137963F07F0313712B680460B3F99000F3
:1045B000FEF76AFE8AE600210823084606AA03F0F1
:1045C00007FF014620B99E4A40F293419D4891E67B
:1045D00023680760B3F99000FEF756FE8CE60021D1
:1045E0000223084606AA03F0F3FE014620B9944AC6
:1045F0004FF49461934895E623680760B3F99000FF
:10460000FEF742FE90E623680022B3F990000521F0
:10461000CDF800903B46FDF73BF84FEAE07BBBF15D
:10462000000F08BF022882460BD0854B024601933B
:104630004FF496630220009300215B4600F0EEFDEC
:104640008BE600210823084606AA03F0C1FE0146B6
:1046500020B97B4A40F2B2417A487CE62368C0F830
:104660000080B3F99000FEF70FFE0823ADF8143078
:1046700023680022B3F9900005213B46CDF8009055
:10468000FDF706F8C317002B08BF022802463FF4C7
:1046900064AE6B495046019140F2B94100915946D0
:1046A000CCE70221082306AA384603F091FE014612
:1046B00020B9634A40F2C641624864E62368066056
:1046C000B3F99000FEF7E0FD5FE623680022B3F93E
:1046D00090000521009606ABFCF7DAFF4FEAE0797F
:1046E000B9F1000F08BF022880460BD0544B024698
:1046F000019340F2D6430220009300214B4600F084
:104700008DFD59E60021334608463A4603F060FE27
:10471000014620B94A4A4FF49B614A484AE6236859
:10472000C0F800A0B3F99000FEF7AEFD0823ADF885
:10473000183023680022B3F99000052106AB0096DB
:10474000FCF7A6FFC317002B08BF022802463FF460
:1047500033AE3B494046019140F2DF41009149466A
:10476000CDE7002319461A46184603F031FE0146EC
:1047700020B9334A40F2EA4132482BE642681379C5
:1047800063F07F03137123680660B3F99000FEF7AE
:104790007BFD21E623680022B3F990000521CDF8C6
:1047A000008006ABFCF774FFC717002F08BF022874
:1047B00006460BD0224B0246019340F2FC430220F6
:1047C000009300213B4600F029FD19E6002319461D
:1047D0001A46184603F0FCFD014620B9184A40F27B
:1047E000FE4118480AE64268137963F07F031371AB
:1047F0002368C0F80090B3F99000FEF745FD082348
:10480000ADF8183023680022B3F99000052106ABFB
:10481000CDF80080FCF73CFFC317002B08BF02282F
:1048200002463FF4EDAD06493046019140F2075192
:1048300000913946C7E700BF15D12000A6CC200063
:10484000DBEA200006D02000564A574901F048FA1A
:10485000074620B9554A40F21B515548E3E54FF44D
:104860000062436800219A803B229A712A680846B8
:1048700092F88E20DA71062306AA03F0A9FD0146FC
:1048800020B94A4A40F222514A48CCE52B680760D9
:10489000B3F99000FEF7F8FCC7E5474A474901F035
:1048A0001FFA074620B9414A40F235514048C9E550
:1048B0004FF4006243689A803B229A712A6892F80A
:1048C0008E20DA71002319461A46184603F080FD3F
:1048D000014620B9354A40F23B513648B2E54268BC
:1048E000137943F0400313712B680760B3F990000C
:1048F000FEF7CAFCA8E5324A324901F0F1F9064652
:1049000020B92A4A40F253512948ADE54FF40062DC
:10491000436800219A803B229A712268084692F8E7
:104920008E20DA71082306AA03F052FD014620B951
:104930001E4A40F25A511F4896E523680660B3F9B3
:104940009000FEF7A1FC91E51B4A1F4901F0C8F950
:10495000064620B9154A40F26D51154893E54FF4CB
:10496000006243689A803B229A71226892F88E20F6
:10497000DA71002319461A46184603F029FD01464C
:1049800020B90A4A40F273510A487CE5426813791B
:1049900043F04003137123680660B3F99000FEF7FB
:1049A00073FC72E5F8CC2000CFD12000DBEA2000B8
:1049B000F8CF200006D02000D9ED2000DFD1200064
:1049C00008CD2000EFD12000FFD12000094B10B509
:1049D00008461C6821B9002A00DD1960204610BD78
:1049E000944204D82246044906F0E1FDF6E76FF050
:1049F0006804F3E77C2E0020A028002008B50249B7
:104A00000320FCF755F900BF3FCA200008B5084B4A
:104A10001B68834201D0FFF7F1FF012A03D005494B
:104A20000320FCF745F9002310460B7008BD00BFBA
:104A3000240200203FCA2000022A08B501D0FFF757
:104A4000DDFFD0F8583223B940F2DC530B8002204E
:104A500008BD012B0CBF66234FF4A063F6E7022AC2
:104A600008B501D0FFF7CAFFD0F858321BB90323AD
:104A70000B80022008BD012B0CBF04230123F7E7A4
:104A8000436810B50BB9FFF7B9FF0221BDE810402C
:104A90001847000000232DE9F04105461A4C1B4839
:104AA00023600E4606F0B0FD194B1B68AB4213D1D4
:104AB000184806F0A9FD184806F02EFE40F2DC5713
:104AC000DFF85880206876B901461022134805F0B7
:104AD000EBFC2068BDE8F081114B1B68AB420CBFBA
:104AE00010481148E5E7B5682B18BB4209D82A469B
:104AF0007168404406F05BFD226836682A442260F3
:104B0000E0E76FF06800E5E77C2E00204CEB20002A
:104B1000200200205FEB200081EB2000A028002075
:104B20002402002069EB200078EB2000F8B50C4649
:104B30000646174600F5177528460C34012100F08B
:104B40000FF946F824702846BDE8F84000F038B95F
:104B500040F2DC539A4210B5446803D90949032056
:104B6000FCF7A6F8084B1A6001B912B1074806F025
:104B70001EFD6368002BF1D02046BDE810400021E7
:104B8000184700BF3FCA20007C2E0020A02800202C
:104B90002DE9F84F5A4C08215A4800F00BFB2068C9
:104BA000002105F075FC2668DFF880B106F5177561
:104BB0000121284600F0D4F8C6F820B0284600F0BD
:104BC000FFF82668DFF868A106F517750121284669
:104BD00000F0C6F8C6F824A0284600F0F1F82668D0
:104BE000DFF8509106F517750121284600F0B8F856
:104BF000C6F82C90444E284600F0E2F8434D324669
:104C000020682721FFF792FF2068414C2A46112196
:104C1000FFF78CFF2068012105F03AFCD4F80080F2
:104C2000012108F51777384600F09AF8C8F820B047
:104C3000384600F0C5F8D4F80080012108F5177750
:104C4000384600F08DF8C8F824A0384600F0B8F8CF
:104C5000D4F80080012108F51777384600F080F875
:104C6000C8F82C90384600F0ABF83246206827216F
:104C7000FFF75CFF2068274A1821FFF757FF2068DD
:104C8000254C2A4604F59867DFF8AC801121FFF720
:104C90004DFF38460221C8F8007005F0F9FB324696
:104CA00038462721FFF742FF04F5E4642A463846D8
:104CB0001121FFF73BFF20460321C8F8044005F00F
:104CC000E7FB324620462721FFF730FF2A462046E1
:104CD0001121FFF72BFF0020104B1149B3F90030D1
:104CE000104C114A0B81C1E90002C4E90002238182
:104CF00003F0E0FC2146BDE8F84F022003F0DABCE7
:104D000020020020402800205F4A2000394A20006D
:104D1000240200200D4A2000C01E0020365600202C
:104D200094280020882800200000FFFF954A2000DA
:104D3000CD492000814A20008028002008B505F0D8
:104D400035FCFBF785FE03F017FE03F0F3FF04F0DC
:104D500013F800F0A7FFBDE8084001F08BB8000091
:104D600070B504460D46FBF723FD236806463BB9A4
:104D70004FF0FF332360FBF723FD0125284670BD6C
:104D8000C5B10E4B02211D682846FBF7F3FA2368D4
:104D900001330AD105F1080323600023AB603046DC
:104DA000FBF70EFDFBF792FBE7E729462046FBF7F2
:104DB000CDFFF4E7FBF704FDE0E700BF9802002019
:104DC00070B50446FBF7F4FC256806461DB9BDE83E
:104DD0007040FBF7F5BC6B1C02D100232360F6E7A3
:104DE000284650F808390B212360FBF7C3FA2368E3
:104DF00013B94FF0FF33236015F8034C3046FBF72F
:104E0000DFFC2046BDE87040FBF7F4BAF8B5054674
:104E10000E46FBF7CDFC3B4B3B4A1B8807461BB2BB
:104E200052F823301A6A002A53D0D3E90542A2422D
:104E30004FD0621C5A61DA69144046B91A6932B916
:104E4000621C04D13846FBF7BBFC2046F8BD002CA1
:104E500043DB1A6A02EBC40292E8030085E8030010
:104E60001E69002E3BD03268002C1A610DDBD3E99D
:104E700006255969186A511A8D42B1BF4FF0FF32A9
:104E8000511C2A40996100EBC205736893E8030046
:104E900016F8043C85E80300052B18D000230B21ED
:104EA0007360A6F10800FBF765FA16F8034C384664
:104EB000FBF786FC0E2C23D82046FBF79BFA1FE05D
:104EC0001249FBF7F5FE3846FBF77AFC18E00F2491
:104ED000EDE74FF0FF34002EB0D0DD60C0E7002CCE
:104EE000F1DA18460321FBF745FA3846FBF768FC70
:104EF000FBF7ECFA064B1B681879C0B20328DFD029
:104F00000124A2E794020020E40200203FCA20000E
:104F10009802002010B5D0E9063244691C1BA24259
:104F200001DA002010BD5C1C13408461F9D4026AD0
:104F300003C902EBC30383E803000120F2E700008A
:104F40002DE9F8431E46264B074653F82150254BC2
:104F500091461B8803803DB93046FBF731FC4FF08A
:104F6000FF342046BDE8F8832B79032B2ED01E4B4F
:104F700001462846D3F80080FFF7CCFF044650B125
:104F80003046FBF71DFC98F80430052B01D1FBF7E8
:104F90009DFA0124E5E7B9F1000F03D13046FBF794
:104FA0000FFCDEE798F804304046052B0CBF0521C6
:104FB0000421C8F80C70FBF7DDF9414605F110003B
:104FC000FBF7C4FE3046FBF7FBFBE0E7EB6803C8EA
:104FD00083E803000B212846FBF7CCF9F2E700BF7A
:104FE000E4020020940200209802002038B5044614
:104FF000FBF7DEFB074B21461B8805462380064B4B
:105000001868FFF787FF04462846FBF7D9FB2046C0
:1050100038BD00BF940200209802002008B50F4B55
:1050200053F82130B3B1212202801A79032A0BD11F
:1050300003C8DA6882E8030018460B21FBF79AF9E7
:105040000120074B186008BD01461846BDE808401E
:10505000FFF760BF4FF0FF30F5E700BFE40200202C
:105060009C02002070B504460D46FBF7ACFB28B14E
:1050700029462046BDE87040FFF7D0BF094B1B888A
:105080001BB2AB4204D12046BDE87040FFF7AEBF73
:10509000FBF78EFB2946034601222046BDE87040FF
:1050A000FFF74EBF9402002070B504460D46FBF793
:1050B0008AFB064628B129462046BDE87040FFF726
:1050C000ADBF0A4B1B881BB2AB4204D12046BDE8E2
:1050D0007040FFF78BBFFBF76BFB32460346294658
:1050E0002046BDE87040FFF72BBF00BF94020020B0
:1050F0002DE9F041124F06463B880C461BB2934205
:10510000154603D10F490320FBF7D2FDFBF750FBF7
:1051100080463A880C4B12B253F82270052138466B
:10512000FBF728F996E80300FC60434684E8030097
:10513000012229462046BDE8F041FFF701BF00BF2C
:10514000940200203FCA2000E402002070B504460B
:105150000D46FBF72DFBB4F90020114B064653F822
:1051600022401CB90F490320FBF7A2FD2379052B30
:1051700004D0FBF725FB4FF0FF3070BDE36895E8E6
:10518000030083E803000B212046FBF7F3F8647962
:105190003046FBF715FB2046FBF72CF90120ECE726
:1051A000E40200203FCA20000021FFF72FBE0121AA
:1051B000FFF72CBE08B5074B4A1E1B68114018624A
:1051C00003D005490320FBF773FDC3E90511DA613C
:1051D00008BD00BF980200203FCA20000C4B0D4ABA
:1051E00010B59A60202200210B4C83F82220DA7738
:1051F00060180131932980F80023F9D11A6942F02F
:1052000010021A615A6942F400725A6110BD00BF5F
:1052100000ED00E00000200000E100E0F0B50646EF
:105220000F4614461D4695B0124906A800F0A8F98D
:105230000A236A463946304600F0ECF917226946DF
:1052400006A800F0B5F90C4906A800F0A2F90A2357
:105250006A462946204600F0DDF96946172206A86D
:1052600000F0A6F9DDE91A1206A800F077F915B0EA
:10527000F0BD00BF9CEB2000A1EB20002DE9F04326
:105280000E4691B0904699460746002843D000F05C
:10529000A3F905466EB3304600F09EF91A2D044678
:1052A0002CDD1A2822DCC4F134039D42A8BF1D4620
:1052B0001C49684600F064F92A463946684600F001
:1052C00077F91949684600F064F922463146684684
:1052D00000F06EF91549684600F05BF94A46414610
:1052E000684600F03BF911B0BDE8F0831A2425466A
:1052F000DEE71A284FF004040D4ED4DCC5F1340368
:105300009C42A8BF1C46D3E7304600F065F904254F
:105310000446074FF2E70029F6D10425044F2C4636
:105320003E46EBE78EEB200094EB200092EB200052
:1053300089EB20004068704770B5002405460E4692
:105340000E4B86B00193836802940393C36805945F
:1053500004932B69A34201DC06B070BD6B69314632
:1053600003EBC40253F8343001A8029353680134AC
:105370000593019B5B689847EBE700BFECEB2000CF
:1053800000697047704700000149024806F03CB9C7
:10539000A2C92000E3EB20002DE9FF41224C234D60
:1053A0000E46204629461746984606F02DF9204B12
:1053B000186803681B6898470146204606F024F9E0
:1053C0001C49204606F020F9336830461B68984790
:1053D0000146204606F018F91749204606F014F950
:1053E0000A99204606F010F91449204606F00CF9F7
:1053F00040466A460A23C11700F00CF96946204668
:1054000006F002F90E49204606F0FEF8394620461D
:1054100006F0FAF82946204606F0F6F80122094B74
:105420001A6004B0BDE8F081E3EB2000F1C8200071
:105430008C2E0020A2C92000D7EB2000DCF2200037
:10544000C0EB2000802E00200149024800F04AB93C
:10545000E8EB2000842E00200368024A5B680249C2
:10546000106018478C2E0020842E00201FB51D4C84
:10547000638823B31C491D4806F0C6F80A236A4610
:105480000021208800F0C6F86946184806F0BCF8EC
:105490001749164806F0B8F80A236A4600216088C2
:1054A00000F0B8F86946114806F0AEF811490F4807
:1054B00006F0AAF80122104B1A6004B010BD0F4983
:1054C0000A4806F0A1F80A236A462088002100F065
:1054D000A1F86946054806F097F80949034806F01F
:1054E00093F8EAE7842E0020C3EB2000E3EB2000D2
:1054F000C9EB2000F1C82000802E0020D4EB200052
:10550000DAEB200040687047012070472DE9F8432E
:105510000D4604460146284600F0E8F8A36803B1AA
:105520009847236963B10B4F0B4ED7F80090D6F81C
:1055300000803D6034609847C7F80090C6F800804E
:10554000E36803B1984721462846BDE8F84300F0D8
:10555000D6B800BF902E0020942E002007B50B4631
:1055600000920549024605480968006800F0CDF838
:1055700003B05DF804FB00BF942E0020902E0020A5
:105580000246013911F8013F02F8013B002BF9D125
:105590007047034610B51A785C1C3AB9013911F806
:1055A000012F03F8012B002AF9D110BD2346F2E7A1
:1055B000034630B51C785D1C64B952B101391A44F8
:1055C00011F8014F03F8014B0CB19342F8D10022BE
:1055D0001A7030BD2B46EDE7034613F8012B002A65
:1055E000FBD1181A0138704788420CD068B179B1E4
:1055F00010F8013B11F8012B934202D1002BF7D197
:105600001A46981A7047002070474FF0FF307047D5
:10561000012070472DE9F04F0A2B8BB0144601AEE4
:105620002F4F36D1002871F1000232DA4FF0000B13
:10563000B046C0F1000A504659460A22002305F040
:1056400001FE4546BB5C504605F8013B5946002328
:105650000A2205F0F7FD82468B465AEA0B0316D163
:105660002D2388F80130F34308F102012344621E20
:105670000B4411F8010D02F8010F9A42F9D10023F1
:105680002046AD1B25446B700BB0BDE8F08FA846DB
:10569000D1E782464FF0000B354698464FEAE37952
:1056A0005046594642464B4605F0CCFD02F00F0AE3
:1056B0000AEB0702AC4682468B4613780CF8013B96
:1056C0005AEA0B030AD1F3432344621E63441CF8D5
:1056D000011D02F8011F9A42F9D1D0E76546DFE7C4
:1056E000F8EB20000023C0E9003170470388013344
:1056F0000380406810B103681B6818477047406812
:1057000010B103685B681847704710B444880134CF
:105710004480406820B10468A468A44610BC604777
:1057200010BC7047002103F027BA000038B50C46C2
:105730000B68054618B919490320FBF7B9FA4A68FE
:10574000B0F89010518000224BB9B5F87C309342EC
:1057500009D22046BDE838407A2103F00DBA996895
:105760001B680A44F0E7284602F0BAFB60B1234602
:1057700040F202220A49012001F007FD68B92046E3
:10578000BDE83840FFF7CEBF40F202222146B5F90E
:10579000900001F0EFFC0028F1DD38BD3FCA200089
:1057A0000000FFFF2DE9F8430D4612C907460A46DF
:1057B00000233AB95BBAA380A379FF2B0ED129B994
:1057C0003B230AE0906812680344F2E791F9103035
:1057D000022B2ED0032BF3D13A23A371E37913B913
:1057E0004FBB4023E37104F10806102222493046E2
:1057F00005F0CEFE814670B904F118081F49102249
:10580000404605F0C5FE0146C0B91022304605F0FD
:10581000F2FE0123E3752C4694F91030022B1AD0C6
:105820002946204602F07FFF00281DDB0020BDE84E
:10583000F8832923D1E797F88E30D3E741464A46CB
:10584000384602F0C5F801460028E4D01022304660
:1058500005F0ADFEDFE720680028E1D003F09AF9FB
:1058600030B120600446D7E7831C08BF0020DEE784
:105870006FF00B00DBE700BF29EE200009EE2000EF
:1058800010B50C46FFF78EFF002804DA2046FFF71C
:1058900049FF002010BD0120FCE7002370B504463D
:1058A0000D4642F0400619461A46184602F090FD91
:1058B000014620B92046BDE87040FFF733BF43687A
:1058C0001E7104602846BDE87040FFF72FBF00003E
:1058D000002380B59EB00493A3F580330593B94BA4
:1058E00008211B880EA8ADF81830FFF763FC04A947
:1058F000022002F0DFFE40F2052344F6C077DFF815
:10590000D882ADF80A3044F6C3746846FFF74FFCFE
:10591000BDF80210A1421CD8B94227D240F202239E
:10592000994200F0E88009D840F201239942ECD175
:10593000019E26BBA4490320FBF7BAF9B1F5017F0C
:10594000E3D86FF0850302A968460393FFF7FEFBD7
:10595000D9E744F6CF7399420CD844F6CB739942F9
:1059600004D2A1F59F43453B042BCED8019800F00B
:10597000B7FDC8E7A1F59F43513B012BF5E74FF079
:10598000FF31304602F0DCFE20B14368B3F902007B
:1059900001F0ABFD736805463BB1B268272A04D914
:1059A0001B7803F0F003602B03D03046FFF7BAFEFC
:1059B000A9E7304603F0EEF804460028F5D00222AD
:1059C000282103F00FF80023237408B92046EDE7DF
:1059D000D0F8049099F8073023B97421204603F0D9
:1059E000CBF890E7B9F8041099F8066049BA89B283
:1059F00009B93B2EEAD1844265D0A36820468B4288
:105A000061D903F055F809F1180A10226F49504680
:105A100005F0BEFDD0B108226D49504605F0B8FD35
:105A200048B199F81830FF2B07D199F8193003F0D5
:105A30000F03022B01D1002D54D1504602F0A2F8E1
:105A40000546B0FA80F040090028BFD1292E4DD07C
:105A50003A2E0CBF0323002323743146022002F0A8
:105A60004EFE002801DC3A2E42D10121204603F0EF
:105A700071F84FF00109234640F20122554994F98B
:105A8000100001F082FB10B92046FFF74BFEB9F180
:105A9000000F10D03A2E03D10121204603F05AF80E
:105AA000234640F201223146022001F06EFB10B97C
:105AB0002046FFF737FE3A2E7FF425AF21462846D1
:105AC00005F092F91FE7002283681A4490F910301C
:105AD000022B02D000680028F6D1283A8A4292D2DE
