:100000000C94AD000C94F4000C94F4000C94F400E7
:100010000C94F4000C94F4000C94F4000C94F40090
:100020000C94F4000C94F4000C94F4000C94F40080
:100030000C94F4000C94F4000C94F4000C94F40070
:100040000C94F4000C9496040C94C2040C94EE04EA
:100050000C94F4000C94F4000C94F4000C94F40050
:100060000C94F4000C94F5020C94F4000C94F4003D
:100070000C94F4000C94F4000C94F4000C94F40030
:100080000C94F4000C94F4000C94F4000C94F40020
:100090000C941F030C94F4000C94F4000C94F400E2
:1000A0000C94F4000C94F4000C941A050C9446057E
:1000B0000C9472050C94F4000C94F4000C94F4006D
:1000C0000C94F4000C94F4000C94F4000C94F400E0
:1000D0000C94F4000C94F4000C94F4000C94F400D0
:1000E0000C94F4000C94D8070C94FD0F0C947D0133
:1000F0000C948C0A0C94EA0F0C94BA010C94E70748
:100100000C94C0010C9457070C94E30D46415441E4
:100110004C204552524F523A204241444953525F7B
:10012000766563742063616C6C65642C20756E70F9
:10013000726F63657373656420496E74657272755E
:1001400070742E0A53544F50204578656375746956
:100150006F6E2E0A00007D01BA01832D8093EB079C
:1001600084B78093EC0714BE0FB6F894A8958091DD
:100170006000886180936000109260000FBE1124BF
:100180001FBECFEFD1E2DEBFCDBF00E00CBF13E05A
:10019000A0E0B2E0E8E2F7E200E00BBF02C00790A7
:1001A0000D92A234B107D9F727E0A2E4B3E001C071
:1001B0001D92AB3EB207E1F710E0CDEAD0E000E0DF
:1001C00006C021970109802FFE010E947410CB3ACE
:1001D000D10780E00807A9F70E94F6000C9492135B
:1001E0000E9478010C9492130C948B0E0E949E0531
:1001F0000C94EA0761E070E080910602909107029A
:100200000E94830140E855E260E070E084EC93E0F6
:100210000E94CC0160E472E084EC93E00C94340220
:100220000F931F93CF93DF93809106029091070263
:100230000E949A0161E070E0892B11F060E070E0AB
:1002400080910602909107020E94940184EC93E051
:100250000E94C601181619060CF040C084EC93E009
:100260000E94E9018A30910531F56FE472E084EC77
:1002700093E00E941D0204E413E0C0E0D0E080910E
:10028000420390914303C817D90754F4F8016191D0
:1002900071918F0184EC93E00E9404022196EFCFCC
:1002A0006AE070E084EC93E00E9404021092430341
:1002B00010924203CBCF2091420330914303A90116
:1002C0004F5F5F4F5093430340934203220F331F0E
:1002D000F901EC5BFC4F91838083B8CF64EF71E050
:1002E00080E090E0DF91CF911F910F910C94A801D5
:1002F0000E94FA000E941001FDCF60E070E084ECE3
:1003000093E00C94C2016115710529F0623071050A
:1003100021F462E003C060E001C063E0FC01EA5A3E
:10032000FD4F80810C9457038A5A9D4FFC018081B8
:100330000C94C5038A5A9D4FFC0180810E948C0356
:1003400021E030E0892B11F420E030E0C90108956C
:100350009B01AC01A8EEB3E00E94691022E09695E3
:100360008795779567952A95D1F720E030E0A90128
:100370000C94120E60E070E08EE094E00C94C201E8
:100380000C947907FC01718360830895885B9F4F0B
:10039000FC018081918108950F931F93FC01EE5B16
:1003A000FF4F9C012E5F3F4F3183208320E430E0DC
:1003B0003383228315821482178216828F0120ECE8
:1003C00031E0FC01808191810E948C021F910F918C
:1003D0000895CF93DF93EC010E944802FE01E85B91
:1003E000FF4F80819181892B39F0CE018E5B9F4F29
:1003F0000E94B407EC0102C0CFEFDFEF0E944E0273
:10040000CE01DF91CF910895CF93DF931F921F927A
:10041000CDB7DEB77A83698341E050E0BE016F5FFC
:100420007F4FFC01808191810E94DC0281E090E09D
:100430000F900F90DF91CF9108950F931F93CF935B
:10044000DF938C01EB01CB010E948B10AC01BE014C
:10045000F801808191810E94DC02CE01DF91CF9171
:100460001F910F910C948B100F931F93CF93DF93D9
:10047000EC010E941D028C016CE972E0CE010E9429
:100480001D02C8010296DF91CF911F910F9108952F
:100490000FB6802DF894807890E0089578940FB688
:1004A000802D807890E00895FF920F93F82E0FB77B
:1004B000087FF02AFFBE0F91FF90089580915804A5
:1004C00090E0089521E020935804FC01EE0FFF1FF7
:1004D000E355FD4F0190F081E02D6681880F991F53
:1004E000880F991FDC01A75ABB4FED91FC91119722
:1004F00012968D919C91139719958091CD049091AE
:10050000CE04892B31F00E940E08109258040E94EC
:10051000860F109258040895EF92FF920F931F9345
:10052000CF93DF93790182309105E8F5FC01EE0F5E
:10053000FF1FEE0FFF1FE75AFB4FF182E08213838C
:100540000283880F991FFC01E355FD4FC081D181C3
:100550001982188286E08A83DB01CA0180589B4792
:10056000A14EBF4FE3E0880F991FAA1FBB1FEA955A
:10057000D1F79A01AB01F4E0220F331F441F551F3E
:10058000FA95D1F7BC01CD010E94471021503109E5
:100590003D832C83EF2811F088E901C088E089832E
:1005A00080E090E002C08FEF9FEFDF91CF911F912D
:1005B0000F91FF90EF900895CF93DF93FB01460FCB
:1005C000571F880F991FDC01A355BD4FE417F5078E
:1005D00049F0CD91DC911197888185FFFDCF819104
:1005E0008E83F4CFDF91CF9108951F920F920FB6B3
:1005F0000F9211240BB60F922F933F934F935F935B
:100600006F937F938F939F93AF93BF93EF93FF93DA
:1006100080E090E00E946202FF91EF91BF91AF9164
:100620009F918F917F916F915F914F913F912F910A
:100630000F900BBE0F900FBE0F901F9018951F923A
:100640000F920FB60F9211240BB60F922F933F9378
:100650004F935F936F937F938F939F93AF93BF93CA
:10066000EF93FF9381E090E00E946202FF91EF918F
:10067000BF91AF919F918F917F916F915F914F91BA
:100680003F912F910F900BBE0F900FBE0F901F90B8
:100690001895282F22952F7033E0239FC001112435
:1006A000273010F48296089583519F4F0895CF9379
:1006B000DF93982F9F70C1E0D0E001C0CC0F9A95D6
:1006C000EAF76230A9F0633069F0611120C00E943E
:1006D0004903FC012291C0952C232083FC01208139
:1006E000C22311C00E944903FC018291C82B0BC098
:1006F0000E944903FC0122913C2F30952323208343
:10070000FC012081C22BC08380E090E002C08FEF0B
:100710009FEFDF91CF910895CF93C82F0E94490397
:100720000297FC012081CF7081E090E002C0880F29
:10073000991FCA95E2F730E082239323CF91089561
:10074000CF93C82F0E944903FC014081CF7021E064
:1007500030E001C0220FCA95EAF7242B2083CF9105
:100760000895CF93C82F0E944903FC014081CF70A8
:1007700021E030E002C0220F331FCA95E2F7209536
:10078000309524232083CF910895672B11F00C948A
:10079000A0030C94B10321E0209358042CE0AC0199
:1007A000249FC001259F900D1124DC01A85FBD4F3F
:1007B0001296ED91FC9113972081AB014F5F5F4F33
:1007C00081E090E001C0880F4A95EAF78095822386
:1007D00080831696ED91FC91179718968D919C91B8
:1007E000199719958091CD049091CE04892B31F001
:1007F0000E940E08109258040E94860F109258040E
:1008000008958F929F92AF92BF92CF92DF92EF9214
:10081000FF920F931F93DC010297D8F4E1EBF2E013
:1008200090E0C12C84E2D82E84EFE82EF12C460112
:100830005701019004C0B694A794979487940A94A2
:10084000D2F79F5F84169506A606B70629F0953065
:1008500071F78FEF9FEF1EC08CE08A9FF0018B9F96
:10086000F00D1124E85FFD4FA081B1811C9211961B
:100870001C92119712961C92129715961C921E921A
:1008800014973783268311870087928711969C934C
:1008900080E090E01F910F91FF90EF90DF90CF905C
:1008A000BF90AF909F908F900895633071055CF575
:1008B0002CE0289FF001299FF00D1124E85FFD4FE7
:1008C00080819181DB011496AA0FBB1FA80FB91F6D
:1008D00011965C934E93A481B5812C916F5F7F4FED
:1008E00081E090E001C0880F6A95EAF7982F909513
:1008F00092239C930280F381E02D9081892B808349
:1009000081E090E008958FEF9FEF08952CE0AC0117
:10091000249FC001259F900D1124FC01E85FFD4F2D
:100920000190F081E02D8481958108951F920F92AE
:100930000FB60F9211240BB60F922F933F934F9344
:100940005F936F937F938F939F93AF93BF93EF9337
:10095000FF9360E070E080E090E00E94CB03FF91A5
:10096000EF91BF91AF919F918F917F916F915F9127
:100970004F913F912F910F900BBE0F900FBE0F9094
:100980001F9018951F920F920FB60F9211240BB65D
:100990000F922F933F934F935F936F937F938F9318
:1009A0009F93AF93BF93EF93FF9361E070E080E07C
:1009B00090E00E94CB03FF91EF91BF91AF919F9187
:1009C0008F917F916F915F914F913F912F910F90F8
:1009D0000BBE0F900FBE0F901F9018951F920F9295
:1009E0000FB60F9211240BB60F922F933F934F9394
:1009F0005F936F937F938F939F93AF93BF93EF9387
:100A0000FF9362E070E080E090E00E94CB03FF91F2
:100A1000EF91BF91AF919F918F917F916F915F9176
:100A20004F913F912F910F900BBE0F900FBE0F90E3
:100A30001F9018951F920F920FB60F9211240BB6AC
:100A40000F922F933F934F935F936F937F938F9367
:100A50009F93AF93BF93EF93FF9360E070E081E0CB
:100A600090E00E94CB03FF91EF91BF91AF919F91D6
:100A70008F917F916F915F914F913F912F910F9047
:100A80000BBE0F900FBE0F901F9018951F920F92E4
:100A90000FB60F9211240BB60F922F933F934F93E3
:100AA0005F936F937F938F939F93AF93BF93EF93D6
:100AB000FF9361E070E081E090E00E94CB03FF9142
:100AC000EF91BF91AF919F918F917F916F915F91C6
:100AD0004F913F912F910F900BBE0F900FBE0F9033
:100AE0001F9018951F920F920FB60F9211240BB6FC
:100AF0000F922F933F934F935F936F937F938F93B7
:100B00009F93AF93BF93EF93FF9362E070E081E018
:100B100090E00E94CB03FF91EF91BF91AF919F9125
:100B20008F917F916F915F914F913F912F910F9096
:100B30000BBE0F900FBE0F901F901895E1E6F0E0EE
:100B400080E8808310820E940F100E947D0E0E9418
:100B50001F100C944E020895EB0120916104309116
:100B60006204232B71F521E030E03093620420937E
:100B70006104833091F40EB6202D0DB6802D90E0E7
:100B8000922B9F938F9386EB92E09F938F930E947B
:100B900094100F900F900F900F90DF93CF938DECE8
:100BA00092E09F938F930E94941089EE92E09F931E
:100BB0008F930E9494100F900F900F900F900F90B2
:100BC0000F900E9448020E94AB050E94790EEF929E
:100BD000FF920F931F93CF93DF93EC018B010E9441
:100BE00048027C0188819981892B41F48FEF9FEF26
:100BF00099838883C7010E9454021FC0012B01F111
:100C00000091890410918A0462E0C8010E94AC0638
:100C100088819981019641F4C80106969983888359
:100C2000F8011782168204C0B801CE010E9429087B
:100C3000C7010E9454020E94180F81E090E005C095
:100C4000C7010E94540280E090E0DF91CF911F9194
:100C50000F91FF90EF900895EF92FF920F931F93E3
:100C6000CF93DF938C010E9448027C01D801ED9163
:100C7000FC91309739F0EF3FBFEFFB0761F4F801CB
:100C800011821082C701DF91CF911F910F91FF90C8
:100C9000EF900C94540280819181D8018D939C93A4
:100CA000EF0126976BE0CE010E94AC06F80180812F
:100CB0009181892B21F48FEF9FEF91838083CB81EA
:100CC000D0E0C7010E945402CE01DF91CF911F9165
:100CD0000F91FF90EF900C943D071092CE0410926C
:100CE000CD04A0918904B0918A04209163043091CD
:100CF000640480E090E020FD04C0369527950196BD
:100D0000FACF880F991FFC01E959FB4F0190F08140
:100D1000E02D0190F081E02D3697AE17BF07C9F0A6
:100D2000109741F012968C9112978A3019F48BE04B
:100D300012968C938AE082838481958190938804B3
:100D400080938704F0938A04E093890481E090E023
:100D5000089580E090E008950F931F93CF93DF9361
:100D6000FC0182816A30E0F18A3008F080C09F0186
:100D70002A5F3F4F838190E0880F991FDC01A959BA
:100D8000BB4FCD91DC911197209751F0488159814B
:100D9000578346830D90BC91A02D2D933C9302C0A8
:100DA00037832683DC01A959BB4F2D933C9381E007
:100DB00090E0038002C0880F991F0A94E2F7092E81
:100DC000000CAA0BBB0B00916304109164042091EA
:100DD000650430916604802B912BA22BB32B3FC06E
:100DE0008A3008F444C0A381B0E0AA0FBB1FA95900
:100DF000BB4FCD91DC911197209769F08881998143
:100E0000C817D90719F41D921C9205C0DC018D91F9
:100E10009C91998388832381A22FB0E0AA0FBB1FE6
:100E2000A959BB4F8D919C91892B09F581E090E0E8
:100E300002C0880F991F2A95E2F780959095092E98
:100E4000000CAA0BBB0B0091630410916404209169
:100E500065043091660480239123A223B3238093F9
:100E6000630490936404A0936504B0936604628362
:100E7000DF91CF911F910F910895E0918904F09136
:100E80008A0422812A3028F0238130E082179307D8
:100E900068F40E945E02892B39F081E090E0909323
:100EA000CE048093CD0408950C94180F08950E94E9
:100EB0004802E0918704F0918804EE0FFF1FE55788
:100EC000FB4F118210828091CF049091D004019742
:100ED0009093D0048093CF0460E080918904909136
:100EE0008A040E94AC0610928A04109289040E941F
:100EF000CB0EFC01468157818281938148175907A7
:100F0000C9F424813581A081B181A20FB31F8C91D6
:100F1000DA011197B783A683AB2B19F415821482DB
:100F200007C02F5F3F4F3583248342175307B1F328
:100F300090E002C08FEF9FEF448155812681378179
:100F4000D9011196B783A683240F351F428153819F
:100F50002417350710F0241B350B40815181FA010D
:100F6000E20FF31F60830895FC014681578141150C
:100F70005105D9F024813581A081B181A20FB31F21
:100F80008C914150510957834683452B19F41582A2
:100F9000148209C02F5F3F4F3583248342815381E0
:100FA00024173507A1F390E008958FEF9FEF089580
:100FB0000E94E80F89E093E09F938F930E94941022
:100FC0000E9478010F900F9080E090E008950E94B9
:100FD0007C0EFDCF0E944802C0902002D0902102DA
:100FE000E12CF12C07EE17E02CE030E04FE060E858
:100FF00070E081ED94E00E944A08C0902202D090F7
:10100000230208ED17E02CE030E047E060E872E0F2
:1010100081E595E00E944A080E94CB0E0E9448029A
:10102000E0918904F0918A0422812A3070F0E381F2
:10103000F0E0EE0FFF1FE959FB4FA081B18110973F
:1010400021F02D913C91318320830E9454020C9415
:10105000180FFB0122812A3028F067EF72E083E04D
:101060000E94AC056381AF014A5F5F4FDC012D91A7
:101070003C912115310541F0D901169713967C91C9
:10108000671710F0C901F2CF37832683FC01518323
:10109000408308952F923F924F925F926F927F927A
:1010A0008F929F92AF92BF92CF92DF92EF92FF9278
:1010B0000F931F93CF93DF9300D01F92CDB7DEB76E
:1010C00040319CF54B013AE1831A9108DC01A80DEF
:1010D000B91DBC83AB83FC0123FF09C0AB81BC817C
:1010E000EA17FB0730F4F183E0833296F7CF918360
:1010F00080831601370158012A8349832B017C0123
:101100000E9448026C01EDE8F4E001E010E08191FA
:101110009191892B61F00F5F1F4F01321105B9F7D3
:10112000C6010E9454028FEB5CC084EE5AC0F801E5
:10113000EE0FFF1FE557FB4F8B819C8191838083CE
:10114000DC0115961C930E9314979401A701B3012B
:10115000C5010E94960EEB81FC8191838083F58A04
:10116000E48A518E408E378A268A2981238312820F
:1011700017821682118610861386128615861486AB
:10118000178616868FEF9FEF918B808B138A128ABA
:101190008091CF049091D00401969093D0048093D5
:1011A000CF043A8130FF06C061E08B819C810E94B0
:1011B000AC0612C06BE08B819C810E94AC06FA8168
:1011C000F2FD0AC0C6010E9454022981822F220F1B
:1011D000990B0E943D0703C0C6010E945402C8013A
:1011E00001C09FEF0F900F900F900F90DF91CF9164
:1011F0001F910F91FF90EF90DF90CF90BF90AF9035
:101200009F908F907F906F905F904F903F902F9026
:101210000895CF92DF92EF92FF92C090D707D090BF
:10122000D807E090D907F090DA0780E090E00E94BC
:101230008604BC018091D7079091D807A091D90767
:10124000B091DA07C816D906EA06FB0631F7CB01DA
:10125000A0E0B0E0BC01CD016C297D298E299F2939
:10126000FF90EF90DF90CF9008958F929F92AF9272
:10127000BF92CF92DF92EF92FF920F931F93CF9383
:10128000DF938C01EB010E9409094B015C01C090C6
:10129000DB07D090DC07E090DD07F090DE070E94CE
:1012A0000909681579058A059B0568F3F8016083CB
:1012B000718382839383C882D982EA82FB82DF9121
:1012C000CF911F910F91FF90EF90DF90CF90BF9043
:1012D000AF909F908F9008952091DF073091E007A5
:1012E000232B39F4AB0160E070E080E090E00C94D7
:1012F000550408950F931F93CF93DF93DC01E09182
:10130000D107F091D207C1EDD7E0309741F10681C6
:1013100017812085318516964D915D916D917C9157
:101320001997041715072607370728F4EF010190CE
:10133000F081E02DEACF041715072607370779F467
:10134000028113812481358112964D915D916D91B9
:101350007C911597401751076207730738F711966C
:10136000FC93EE93B983A883DF91CF911F910F91E6
:1013700008950F931F93CF93DF938091D707909198
:10138000D807A091D907B091DA0711968093D707B3
:101390009093D807A093D907B093DA078091D70725
:1013A0009091D807A091D907B091DA07892B8A2BA1
:1013B0008B2B99F48091DB079091DC07A091DD07DE
:1013C000B091DE070196A11DB11D8093DB079093BC
:1013D000DC07A093DD07B093DE07E091D307F0911F
:1013E000D407F093D607E093D5071092D407109254
:1013F000D307A091D107B091D207ED0180E090E032
:10140000209781F14091DB075091DC076091DD0767
:101410007091DE070E811F8128853985401751079D
:101420006207730738F4D093D207C093D1070097AF
:10143000F1F46DC00091D7071091D8072091D9071A
:101440003091DA074A815B816C817D814427552781
:10145000401751076207730731F7CE010990D88111
:10146000C02DCECF1092D2071092D107E0CFEC0161
:1014700019821882309709F446C0109791F00281C2
:1014800013812481358112964D915D916D917C91EE
:101490001597401751076207730718F49A2F8B2F7F
:1014A00002C09E2F8F2FC92F282FD22F0190F0819D
:1014B000E02D0D90BC91A02D309719F4B983A8832D
:1014C0001DC0109719F4F983E88318C002811381B5
:1014D0002481358112964D915D916D917C91159786
:1014E000401751076207730718F43A2F2B2F02C0D9
:1014F0003E2F2F2F38832983C32FD7CF9093D50723
:101500008093D60704C0B093D607A093D507DF9188
:10151000CF911F910F9108958F929F92AF92BF929A
:10152000CF92DF92EF92FF9281E090E09093E007FC
:101530008093DF078091D5079091D607892B49F4D6
:101540000E94B90980E090E00E9486040196D1F3E0
:10155000B4C080E090E00E9486046C01E12CF12C84
:101560003AC0AA24BB2488159905AA05BB0598F49E
:10157000E091D507F091D60782809380A480B58052
:1015800080E090E00E948604A0E0B0E08C159D050C
:10159000AE05BF0530F7A091D507B091D6078D9164
:1015A0009C9111979093D6078093D50712961D9220
:1015B0001D921D921C92159716961D921D921D92BA
:1015C0001C9219971A96ED91FC911B971C968D9180
:1015D0009C911D971995E091D507F091D60730970A
:1015E00089F480E090E00E948604A0E0B0E0449698
:1015F000A11DB11D8C159D05AE05BF0598F50E9476
:10160000B90924C082809380A480B58080E090E0F6
:101610000E948604A0E0B0E08C159D05AE05BF05D4
:1016200008F4A6CFB501A40166277727841795078C
:10163000A607B70708F09CCF481B590B6A0B7B0B1A
:10164000443151056105710560F692CF80E090E06C
:101650000E948604A0E0B0E0C816D906EA06FB06A0
:10166000A8F32BC0E091D507F091D6073097B9F0D9
:1016700082809380A480B58084E1881A9108A108B3
:10168000B1080E940909DC01CB014496A11DB11DDE
:1016900088169906AA06BB0608F49DCF2FC080E0E5
:1016A00090E00E9486044C01A12CB12C8C149D0466
:1016B000AE04BF0430F40E94B909C12CD12C7601CC
:1016C0008ACFD501C4014496A11DB11DAA27BB270D
:1016D00088159905AA05BB0560F480E090E00E949A
:1016E0008604A0E0B0E088159905AA05BB05A8F717
:1016F000E2CF88248A94982CA12CB12C1092E00778
:101700001092DF07C501B401FF90EF90DF90CF90FA
:10171000BF90AF909F908F900C946C09FC01A091AA
:10172000D507B091D607A817B90719F0A5EDB7E00E
:101730001DC0ED91FC91F093D607E093D50730974B
:1017400059F082819381A481B581BC01CD0164519E
:1017500071098109910904C06FEF7FEF80E090E08B
:101760000C946C09E817F907A9F0DC018D919C91A4
:1017700011970097B9F7A3EDB7E08D919C91119760
:10178000009729F0E817F90729F0DC01F6CFA1ED61
:10179000B7E009C0808191818D939C930895E817EB
:1017A000F907C1F3DC018D919C9111970097B9F76E
:1017B00008950F931F9300E010E02CE83AE040E911
:1017C00050ED63E070E080E090E00E9401046FEF74
:1017D0007FEFCB011F910F910C946C094F925F9298
:1017E0006F927F928F929F92AF92BF92CF92DF9231
:1017F000EF92FF920F931F93CF93DF93EC016A0157
:101800007B010E9409094B015C0119821882D701F2
:10181000C60188199909AA09BB098997A105B105CB
:10182000F0F4EE24FF2480E090E00E948604A0E023
:10183000B0E0C816D906EA06FB06A8F380E090E0FF
:101840000E948604A0E0B0E08C159D05AE05BF05A2
:10185000A8F3EA85FB858C859D851995A0C00E941B
:1018600048028C018A819B81AC81BD81892B8A2BA6
:101870008B2B09F090C08E819F81A885B985892B1B
:101880008A2B8B2B09F087C0CA82DB82EC82FD8217
:101890004090DB075090DC076090DD077090DE071A
:1018A000C701B6016451710981099109681579056B
:1018B0008A059B0528F42FEF421A520A620A720A1F
:1018C0004E825F82688679864090DB075090DC0705
:1018D0006090DD077090DE072E813F814885598535
:1018E000421653066406750688F02091D70730919A
:1018F000D8074091D9075091DA072B013C014424C5
:101900005524241535054605570521F0CE010E94C2
:101910007A093DC0AA24BB2486169706A806B906F4
:1019200018F4A5EDB7E021C0A3EDB7E0ED91FC916F
:101930001197309759F04281538164817581C416A3
:10194000D506E606F70610F0DF01F0CFF983E8834D
:10195000CD93DC931CC082809380A480B580C81492
:10196000D904EA04FB0430F0DF01ED91FC911197FA
:10197000309789F7F983E883CD93DC932091D507DD
:101980003091D607C217D30711F40E946C09C80121
:101990000E94540204C0CE010E948E0B75CF80E0DD
:1019A00090E0DF91CF911F910F91FF90EF90DF902A
:1019B000CF90BF90AF909F908F907F906F905F90EF
:1019C0004F9008950F931F93CF93DF93EC010E94E4
:1019D00048028C018A819B81AC81BD81892B8A2B35
:1019E0008B2B79F48E819F81A885B985892B8A2BD1
:1019F0008B2B39F4C801DF91CF911F910F910C947B
:101A00005402CE010E948E0BF5CF8F929F92AF921F
:101A1000BF92CF92DF92EF92FF92CF93DF93FC01C0
:101A200022853385232B09F447C06A017B01EC0131
:101A30000E94E20CF8E2CF16D104E104F10438F57B
:101A400080E090E00E9486044C01A12CB12C80E043
:101A500090E00E948604A0E0B0E088199909AA09E4
:101A6000BB09AA27BB278C159D05AE05BF0578F3DA
:101A7000EA85FB858C859D85DF91CF91FF90EF9066
:101A8000DF90CF90BF90AF909F908F9019940E945D
:101A90000909AB01BC014C0D5D1D6E1D7F1DCE0102
:101AA000DF91CF91FF90EF90DF90CF90BF90AF90FC
:101AB0009F908F900C94EE0BDF91CF91FF90EF9061
:101AC000DF90CF90BF90AF909F908F9008954F92EE
:101AD0005F926F927F928F929F92AF92BF92EF929E
:101AE000FF920F931F93CF93DF93011511052105EB
:101AF000310581F4DF91CF911F910F91FF90EF900D
:101B0000BF90AF909F908F907F906F905F904F901D
:101B10000C94050D280139014A015B01EC010E947A
:101B200048027C018A819B81AC81BD81892B8A2BF3
:101B30008B2B09F044C08E819F81A885B985892BA4
:101B40008A2B8B2BE1F5BE016A5F7F4FCE01029697
:101B50000E9435098A819B81AC81BD81880D991DC8
:101B6000AA1DBB1D8A839B83AC83BD830E811F810D
:101B700028853985040D151D261D371D88159905E5
:101B8000AA05BB0520F40F5F1F4F2F4F3F4F0E8359
:101B90001F8328873987CE010E947A09C701DF9108
:101BA000CF911F910F91FF90EF90BF90AF909F90BA
:101BB0008F907F906F905F904F900C945402CE0165
:101BC0000E948E0BC0CF0C942C068F929F92AF92E6
:101BD000BF92CF92DF92EF92FF926B017C0180E087
:101BE00090E00E9486044C01A12CB12CEE24FF242D
:101BF00080E090E00E948604A0E0B0E08819990996
:101C0000AA09BB09AA27BB278C159D05AE05BF05F0
:101C100078F3FF90EF90DF90CF90BF90AF909F90C0
:101C20008F9008954F925F926F927F928F929F92C2
:101C3000AF92BF92EF92FF920F931F93CF93DF93D8
:101C4000CDB7DEB760970FB6F894DEBF0FBECDBF3D
:101C50004B015C0129013A010E945E02892B71F05F
:101C600045284628472829F067EF72E083E00E9464
:101C7000AC05C501B4010E94E50D26C0188A1F8677
:101C800083EE9DE09C878B877E018FE0E80EF11C40
:101C9000FE86ED861F82188619861A861B821C8294
:101CA0001D821E8261E070E0C7010E94E70593017A
:101CB0008201B501A401CE0101960E94670D61E089
:101CC00070E0C7010E94E70560960FB6F894DEBF8A
:101CD0000FBECDBFDF91CF911F910F91FF90EF907D
:101CE000BF90AF909F908F907F906F905F904F903C
:101CF00008950E944802FFCF0895A8950FB6F89462
:101D0000A8958091600088618093600010926000C7
:101D10000FBE0C9446101F920F920FB60F92112413
:101D20005F9A6CE071E080E00E94AC05240F351FE3
:101D3000F90131974FEA408331974EEF408347E5F1
:101D400057E0319740833197508331971082319714
:101D50008083319790833197108231971082319729
:101D600080E88083319710823197108231971082FA
:101D7000C90183971292E817F907E1F7F901B497BF
:101D80006083319770838AE182938F5F8032E1F7BD
:101D9000C9018C9708950E946D060E944E028DB76E
:101DA0009EB72091040230910502821B930B909301
:101DB0000102809300028091E1079091E207892B54
:101DC00041F480910202909103029093E207809384
:101DD000E107A0918904B0918A04CD91CDBFDD9136
:101DE000DEBFFF91EF91DF91CF91BF91AF919F91B6
:101DF0008F917F916F915F914F913F912F911F91A3
:101E00000F91FF90EF90DF90CF90BF90AF909F9099
:101E10008F907F906F905F904F903F902F901F908A
:101E20000F900CBE0F900BBE0F900FBE0F90089539
:101E30000E945E02892B09F062C00F920FB6F894DF
:101E40000F920BB60F920CB60F921F9211242F9285
:101E50003F924F925F926F927F928F929F92AF923A
:101E6000BF92CF92DF92EF92FF920F931F932F9327
:101E70003F934F935F936F937F938F939F93AF9312
:101E8000BF93CF93DF93EF93FF93A0918904B09119
:101E90008A040DB60D920EB60D920E946D06A091A9
:101EA0008904B0918A04CD91CDBFDD91DEBFFF9151
:101EB000EF91DF91CF91BF91AF919F918F917F91E2
:101EC0006F915F914F913F912F911F910F91FF90D3
:101ED000EF90DF90CF90BF90AF909F908F907F90CA
:101EE0006F905F904F903F902F901F900F900CBE7F
:101EF0000F900BBE0F900FBE0F900895089581E0D4
:101F000090E09093CE048093CD0408950F920FB685
:101F1000F8940F920BB60F920CB60F921F921124E9
:101F20002F923F924F925F926F927F928F929F92E9
:101F3000AF92BF92CF92DF92EF92FF920F931F93D7
:101F40002F933F934F935F936F937F938F939F93C1
:101F5000AF93BF93CF93DF93EF93FF93A091890447
:101F6000B0918A040DB60D920EB60D920E946D06C8
:101F7000A0918904B0918A04CD91CDBFDD91DEBFDF
:101F8000FF91EF91DF91CF91BF91AF919F918F9191
:101F90007F916F915F914F913F912F911F910F9181
:101FA000FF90EF90DF90CF90BF90AF909F908F9079
:101FB0007F906F905F904F903F902F901F900F9069
:101FC0000CBE0F900BBE0F900FBE0F90189508958A
:101FD0000C94D90BCF93DF931F92CDB7DEB761E09E
:101FE00070E0CE0101960E9436108981082E000C07
:101FF000990B0F90DF91CF910895CF93DF931F92AC
:10200000CDB7DEB7898361E070E0CE0101960E9412
:10201000391080E090E00F90DF91CF9108950E94F9
:102020002510E5EEF7E082E392E09383828384E279
:1020300092E0918380838FE393E00C94A81063E097
:1020400087E10E9457035F9808950F931F9300E064
:1020500010E020E030E040E855E260E070E080E031
:1020600090E00E948C021F910F91089583EC9FEFE6
:102070000895CF93DF93EB01AB01BC0180E090E0CA
:102080000E94DC02CE01DF91CF9108950895A1E274
:102090001A2EAA1BBB1BFD010DC0AA1FBB1FEE1FE2
:1020A000FF1FA217B307E407F50720F0A21BB30B2D
:1020B000E40BF50B661F771F881F991F1A9469F7A9
:1020C00060957095809590959B01AC01BD01CF0105
:1020D00008950E947C10A59F900DB49F900DA49F21
:1020E000800D911D11240895EE0FFF1F881F8BBFD7
:1020F0000790F691E02D1994A29FB001B39FC00103
:10210000A39F700D811D1124911DB29F700D811D23
:102110001124911D0895FC0101900020E9F780959C
:1021200090958E0F9F1F0895CF93DF93CDB7DEB7A5
:10213000AE014A5F5F4FFA0161917191AF018091E9
:10214000E7079091E8070E94D810DF91CF9108959A
:102150000F931F93CF93DF93E091E707F091E80788
:10216000238121FF1BC08C01D0E0C0E0F8018191E8
:102170008F016091E7077091E807DB011896ED91F8
:10218000FC911997882331F01995892B79F3DFEFAA
:10219000CFEFECCF8AE01995892B19F08FEF9FEFE5
:1021A00002C08D2F9C2FDF91CF911F910F91089529
:1021B0002F923F924F925F926F927F928F929F9257
:1021C000AF92BF92CF92DF92EF92FF920F931F9345
:1021D000CF93DF93CDB7DEB72B970FB6F894DEBF62
:1021E0000FBECDBF6C017B018A01FC0117821682F4
:1021F000838181FFCCC1CE0101963C01F601938120
:10220000F70193FD859193FF81917F01882309F464
:10221000BAC1853239F493FD859193FF81917F0195
:10222000853229F4B60190E00E94F812E7CF912C94
:10223000212C312CFFE1F315D8F08B3279F038F4F2
:10224000803279F08332A1F4232D20611DC08D32BC
:1022500061F0803369F4232D216016C0832D8260E4
:10226000382EE32DE4603E2E2AC0F32DF8601DC009
:1022700037FC2DC020ED280F2A3040F08E32B9F403
:1022800036FC81C1232D2064322E19C036FE06C0D3
:102290008AE0989E200D1124922E11C0EAE02E9E15
:1022A000200D1124222EF32DF0623F2E08C08C3613
:1022B00021F4832D8068382E02C0883641F4F7015E
:1022C00093FD859193FF81917F018111B3CF982F69
:1022D0009F7D9554933028F40C5F1F4F9FE39983A3
:1022E0000DC0833631F0833771F0833509F059C062
:1022F00021C0F801808189830E5F1F4F8824839459
:10230000912C530113C02801F2E04F0E511CF8012B
:10231000A080B18036FE03C0692D70E002C06FEF6F
:102320007FEFC5010E94ED124C018201F32DFF7772
:102330003F2E16C0280122E0420E511CF801A08059
:10234000B18036FE03C0692D70E002C06FEF7FEFF1
:10235000C5010E94E2124C01F32DF0683F2E82016C
:1023600033FC1BC0822D90E088169906B0F4B601AC
:1023700080E290E00E94F8122A94F4CFF50137FC35
:10238000859137FE81915F01B60190E00E94F812BD
:1023900021102A9421E0821A91088114910471F786
:1023A000E8C0843611F0893641F5F80137FE07C0E0
:1023B00060817181828193810C5F1F4F08C06081B1
:1023C0007181072E000C880B990B0E5F1F4FF32DA8
:1023D000FF763F2E97FF09C0909580957095619587
:1023E0007F4F8F4F9F4FF0683F2E2AE030E0A301D0
:1023F0000E943413882E861845C0853731F4232D6A
:102400002F7EB22E2AE030E025C0932D997FB92E81
:102410008F36C1F018F4883579F0B5C0803719F0DF
:10242000883721F0B0C0E92FE061BE2EB4FE0DC0A8
:10243000FB2DF460BF2E09C034FE0AC0292F266090
:10244000B22E06C028E030E005C020E130E002C036
:1024500020E132E0F801B7FE07C06081718182811E
:1024600093810C5F1F4F06C06081718180E090E016
:102470000E5F1F4FA3010E943413882E8618FB2D78
:10248000FF773F2E36FE0DC0232D2E7FA22E8914FE
:1024900058F434FE0BC032FC09C0832D8E7EA82E6A
:1024A00005C0B82CA32C03C0B82C01C0B92CA4FEC5
:1024B0000FC0FE01E80DF11D8081803321F49A2DBB
:1024C000997EA92E09C0A2FE06C0B394B39404C09D
:1024D0008A2D867809F0B394A3FC11C0A0FE06C033
:1024E000B21488F4280C922C9B180EC0B21460F41D
:1024F000B60180E290E00E94F812B394F7CFB214D4
:1025000018F42B1802C0982C212CA4FE10C0B60180
:1025100080E390E00E94F812A2FE17C0A1FC03C065
:1025200088E790E002C088E590E0B6010CC08A2DF3
:10253000867859F0A1FE02C08BE201C080E2A7FCC0
:102540008DE2B60190E00E94F812891438F4B601C9
:1025500080E390E00E94F8129A94F7CF8A94F301F6
:10256000E80DF11D8081B60190E00E94F812811003
:10257000F5CF222009F442CEB60180E290E00E941D
:10258000F8122A94F6CFF6018681978102C08FEF68
:102590009FEF2B960FB6F894DEBF0FBECDBFDF9135
:1025A000CF911F910F91FF90EF90DF90CF90BF9050
:1025B000AF909F908F907F906F905F904F903F90E3
:1025C0002F900895FC010590615070400110D8F7DC
:1025D000809590958E0F9F1F0895FC01615070406B
:1025E00001900110D8F7809590958E0F9F1F089548
:1025F0000F931F93CF93DF93FB01238121FD03C032
:102600008FEF9FEF2CC022FF16C046815781248197
:1026100035814217530744F4A081B1819D012F5F9A
:102620003F4F318320838C93268137812F5F3F4F2B
:102630003783268314C08B01EC01FB010084F185F4
:10264000E02D1995892BE1F6D80116968D919C9174
:102650001797019617969C938E931697CE01DF914C
:10266000CF911F910F910895FA01AA27283051F1B7
:10267000203181F1E8946F936E7F6E5F7F4F8F4FB3
:102680009F4FAF4FB1E03ED0B4E03CD0670F781F12
:10269000891F9A1FA11D680F791F8A1F911DA11DF7
:1026A0006A0F711D811D911DA11D20D009F4689430
:1026B0003F912AE0269F11243019305D3193DEF6D8
:1026C000CF010895462F4770405D4193B3E00FD08E
:1026D000C9F7F6CF462F4F70405D4A3318F0495D79
:1026E00031FD4052419302D0A9F7EACFB4E0A6955C
:1026F0009795879577956795BA95C9F7009761057E
:10270000710508959B01AC010A2E069457954795D3
:1027100037952795BA95C9F7620F731F841F951FC8
:08272000A01D0895F894FFCFFD
:102728000000ED0720000D0080006F00360000005B
:1027380000000000A0007200390000000000000046
:1027480035033A0300000001000000000000EA0F12
:1027580000000000000200000000FD0F0000000063
:1027680048656C6C6F2041726475696E6F21004515
:1027780063686F3A20004041444565437374757639
:10278800141516178180717033323130000102033D
:102798000405060727262524232221403762616085
:1027A800A7A6A5A4A3A2A1A0131211105051525379
:1027B8005455565790919293949596970D0A0025E3
:1027C8006F00256900257800252E2A6600C000C8FC
:1027D80000000306080A537461636B20506F696E2A
:1027E8007465723A203078253034780A002A2A2A0B
:1027F8002052494F54206B65726E656C2070616E73
:1028080069633A0A25730A0A002A2A2A2068616C31
:102818007465642E0A0A004641494C4544204153D8
:1028280053455254494F4E2E006D61696E28293A1E
:1028380020546869732069732052494F5421202815
:1028480056657273696F6E3A206275696C64746557
:102858007374290A0069646C65006D61696E000C07
:0228680000006E
:04000003000001EC0C
:00000001FF
